{
  "_format": "hh-sol-artifact-1",
  "contractName": "BaluniV1PoolRegistry",
  "sourceName": "contracts/registry/BaluniV1PoolRegistry.sol",
  "abi": [
    {
      "inputs": [
        {
          "internalType": "address",
          "name": "target",
          "type": "address"
        }
      ],
      "name": "AddressEmptyCode",
      "type": "error"
    },
    {
      "inputs": [
        {
          "internalType": "address",
          "name": "implementation",
          "type": "address"
        }
      ],
      "name": "ERC1967InvalidImplementation",
      "type": "error"
    },
    {
      "inputs": [],
      "name": "ERC1967NonPayable",
      "type": "error"
    },
    {
      "inputs": [],
      "name": "FailedInnerCall",
      "type": "error"
    },
    {
      "inputs": [],
      "name": "InvalidInitialization",
      "type": "error"
    },
    {
      "inputs": [],
      "name": "NotInitializing",
      "type": "error"
    },
    {
      "inputs": [
        {
          "internalType": "address",
          "name": "owner",
          "type": "address"
        }
      ],
      "name": "OwnableInvalidOwner",
      "type": "error"
    },
    {
      "inputs": [
        {
          "internalType": "address",
          "name": "account",
          "type": "address"
        }
      ],
      "name": "OwnableUnauthorizedAccount",
      "type": "error"
    },
    {
      "inputs": [],
      "name": "UUPSUnauthorizedCallContext",
      "type": "error"
    },
    {
      "inputs": [
        {
          "internalType": "bytes32",
          "name": "slot",
          "type": "bytes32"
        }
      ],
      "name": "UUPSUnsupportedProxiableUUID",
      "type": "error"
    },
    {
      "anonymous": false,
      "inputs": [
        {
          "indexed": false,
          "internalType": "uint64",
          "name": "version",
          "type": "uint64"
        }
      ],
      "name": "Initialized",
      "type": "event"
    },
    {
      "anonymous": false,
      "inputs": [
        {
          "indexed": true,
          "internalType": "address",
          "name": "previousOwner",
          "type": "address"
        },
        {
          "indexed": true,
          "internalType": "address",
          "name": "newOwner",
          "type": "address"
        }
      ],
      "name": "OwnershipTransferred",
      "type": "event"
    },
    {
      "anonymous": false,
      "inputs": [
        {
          "indexed": true,
          "internalType": "address",
          "name": "pool",
          "type": "address"
        },
        {
          "indexed": false,
          "internalType": "address[]",
          "name": "assets",
          "type": "address[]"
        }
      ],
      "name": "PoolCreated",
      "type": "event"
    },
    {
      "anonymous": false,
      "inputs": [
        {
          "indexed": true,
          "internalType": "address",
          "name": "implementation",
          "type": "address"
        }
      ],
      "name": "Upgraded",
      "type": "event"
    },
    {
      "inputs": [],
      "name": "UPGRADE_INTERFACE_VERSION",
      "outputs": [
        {
          "internalType": "string",
          "name": "",
          "type": "string"
        }
      ],
      "stateMutability": "view",
      "type": "function"
    },
    {
      "inputs": [
        {
          "internalType": "address",
          "name": "poolAddress",
          "type": "address"
        }
      ],
      "name": "addPool",
      "outputs": [],
      "stateMutability": "nonpayable",
      "type": "function"
    },
    {
      "inputs": [
        {
          "internalType": "uint256",
          "name": "",
          "type": "uint256"
        }
      ],
      "name": "allPools",
      "outputs": [
        {
          "internalType": "address",
          "name": "",
          "type": "address"
        }
      ],
      "stateMutability": "view",
      "type": "function"
    },
    {
      "inputs": [],
      "name": "getAllPools",
      "outputs": [
        {
          "internalType": "address[]",
          "name": "",
          "type": "address[]"
        }
      ],
      "stateMutability": "view",
      "type": "function"
    },
    {
      "inputs": [
        {
          "internalType": "address",
          "name": "",
          "type": "address"
        },
        {
          "internalType": "address",
          "name": "",
          "type": "address"
        }
      ],
      "name": "getPool",
      "outputs": [
        {
          "internalType": "address",
          "name": "",
          "type": "address"
        }
      ],
      "stateMutability": "view",
      "type": "function"
    },
    {
      "inputs": [
        {
          "internalType": "address",
          "name": "poolAddress",
          "type": "address"
        }
      ],
      "name": "getPoolAssets",
      "outputs": [
        {
          "internalType": "address[]",
          "name": "",
          "type": "address[]"
        }
      ],
      "stateMutability": "view",
      "type": "function"
    },
    {
      "inputs": [
        {
          "internalType": "address",
          "name": "asset1",
          "type": "address"
        },
        {
          "internalType": "address",
          "name": "asset2",
          "type": "address"
        }
      ],
      "name": "getPoolByAssets",
      "outputs": [
        {
          "internalType": "address",
          "name": "",
          "type": "address"
        }
      ],
      "stateMutability": "view",
      "type": "function"
    },
    {
      "inputs": [
        {
          "internalType": "address",
          "name": "token",
          "type": "address"
        }
      ],
      "name": "getPoolsByAsset",
      "outputs": [
        {
          "internalType": "address[]",
          "name": "",
          "type": "address[]"
        }
      ],
      "stateMutability": "view",
      "type": "function"
    },
    {
      "inputs": [],
      "name": "getPoolsCount",
      "outputs": [
        {
          "internalType": "uint256",
          "name": "",
          "type": "uint256"
        }
      ],
      "stateMutability": "view",
      "type": "function"
    },
    {
      "inputs": [
        {
          "internalType": "address",
          "name": "_register",
          "type": "address"
        }
      ],
      "name": "initialize",
      "outputs": [],
      "stateMutability": "nonpayable",
      "type": "function"
    },
    {
      "inputs": [],
      "name": "owner",
      "outputs": [
        {
          "internalType": "address",
          "name": "",
          "type": "address"
        }
      ],
      "stateMutability": "view",
      "type": "function"
    },
    {
      "inputs": [
        {
          "internalType": "address",
          "name": "_pool",
          "type": "address"
        }
      ],
      "name": "poolExist",
      "outputs": [
        {
          "internalType": "bool",
          "name": "",
          "type": "bool"
        }
      ],
      "stateMutability": "view",
      "type": "function"
    },
    {
      "inputs": [],
      "name": "proxiableUUID",
      "outputs": [
        {
          "internalType": "bytes32",
          "name": "",
          "type": "bytes32"
        }
      ],
      "stateMutability": "view",
      "type": "function"
    },
    {
      "inputs": [],
      "name": "registry",
      "outputs": [
        {
          "internalType": "contract IBaluniV1Registry",
          "name": "",
          "type": "address"
        }
      ],
      "stateMutability": "view",
      "type": "function"
    },
    {
      "inputs": [
        {
          "internalType": "address",
          "name": "_register",
          "type": "address"
        },
        {
          "internalType": "uint64",
          "name": "_version",
          "type": "uint64"
        }
      ],
      "name": "reinitialize",
      "outputs": [],
      "stateMutability": "nonpayable",
      "type": "function"
    },
    {
      "inputs": [
        {
          "internalType": "address",
          "name": "_pool",
          "type": "address"
        }
      ],
      "name": "removePool",
      "outputs": [],
      "stateMutability": "nonpayable",
      "type": "function"
    },
    {
      "inputs": [],
      "name": "renounceOwnership",
      "outputs": [],
      "stateMutability": "nonpayable",
      "type": "function"
    },
    {
      "inputs": [
        {
          "internalType": "address",
          "name": "newOwner",
          "type": "address"
        }
      ],
      "name": "transferOwnership",
      "outputs": [],
      "stateMutability": "nonpayable",
      "type": "function"
    },
    {
      "inputs": [
        {
          "internalType": "address",
          "name": "newImplementation",
          "type": "address"
        },
        {
          "internalType": "bytes",
          "name": "data",
          "type": "bytes"
        }
      ],
      "name": "upgradeToAndCall",
      "outputs": [],
      "stateMutability": "payable",
      "type": "function"
    }
  ],
  "bytecode": "0x60a060405234603957600e6047565b6014603d565b6126ec6100a48239608051818181611fc50152818161203101526121fa01526126ec90f35b6043565b60405190565b5f80fd5b604d604f565b565b60556057565b565b605d6097565b565b60018060a01b031690565b90565b607c6078608092605f565b606a565b605f565b90565b608a90606d565b90565b6094906083565b90565b609e30608d565b60805256fe60806040526004361015610013575b610b65565b61001d5f3561014c565b80632d5e94a7146101475780633b7d09461461014257806341d1de971461013d5780634276b97b146101385780634f1ef2861461013357806352d1902d1461012e578063531aa03e14610129578063715018a6146101245780637b1039991461011f57806389345efb1461011a5780638da5cb5b146101155780638f2248bc14610110578063ad3cb1cc1461010b578063b4340e6a14610106578063b4ac686014610101578063c4d66de8146100fc578063d88ff1f4146100f7578063d914cd4b146100f25763f2fde38b0361000e57610b32565b610aff565b610aca565b610a97565b610a62565b610a0b565b6109d6565b6108a8565b610818565b6107e3565b610787565b6106e6565b6106b0565b6105f7565b610599565b61043a565b610366565b610246565b6101ed565b60e01c90565b60405190565b5f80fd5b5f80fd5b5f80fd5b60018060a01b031690565b61017890610164565b90565b6101848161016f565b0361018b57565b5f80fd5b9050359061019c8261017b565b565b91906040838203126101c657806101ba6101c3925f860161018f565b9360200161018f565b90565b61015c565b6101d49061016f565b9052565b91906101eb905f602085019401906101cb565b565b3461021e5761021a61020961020336600461019e565b90610b93565b610211610152565b918291826101d8565b0390f35b610158565b9060208282031261023c57610239915f0161018f565b90565b61015c565b5f0190565b346102745761025e610259366004610223565b611233565b610266610152565b8061027081610241565b0390f35b610158565b90565b61028581610279565b0361028c57565b5f80fd5b9050359061029d8261027c565b565b906020828203126102b8576102b5915f01610290565b90565b61015c565b634e487b7160e01b5f52603260045260245ffd5b5490565b5f5260205f2090565b6102e7816102d1565b821015610301576102f96001916102d5565b910201905f90565b6102bd565b1c90565b60018060a01b031690565b61032590600861032a9302610306565b61030a565b90565b906103389154610315565b90565b5f610345816102d1565b8210156103625761035f91610359916102de565b9061032d565b90565b5f80fd5b346103965761039261038161037c36600461029f565b61033b565b610389610152565b918291826101d8565b0390f35b610158565b5190565b60209181520190565b60200190565b6103b79061016f565b9052565b906103c8816020936103ae565b0190565b60200190565b906103ef6103e96103e28461039b565b809361039f565b926103a8565b905f5b8181106103ff5750505090565b90919261041861041260019286516103bb565b946103cc565b91019190916103f2565b6104379160208201915f8184039101526103d2565b90565b3461046a57610466610455610450366004610223565b611243565b61045d610152565b91829182610422565b0390f35b610158565b5f80fd5b5f80fd5b601f801991011690565b634e487b7160e01b5f52604160045260245ffd5b9061049f90610477565b810190811060018060401b038211176104b757604052565b610481565b906104cf6104c8610152565b9283610495565b565b60018060401b0381116104ed576104e9602091610477565b0190565b610481565b90825f939282370152565b9092919261051261050d826104d1565b6104bc565b9381855260208501908284011161052e5761052c926104f2565b565b610473565b9080601f830112156105515781602061054e933591016104fd565b90565b61046f565b9190916040818403126105945761056f835f830161018f565b92602082013560018060401b03811161058f5761058c9201610533565b90565b610160565b61015c565b6105ad6105a7366004610556565b906112ed565b6105b5610152565b806105bf81610241565b0390f35b5f9103126105cd57565b61015c565b90565b6105de906105d2565b9052565b91906105f5905f602085019401906105d5565b565b34610627576106073660046105c3565b610623610612611368565b61061a610152565b918291826105e2565b0390f35b610158565b90565b61064361063e61064892610164565b61062c565b610164565b90565b6106549061062f565b90565b6106609061064b565b90565b9061066d90610657565b5f5260205260405f2090565b9061068390610657565b5f5260205260405f2090565b6106a86106ad926106a36002935f94610663565b610679565b61032d565b90565b346106e1576106dd6106cc6106c636600461019e565b9061068f565b6106d4610152565b918291826101d8565b0390f35b610158565b34610714576106f63660046105c3565b6106fe6113a0565b610706610152565b8061071081610241565b0390f35b610158565b60018060a01b031690565b6107349060086107399302610306565b610719565b90565b906107479154610724565b90565b61075660015f9061073c565b90565b6107629061064b565b90565b61076e90610759565b9052565b9190610785905f60208501940190610765565b565b346107b7576107973660046105c3565b6107b36107a261074a565b6107aa610152565b91829182610772565b0390f35b610158565b151590565b6107ca906107bc565b9052565b91906107e1905f602085019401906107c1565b565b346108135761080f6107fe6107f9366004610223565b6113ae565b610806610152565b918291826107ce565b0390f35b610158565b34610848576108283660046105c3565b610844610833611428565b61083b610152565b918291826101d8565b0390f35b610158565b60018060401b031690565b6108618161084d565b0361086857565b5f80fd5b9050359061087982610858565b565b91906040838203126108a357806108976108a0925f860161018f565b9360200161086c565b90565b61015c565b346108d7576108c16108bb36600461087b565b9061169b565b6108c9610152565b806108d381610241565b0390f35b610158565b60018060401b0381116108f8576108f4602091610477565b0190565b610481565b9061090f61090a836108dc565b6104bc565b918252565b5f7f352e302e30000000000000000000000000000000000000000000000000000000910152565b61094560056108fd565b9061095260208301610914565b565b61095c61093b565b90565b610967610954565b90565b61097261095f565b90565b5190565b60209181520190565b90825f9392825e0152565b6109ac6109b56020936109ba936109a381610975565b93848093610979565b95869101610982565b610477565b0190565b6109d39160208201915f81840391015261098d565b90565b34610a06576109e63660046105c3565b610a026109f161096a565b6109f9610152565b918291826109be565b0390f35b610158565b34610a3b57610a37610a26610a21366004610223565b611714565b610a2e610152565b91829182610422565b0390f35b610158565b610a4990610279565b9052565b9190610a60905f60208501940190610a40565b565b34610a9257610a723660046105c3565b610a8e610a7d611934565b610a85610152565b91829182610a4d565b0390f35b610158565b34610ac557610aaf610aaa366004610223565b611b39565b610ab7610152565b80610ac181610241565b0390f35b610158565b34610afa57610ada3660046105c3565b610af6610ae5611bf2565b610aed610152565b91829182610422565b0390f35b610158565b34610b2d57610b17610b12366004610223565b611ed1565b610b1f610152565b80610b2981610241565b0390f35b610158565b34610b6057610b4a610b45366004610223565b611f48565b610b52610152565b80610b5c81610241565b0390f35b610158565b5f80fd5b5f90565b5f1c90565b610b7e610b8391610b6d565b61030a565b90565b610b909054610b72565b90565b610bb891610bae610bb392610ba6610b69565b506002610663565b610679565b610b86565b90565b610bcc90610bc7611f53565b610ee0565b565b90565b610be5610be0610bea92610bce565b61062c565b610279565b90565b6001610bf99101610279565b90565b90565b610c13610c0e610c1892610bfc565b61062c565b610279565b90565b634e487b7160e01b5f52601160045260245ffd5b610c3e610c4491939293610279565b92610279565b8203918211610c4f57565b610c1b565b1b90565b91906008610c78910291610c7260018060a01b0384610c54565b92610c54565b9181191691161790565b90565b9190610c9b610c96610ca393610657565b610c82565b908354610c58565b9055565b610cbb610cb6610cc092610bce565b61062c565b610164565b90565b610ccc90610ca7565b90565b610cd89061062f565b90565b610ce490610ccf565b90565b610cf09061064b565b90565b60e01b90565b60018060401b038111610d0f5760208091020190565b610481565b5f80fd5b90505190610d258261017b565b565b90929192610d3c610d3782610cf9565b6104bc565b9381855260208086019202830192818411610d7957915b838310610d605750505050565b60208091610d6e8486610d18565b815201920191610d53565b610d14565b9080601f83011215610d9c57816020610d9993519101610d27565b90565b61046f565b90602082820312610dcf575f82015160018060401b038111610dca57610dc79201610d7e565b90565b610160565b61015c565b610ddc610152565b3d5f823e3d90fd5b90610dee8261039b565b811015610dff576020809102010190565b6102bd565b610e0e905161016f565b90565b5f1b90565b90610e2760018060a01b0391610e11565b9181191691161790565b90610e46610e41610e4d92610657565b610c82565b8254610e16565b9055565b90565b634e487b7160e01b5f52603160045260245ffd5b5490565b5f5260205f2090565b610e7e81610e68565b821015610e9857610e90600191610e6c565b910201905f90565b6102bd565b610eaf91610ea9610b69565b91610c85565b565b610eba81610e68565b8015610edb576001900390610ed8610ed28383610e75565b90610e9d565b55565b610e54565b610ee95f610bd1565b5b80610f05610eff610efa5f6102d1565b610279565b91610279565b101561122c57610f1f610f195f83906102de565b9061032d565b610f31610f2b8461016f565b9161016f565b14610f4457610f3f90610bed565b610eea565b610f8790610f81610f7a610f745f610f6e610f5e5f6102d1565b610f686001610bff565b90610c2f565b906102de565b9061032d565b915f6102de565b90610c85565b610f905f610cc3565b610fbd60025f610fa7610fa286610cdb565b610ce7565b6367e4ac2c90610fb5610152565b948592610cf3565b82528180610fcd60048201610241565b03915afa801561122757610ff9610ffe91611004945f91611205575b50610ff35f610bd1565b90610de4565b610e04565b90610663565b906110305f61101a61101586610cdb565b610ce7565b6367e4ac2c90611028610152565b938492610cf3565b8252818061104060048201610241565b03915afa928315611200576110766110716110819561107c945f916111de575b5061106b6001610bff565b90610de4565b610e04565b90610679565b610e31565b61108a5f610cc3565b60026110b75f6110a161109c86610cdb565b610ce7565b6367e4ac2c906110af610152565b938492610cf3565b825281806110c760048201610241565b03915afa9182156111d95761111161110b6111169261110561110061112c975f9788916111b7575b506110fa6001610bff565b90610de4565b610e04565b90610663565b95610cdb565b610ce7565b6367e4ac2c90611124610152565b938492610cf3565b8252818061113c60048201610241565b03915afa9283156111b25761117161116c61117c95611177945f91611190575b506111665f610bd1565b90610de4565b610e04565b90610679565b610e31565b61118d6111885f610e51565b610eb1565b5b565b6111ac91503d805f833e6111a48183610495565b810190610da1565b5f61115c565b610dd4565b6111d391503d808a833e6111cb8183610495565b810190610da1565b5f6110ef565b610dd4565b6111fa91503d805f833e6111f28183610495565b810190610da1565b5f611060565b610dd4565b61122191503d805f833e6112198183610495565b810190610da1565b5f610fe9565b610dd4565b505061118e565b61123c90610bbb565b565b606090565b5f61126161125c6112779361125661123e565b50610cdb565b610ce7565b6367e4ac2c9061126f610152565b938492610cf3565b8252818061128760048201610241565b03915afa9081156112bf575f9161129d575b5090565b6112b991503d805f833e6112b18183610495565b810190610da1565b5f611299565b610dd4565b906112d6916112d1611fb4565b6112d8565b565b906112eb916112e68161206d565b6120dd565b565b906112f7916112c4565b565b5f90565b61130e906113096121e9565b61135c565b90565b90565b61132861132361132d92611311565b610e11565b6105d2565b90565b6113597f360894a13ba1a3210667c828492db98dca3e2076cc3735a920a3ca505d382bbc611314565b90565b50611365611330565b90565b6113786113736112f9565b6112fd565b90565b611383611f53565b61138b61138d565b565b61139e6113995f610cc3565b61224e565b565b6113a861137b565b565b5f90565b6113b66113aa565b506113c05f610bd1565b5b806113dc6113d66113d15f6102d1565b610279565b91610279565b1015611422576113f66113f05f83906102de565b9061032d565b6114086114028461016f565b9161016f565b1461141b5761141690610bed565b6113c1565b5050600190565b50505f90565b611430610b69565b506114435f61143d6122ba565b01610b86565b90565b60401c90565b60ff1690565b61145e61146391611446565b61144c565b90565b6114709054611452565b90565b60018060401b031690565b61148a61148f91610b6d565b611473565b90565b61149c905461147e565b90565b906114b060018060401b0391610e11565b9181191691161790565b6114ce6114c96114d39261084d565b61062c565b61084d565b90565b90565b906114ee6114e96114f5926114ba565b6114d6565b825461149f565b9055565b60401b90565b9061150e60ff60401b916114f9565b9181191691161790565b611521906107bc565b90565b90565b9061153c61153761154392611518565b611524565b82546114ff565b9055565b6115509061084d565b9052565b9190611567905f60208501940190611547565b565b9080916115746122de565b906115805f8301611466565b8015611618575b6115f5576115ba926115b19161159f865f86016114d9565b6115ac60015f8601611527565b611684565b5f809101611527565b6115f07fc7f505b2f371ae2175ee4913f4499e1f2633a7b5936321eed1cdaeb6115181d2916115e7610152565b91829182611554565b0390a1565b6115fd610152565b63f92ee8a960e01b81528061161460048201610241565b0390fd5b506116245f8301611492565b6116366116308661084d565b9161084d565b1015611587565b6116469061062f565b90565b6116529061163d565b90565b61165e9061163d565b90565b90565b9061167961167461168092611655565b611661565b8254610e16565b9055565b611699915061169290611649565b6001611664565b565b906116a591611569565b565b906116b96116b483610cf9565b6104bc565b918252565b369037565b906116e86116d0836116a7565b926020806116de8693610cf9565b92019103906116be565b565b906116f49061016f565b9052565b61170190610279565b5f19811461170f5760010190565b610c1b565b61171c61123e565b5061172e6117295f6102d1565b6116c3565b916117385f610bd1565b906117425f610bd1565b915b8261175f6117596117545f6102d1565b610279565b91610279565b10156119265761178161177c6117765f86906102de565b9061032d565b610cdb565b6117a45f61178e83610ce7565b6367e4ac2c9061179c610152565b938492610cf3565b825281806117b460048201610241565b03915afa908115611921575f916118ff575b50946117d15f610bd1565b5b806117ed6117e76117e28a61039b565b610279565b91610279565b10156118f557611806611801888390610de4565b610e04565b6118186118128461016f565b9161016f565b1461182b5761182690610bed565b6117d2565b5094509061185061183e61185593610ce7565b61184b8891849092610de4565b6116ea565b6116f8565b915b8261187261186c6118678861039b565b610279565b91610279565b146118865761188090610bed565b91611744565b509150915b611894836116c3565b9161189e5f610bd1565b5b806118b26118ac87610279565b91610279565b10156118ee576118e9906118e46118d26118cd868490610de4565b610e04565b6118df8791849092610de4565b6116ea565b610bed565b61189f565b5092505090565b5094505091611857565b61191b91503d805f833e6119138183610495565b810190610da1565b5f6117c6565b610dd4565b939150915061188b565b5f90565b61193c611930565b506119465f6102d1565b90565b61195d61195861196292610bce565b61062c565b61084d565b90565b61197961197461197e92610bfc565b61062c565b61084d565b90565b61198a9061064b565b90565b61199690611965565b9052565b91906119ad905f6020850194019061198d565b565b6119b76122de565b906119cc6119c65f8401611466565b156107bc565b906119d85f8401611492565b806119eb6119e55f611949565b9161084d565b1480611b0c575b90611a06611a006001611965565b9161084d565b1480611ae4575b611a189091156107bc565b9081611ad3575b50611ab057611a4890611a3d611a356001611965565b5f86016114d9565b82611a9e575b611b13565b611a50575b50565b611a5d905f809101611527565b6001611a957fc7f505b2f371ae2175ee4913f4499e1f2633a7b5936321eed1cdaeb6115181d291611a8c610152565b9182918261199a565b0390a15f611a4d565b611aab60015f8601611527565b611a43565b611ab8610152565b63f92ee8a960e01b815280611acf60048201610241565b0390fd5b611ade9150156107bc565b5f611a1f565b50611a18611af130611981565b3b611b04611afe5f610bd1565b91610279565b149050611a0d565b50826119f2565b611b30611b3791611b2261230c565b611b2b33612334565b611649565b6001611664565b565b611b42906119af565b565b60209181520190565b611b579054610b72565b90565b60010190565b90611b7d611b77611b70846102d1565b8093611b44565b926102d5565b905f5b818110611b8d5750505090565b909192611bad611ba7600192611ba287611b4d565b6103bb565b94611b5a565b9101919091611b80565b90611bc191611b60565b90565b90611be4611bdd92611bd4610152565b93848092611bb7565b0383610495565b565b611bef90611bc4565b90565b611bfa61123e565b50611c045f611be6565b90565b611c1890611c13611f53565b611d17565b565b60207f4c5f414444524553530000000000000000000000000000000000000000000000917f42616c756e695631506f6f6c466163746f72793a20494e56414c49445f504f4f5f8201520152565b611c746029604092610979565b611c7d81611c1a565b0190565b611c969060208101905f818303910152611c67565b90565b15611ca057565b611ca8610152565b62461bcd60e51b815280611cbe60048201611c81565b0390fd5b90815491600160401b831015611ced5782611ce5916001611ceb95018155610e75565b90610c85565b565b610481565b611d01611d0791939293610279565b92610279565b8201809211611d1257565b610c1b565b611d3c81611d35611d2f611d2a5f610cc3565b61016f565b9161016f565b1415611c99565b611d4f611d485f610e51565b8290611cc2565b611d7a5f611d64611d5f84610cdb565b610ce7565b6367e4ac2c90611d72610152565b938492610cf3565b82528180611d8a60048201610241565b03915afa908115611ecc575f91611eaa575b50611da65f610bd1565b925b83611dc3611dbd611db88561039b565b610279565b91610279565b1015611ea457611ddd84611dd76001610bff565b90611cf2565b5b80611df9611df3611dee8661039b565b610279565b91610279565b1015611e9357611e8e90611e4685611e41611e286002611e22611e1d8a8d90610de4565b610e04565b90610663565b611e3b611e36898790610de4565b610e04565b90610679565b610e31565b611e8985611e84611e6b6002611e65611e608a8890610de4565b610e04565b90610663565b611e7e611e79898c90610de4565b610e04565b90610679565b610e31565b610bed565b611dde565b5092611e9e90610bed565b92611da8565b92505050565b611ec691503d805f833e611ebe8183610495565b810190610da1565b5f611d9c565b610dd4565b611eda90611c07565b565b611eed90611ee8611f53565b611eef565b565b80611f0a611f04611eff5f610cc3565b61016f565b9161016f565b14611f1a57611f189061224e565b565b611f44611f265f610cc3565b611f2e610152565b918291631e4fbdf760e01b8352600483016101d8565b0390fd5b611f5190611edc565b565b611f5b611428565b611f74611f6e611f6961233f565b61016f565b9161016f565b03611f7b57565b611fa4611f8661233f565b611f8e610152565b91829163118cdaa760e01b8352600483016101d8565b0390fd5b611fb19061064b565b90565b611fbd30611fa8565b611fef611fe97f000000000000000000000000000000000000000000000000000000000000000061016f565b9161016f565b148015612020575b611ffd57565b612005610152565b63703e46dd60e11b81528061201c60048201610241565b0390fd5b5061202961234c565b61205b6120557f000000000000000000000000000000000000000000000000000000000000000061016f565b9161016f565b1415611ff7565b5061206b611f53565b565b61207690612062565b565b6120819061062f565b90565b61208d90612078565b90565b6120999061064b565b90565b6120a5816105d2565b036120ac57565b5f80fd5b905051906120bd8261209c565b565b906020828203126120d8576120d5915f016120b0565b90565b61015c565b919061210b60206120f56120f086612084565b612090565b6352d1902d90612103610152565b938492610cf3565b8252818061211b60048201610241565b03915afa80915f926121b9575b50155f1461216357505090600161213d57505b565b61215f90612149610152565b918291634c9c8ce360e01b8352600483016101d8565b0390fd5b928361217e612178612173611330565b6105d2565b916105d2565b036121935761218e929350612376565b61213b565b6121b58461219f610152565b918291632a87526960e21b8352600483016105e2565b0390fd5b6121db91925060203d81116121e2575b6121d38183610495565b8101906120bf565b905f612128565b503d6121c9565b6121f230611fa8565b61222461221e7f000000000000000000000000000000000000000000000000000000000000000061016f565b9161016f565b0361222b57565b612233610152565b63703e46dd60e11b81528061224a60048201610241565b0390fd5b6122566122ba565b61226e6122645f8301610b86565b915f849101610e31565b906122a261229c7f8be0079c531659141344cd1fd0a4f28419497f9722a3daafe3b4186f6b6457e093610657565b91610657565b916122ab610152565b806122b581610241565b0390a3565b7f9016d09d72d40fdae2fd8ceac6b6234c7706214fd39c1cd1e609a0528c19930090565b7ff0c57e16840df040f15088dc2f81fe391c3923bec73e23a9662efc9c229c6a0090565b61230a6123ff565b565b612314612302565b565b612327906123226123ff565b612329565b565b612332906124a5565b565b61233d90612316565b565b612347610b69565b503390565b612354610b69565b5061236f5f612369612364611330565b6124b0565b01610b86565b90565b5190565b90612380826124b3565b816123ab7fbc7cd75a20ee27fd9adebab32041f755214dbc6bffa90cc0225b39da2e5c2d3b91610657565b906123b4610152565b806123be81610241565b0390a26123ca81612372565b6123dc6123d65f610bd1565b91610279565b115f146123f0576123ec91612591565b505b565b50506123fa61250f565b6123ee565b61241061240a6125c0565b156107bc565b61241657565b61241e610152565b631afcd79f60e31b81528061243560048201610241565b0390fd5b61244a906124456123ff565b61244c565b565b8061246761246161245c5f610cc3565b61016f565b9161016f565b14612477576124759061224e565b565b6124a16124835f610cc3565b61248b610152565b918291631e4fbdf760e01b8352600483016101d8565b0390fd5b6124ae90612439565b565b90565b803b6124c76124c15f610bd1565b91610279565b146124e9576124e7905f6124e16124dc611330565b6124b0565b01610e31565b565b61250b906124f5610152565b918291634c9c8ce360e01b8352600483016101d8565b0390fd5b3461252261251c5f610bd1565b91610279565b1161252957565b612531610152565b63b398979f60e01b81528061254860048201610241565b0390fd5b606090565b9061256361255e836104d1565b6104bc565b918252565b3d5f14612583576125783d612551565b903d5f602084013e5b565b61258b61254c565b90612581565b5f806125bd9361259f61254c565b508390602081019051915af4906125b4612568565b909190916125de565b90565b6125c86113aa565b506125db5f6125d56122de565b01611466565b90565b906125f2906125eb61254c565b50156107bc565b5f146125fe5750612669565b61260782612372565b6126196126135f610bd1565b91610279565b148061264e575b612628575090565b61264a90612634610152565b918291639996b31560e01b8352600483016101d8565b0390fd5b50803b61266361265d5f610bd1565b91610279565b14612620565b61267281612372565b61268461267e5f610bd1565b91610279565b115f1461269357805190602001fd5b61269b610152565b630a12f52160e11b8152806126b260048201610241565b0390fdfea26469706673582212205d1d46a6b1d0787c692800bbf1437186d20db2f9a750dac0adb46c6d720a951a64736f6c63430008190033",
  "linkReferences": {},
  "deployedLinkReferences": {}
}