{
  "_format": "hh-sol-artifact-1",
  "contractName": "MockOracle",
  "sourceName": "contracts/mock/MockOracle.sol",
  "abi": [
    {
      "inputs": [
        {
          "internalType": "address",
          "name": "usdt",
          "type": "address"
        },
        {
          "internalType": "address",
          "name": "_usdc",
          "type": "address"
        },
        {
          "internalType": "address",
          "name": "_wmatic",
          "type": "address"
        },
        {
          "internalType": "address",
          "name": "weth",
          "type": "address"
        },
        {
          "internalType": "address",
          "name": "wbtc",
          "type": "address"
        }
      ],
      "stateMutability": "nonpayable",
      "type": "constructor"
    },
    {
      "inputs": [],
      "name": "USDC",
      "outputs": [
        {
          "internalType": "address",
          "name": "",
          "type": "address"
        }
      ],
      "stateMutability": "view",
      "type": "function"
    },
    {
      "inputs": [],
      "name": "USDC_TO_USDT_RATE",
      "outputs": [
        {
          "internalType": "uint256",
          "name": "",
          "type": "uint256"
        }
      ],
      "stateMutability": "view",
      "type": "function"
    },
    {
      "inputs": [],
      "name": "USDC_TO_WBTC_RATE",
      "outputs": [
        {
          "internalType": "uint256",
          "name": "",
          "type": "uint256"
        }
      ],
      "stateMutability": "view",
      "type": "function"
    },
    {
      "inputs": [],
      "name": "USDC_TO_WETH_RATE",
      "outputs": [
        {
          "internalType": "uint256",
          "name": "",
          "type": "uint256"
        }
      ],
      "stateMutability": "view",
      "type": "function"
    },
    {
      "inputs": [],
      "name": "USDC_TO_WMATIC_RATE",
      "outputs": [
        {
          "internalType": "uint256",
          "name": "",
          "type": "uint256"
        }
      ],
      "stateMutability": "view",
      "type": "function"
    },
    {
      "inputs": [],
      "name": "USDT_TO_USDC_RATE",
      "outputs": [
        {
          "internalType": "uint256",
          "name": "",
          "type": "uint256"
        }
      ],
      "stateMutability": "view",
      "type": "function"
    },
    {
      "inputs": [],
      "name": "USDT_TO_WBTC_RATE",
      "outputs": [
        {
          "internalType": "uint256",
          "name": "",
          "type": "uint256"
        }
      ],
      "stateMutability": "view",
      "type": "function"
    },
    {
      "inputs": [],
      "name": "USDT_TO_WETH_RATE",
      "outputs": [
        {
          "internalType": "uint256",
          "name": "",
          "type": "uint256"
        }
      ],
      "stateMutability": "view",
      "type": "function"
    },
    {
      "inputs": [],
      "name": "USDT_TO_WMATIC_RATE",
      "outputs": [
        {
          "internalType": "uint256",
          "name": "",
          "type": "uint256"
        }
      ],
      "stateMutability": "view",
      "type": "function"
    },
    {
      "inputs": [],
      "name": "WBTC_TO_USDC_RATE",
      "outputs": [
        {
          "internalType": "uint256",
          "name": "",
          "type": "uint256"
        }
      ],
      "stateMutability": "view",
      "type": "function"
    },
    {
      "inputs": [],
      "name": "WBTC_TO_USDT_RATE",
      "outputs": [
        {
          "internalType": "uint256",
          "name": "",
          "type": "uint256"
        }
      ],
      "stateMutability": "view",
      "type": "function"
    },
    {
      "inputs": [],
      "name": "WBTC_TO_WETH_RATE",
      "outputs": [
        {
          "internalType": "uint256",
          "name": "",
          "type": "uint256"
        }
      ],
      "stateMutability": "view",
      "type": "function"
    },
    {
      "inputs": [],
      "name": "WBTC_TO_WMATIC_RATE",
      "outputs": [
        {
          "internalType": "uint256",
          "name": "",
          "type": "uint256"
        }
      ],
      "stateMutability": "view",
      "type": "function"
    },
    {
      "inputs": [],
      "name": "WETH_TO_USDC_RATE",
      "outputs": [
        {
          "internalType": "uint256",
          "name": "",
          "type": "uint256"
        }
      ],
      "stateMutability": "view",
      "type": "function"
    },
    {
      "inputs": [],
      "name": "WETH_TO_USDT_RATE",
      "outputs": [
        {
          "internalType": "uint256",
          "name": "",
          "type": "uint256"
        }
      ],
      "stateMutability": "view",
      "type": "function"
    },
    {
      "inputs": [],
      "name": "WETH_TO_WBTC_RATE",
      "outputs": [
        {
          "internalType": "uint256",
          "name": "",
          "type": "uint256"
        }
      ],
      "stateMutability": "view",
      "type": "function"
    },
    {
      "inputs": [],
      "name": "WETH_TO_WMATIC_RATE",
      "outputs": [
        {
          "internalType": "uint256",
          "name": "",
          "type": "uint256"
        }
      ],
      "stateMutability": "view",
      "type": "function"
    },
    {
      "inputs": [],
      "name": "WMATIC_TO_USDC_RATE",
      "outputs": [
        {
          "internalType": "uint256",
          "name": "",
          "type": "uint256"
        }
      ],
      "stateMutability": "view",
      "type": "function"
    },
    {
      "inputs": [],
      "name": "WMATIC_TO_USDT_RATE",
      "outputs": [
        {
          "internalType": "uint256",
          "name": "",
          "type": "uint256"
        }
      ],
      "stateMutability": "view",
      "type": "function"
    },
    {
      "inputs": [],
      "name": "WMATIC_TO_WBTC_RATE",
      "outputs": [
        {
          "internalType": "uint256",
          "name": "",
          "type": "uint256"
        }
      ],
      "stateMutability": "view",
      "type": "function"
    },
    {
      "inputs": [],
      "name": "WMATIC_TO_WETH_RATE",
      "outputs": [
        {
          "internalType": "uint256",
          "name": "",
          "type": "uint256"
        }
      ],
      "stateMutability": "view",
      "type": "function"
    },
    {
      "inputs": [],
      "name": "WNATIVE",
      "outputs": [
        {
          "internalType": "address",
          "name": "",
          "type": "address"
        }
      ],
      "stateMutability": "view",
      "type": "function"
    },
    {
      "inputs": [
        {
          "internalType": "address",
          "name": "fromToken",
          "type": "address"
        },
        {
          "internalType": "address",
          "name": "toToken",
          "type": "address"
        },
        {
          "internalType": "uint256",
          "name": "amount",
          "type": "uint256"
        }
      ],
      "name": "convert",
      "outputs": [
        {
          "internalType": "uint256",
          "name": "valuation",
          "type": "uint256"
        }
      ],
      "stateMutability": "view",
      "type": "function"
    },
    {
      "inputs": [
        {
          "internalType": "address",
          "name": "fromToken",
          "type": "address"
        },
        {
          "internalType": "address",
          "name": "toToken",
          "type": "address"
        },
        {
          "internalType": "uint256",
          "name": "amount",
          "type": "uint256"
        }
      ],
      "name": "convertScaled",
      "outputs": [
        {
          "internalType": "uint256",
          "name": "valuation",
          "type": "uint256"
        }
      ],
      "stateMutability": "view",
      "type": "function"
    },
    {
      "inputs": [
        {
          "internalType": "address",
          "name": "",
          "type": "address"
        },
        {
          "internalType": "address",
          "name": "",
          "type": "address"
        }
      ],
      "name": "rates",
      "outputs": [
        {
          "internalType": "uint256",
          "name": "",
          "type": "uint256"
        }
      ],
      "stateMutability": "view",
      "type": "function"
    },
    {
      "inputs": [],
      "name": "treasury",
      "outputs": [
        {
          "internalType": "address",
          "name": "",
          "type": "address"
        }
      ],
      "stateMutability": "view",
      "type": "function"
    }
  ],
  "bytecode": "0x6080604052346100335761001d610014610130565b9392909261064f565b610025610038565b6114de6109e582396114de90f35b61003e565b60405190565b5f80fd5b601f801991011690565b634e487b7160e01b5f52604160045260245ffd5b9061006a90610042565b810190811060018060401b0382111761008257604052565b61004c565b9061009a610093610038565b9283610060565b565b5f80fd5b60018060a01b031690565b6100b4906100a0565b90565b6100c0816100ab565b036100c757565b5f80fd5b905051906100d8826100b7565b565b919060a08382031261012b576100f2815f85016100cb565b9261010082602083016100cb565b9261012861011184604085016100cb565b9361011f81606086016100cb565b936080016100cb565b90565b61009c565b61014e611ec38038038061014381610087565b9283398101906100da565b9091929394565b5f1b90565b9061016b60018060a01b0391610155565b9181191691161790565b90565b61018c610187610191926100a0565b610175565b6100a0565b90565b61019d90610178565b90565b6101a990610194565b90565b90565b906101c46101bf6101cb926101a0565b6101ac565b825461015a565b9055565b90565b90565b6101e96101e46101ee926101cf565b610175565b6101d2565b90565b610202670ddc9893b8f693316101d5565b90565b9061020f906101a0565b5f5260205260405f2090565b5f1c90565b60018060a01b031690565b61023761023c9161021b565b610220565b90565b610249905461022b565b90565b90610256906101a0565b5f5260205260405f2090565b9061026e5f1991610155565b9181191691161790565b61028c610287610291926101d2565b610175565b6101d2565b90565b90565b906102ac6102a76102b392610278565b610294565b8254610262565b9055565b90565b6102ce6102c96102d3926102b7565b610175565b6101d2565b90565b6102ec6c110f11bc46bc3efcc5b8ff12236102ba565b90565b90565b61030661030161030b926102ef565b610175565b6101d2565b90565b61031e66052de6f3e9958f6102f2565b90565b90565b61033861033361033d92610321565b610175565b6101d2565b90565b6103546ad47d67cce9223fad7de347610324565b90565b90565b61036e61036961037392610357565b610175565b6101d2565b90565b6103886824efc5d2223b2ab2b261035a565b90565b90565b6103a261039d6103a79261038b565b610175565b6101d2565b90565b6103c16d2d9856fc421a9fd095f8b44c49db61038e565b90565b90565b6103db6103d66103e0926103c4565b610175565b6101d2565b90565b6103f5682506936e734ac2f9266103c7565b90565b90565b61040f61040a610414926103f8565b610175565b6101d2565b90565b61042d6c0236febc16a26943df322289be6103fb565b90565b90565b61044761044261044c92610430565b610175565b6101d2565b90565b610460670de435a2a433cf48610433565b90565b90565b61047a61047561047f92610463565b610175565b6101d2565b90565b610492660533304f826d31610466565b90565b90565b6104ac6104a76104b192610495565b610175565b6101d2565b90565b6104ca6c110dcba2e6f97b2a41a7eba1b8610498565b90565b90565b6104e46104df6104e9926104cd565b610175565b6101d2565b90565b6105006ad4801858112018c8850bae6104d0565b90565b90565b61051a61051561051f92610503565b610175565b6101d2565b90565b61052d610438610506565b90565b90565b61054761054261054c92610530565b610175565b6101d2565b90565b61055e65ac76a57eb9a4610533565b90565b90565b61057861057361057d92610561565b610175565b6101d2565b90565b61058c620b32d1610564565b90565b90565b6105a66105a16105ab9261058f565b610175565b6101d2565b90565b6105ba620b68f7610592565b90565b90565b6105d46105cf6105d9926105bd565b610175565b6101d2565b90565b6105ef69011de1930ce9ab44b5a16105c0565b90565b90565b61060961060461060e926105f2565b610175565b6101d2565b90565b61061e63e163500a6105f5565b90565b90565b61063861063361063d92610621565b610175565b6101d2565b90565b61064c6254dddd610624565b90565b6109c6906106706109e296936106696109dd9660026101af565b60016101af565b61067b3360036101af565b6106a96106866101f1565b6106a46106945f8590610205565b61069e600161023f565b9061024c565b610297565b6106d76106b46102d6565b6106d26106c25f8590610205565b6106cc600261023f565b9061024c565b610297565b6106fc6106e261030e565b6106f76106f05f8590610205565b869061024c565b610297565b610721610707610340565b61071c6107155f8590610205565b889061024c565b610297565b61074661072c610376565b61074161073a5f8790610205565b849061024c565b610297565b6107746107516103aa565b61076f61075f5f8790610205565b610769600261023f565b9061024c565b610297565b6107a261077f6103e3565b61079d61078d5f8790610205565b610797600161023f565b9061024c565b610297565b6107c76107ad610417565b6107c26107bb5f8790610205565b889061024c565b610297565b6107f56107d261044f565b6107f06107e95f6107e3600161023f565b90610205565b849061024c565b610297565b610823610800610482565b61081e6108175f610811600161023f565b90610205565b869061024c565b610297565b61085a61082e6104b4565b6108556108455f61083f600161023f565b90610205565b61084f600261023f565b9061024c565b610297565b6108886108656104ec565b61088361087c5f610876600161023f565b90610205565b889061024c565b610297565b6108b6610893610522565b6108b16108aa5f6108a4600261023f565b90610205565b869061024c565b610297565b6108e46108c161054f565b6108df6108d85f6108d2600261023f565b90610205565b889061024c565b610297565b61091b6108ef610580565b6109166109065f610900600261023f565b90610205565b610910600161023f565b9061024c565b610297565b6109496109266105ae565b61094461093d5f610937600261023f565b90610205565b849061024c565b610297565b6109776109546105dc565b6109726109625f8990610205565b61096c600261023f565b9061024c565b610297565b6109a5610982610611565b6109a06109905f8990610205565b61099a600161023f565b9061024c565b610297565b6109c16109b0610611565b916109bc5f8890610205565b61024c565b610297565b6109d86109d1610640565b935f610205565b61024c565b610297565b56fe60806040526004361015610013575b610e33565b61001d5f356101bc565b806302098719146101b75780630e091762146101b2578063187029b8146101ad5780631a1e4a1f146101a8578063248391ff146101a35780634039e6871461019e5780634314639914610199578063443dc789146101945780635107e94e1461018f57806353ff493e1461018a5780635fc8cd691461018557806361d027b3146101805780637b0cf44d1461017b57806389a30271146101765780638e5139ed1461017157806397db8e021461016c578063a58a7f8a14610167578063ae3bcc9614610162578063b27b5e751461015d578063b381cf4014610158578063b537d24b14610153578063b9e938101461014e578063c018498314610149578063d135e3be14610144578063e2338e721461013f5763e30f68920361000e57610dfe565b610d89565b610d13565b610c9f565b610c31565b610bb9565b610b46565b610b01565b610acc565b610a5b565b6109e8565b610976565b6108fd565b6108b8565b6107ad565b610712565b6106a3565b61062f565b6105b7565b610541565b6104d3565b610463565b610397565b61031f565b6102b2565b610244565b60e01c90565b60405190565b5f80fd5b5f80fd5b5f9103126101da57565b6101cc565b90565b90565b90565b6101fc6101f7610201926101df565b6101e5565b6101e2565b90565b610214660533304f826d316101e8565b90565b61021f610204565b90565b61022b906101e2565b9052565b9190610242905f60208501940190610222565b565b34610274576102543660046101d0565b61027061025f610217565b6102676101c2565b9182918261022f565b0390f35b6101c8565b90565b61029061028b61029592610279565b6101e5565b6101e2565b90565b6102a4620b68f761027c565b90565b6102af610298565b90565b346102e2576102c23660046101d0565b6102de6102cd6102a7565b6102d56101c2565b9182918261022f565b0390f35b6101c8565b90565b6102fe6102f9610303926102e7565b6101e5565b6101e2565b90565b6103116104386102ea565b90565b61031c610306565b90565b3461034f5761032f3660046101d0565b61034b61033a610314565b6103426101c2565b9182918261022f565b0390f35b6101c8565b90565b61036b61036661037092610354565b6101e5565b6101e2565b90565b6103896c110f11bc46bc3efcc5b8ff1223610357565b90565b610394610373565b90565b346103c7576103a73660046101d0565b6103c36103b261038c565b6103ba6101c2565b9182918261022f565b0390f35b6101c8565b60018060a01b031690565b6103e0906103cc565b90565b6103ec816103d7565b036103f357565b5f80fd5b90503590610404826103e3565b565b61040f816101e2565b0361041657565b5f80fd5b9050359061042782610406565b565b909160608284031261045e5761045b610444845f85016103f7565b9361045281602086016103f7565b9360400161041a565b90565b6101cc565b346104945761049061047f610479366004610429565b9161100a565b6104876101c2565b9182918261022f565b0390f35b6101c8565b90565b6104b06104ab6104b592610499565b6101e5565b6101e2565b90565b6104c563e163500a61049c565b90565b6104d06104b8565b90565b34610503576104e33660046101d0565b6104ff6104ee6104c8565b6104f66101c2565b9182918261022f565b0390f35b6101c8565b90565b61051f61051a61052492610508565b6101e5565b6101e2565b90565b6105336254dddd61050b565b90565b61053e610527565b90565b34610571576105513660046101d0565b61056d61055c610536565b6105646101c2565b9182918261022f565b0390f35b6101c8565b90565b61058d61058861059292610576565b6101e5565b6101e2565b90565b6105a96ad47d67cce9223fad7de347610579565b90565b6105b4610595565b90565b346105e7576105c73660046101d0565b6105e36105d26105ac565b6105da6101c2565b9182918261022f565b0390f35b6101c8565b90565b6106036105fe610608926105ec565b6101e5565b6101e2565b90565b6106216c110dcba2e6f97b2a41a7eba1b86105ef565b90565b61062c61060b565b90565b3461065f5761063f3660046101d0565b61065b61064a610624565b6106526101c2565b9182918261022f565b0390f35b6101c8565b90565b61067b61067661068092610664565b6101e5565b6101e2565b90565b610695682506936e734ac2f926610667565b90565b6106a0610683565b90565b346106d3576106b33660046101d0565b6106cf6106be610698565b6106c66101c2565b9182918261022f565b0390f35b6101c8565b90565b6106ef6106ea6106f4926106d8565b6101e5565b6101e2565b90565b61070463df77b36f6106db565b90565b61070f6106f7565b90565b34610742576107223660046101d0565b61073e61072d610707565b6107356101c2565b9182918261022f565b0390f35b6101c8565b1c90565b60018060a01b031690565b61076690600861076b9302610747565b61074b565b90565b906107799154610756565b90565b61078860035f9061076e565b90565b610794906103d7565b9052565b91906107ab905f6020850194019061078b565b565b346107dd576107bd3660046101d0565b6107d96107c861077c565b6107d06101c2565b91829182610798565b0390f35b6101c8565b919060408382031261080a57806107fe610807925f86016103f7565b936020016103f7565b90565b6101cc565b61082361081e610828926103cc565b6101e5565b6103cc565b90565b6108349061080f565b90565b6108409061082b565b90565b9061084d90610837565b5f5260205260405f2090565b9061086390610837565b5f5260205260405f2090565b90565b6108829060086108879302610747565b61086f565b90565b906108959154610872565b90565b6108b06108b5926108ab5f935f94610843565b610859565b61088a565b90565b346108e9576108e56108d46108ce3660046107e2565b90610898565b6108dc6101c2565b9182918261022f565b0390f35b6101c8565b6108fa60015f9061076e565b90565b3461092d5761090d3660046101d0565b6109296109186108ee565b6109206101c2565b91829182610798565b0390f35b6101c8565b90565b61094961094461094e92610932565b6101e5565b6101e2565b90565b6109686d2d9856fc421a9fd095f8b44c49db610935565b90565b610973610951565b90565b346109a6576109863660046101d0565b6109a261099161096b565b6109996101c2565b9182918261022f565b0390f35b6101c8565b90565b6109c26109bd6109c7926109ab565b6101e5565b6101e2565b90565b6109da66052de6f3e9958f6109ae565b90565b6109e56109ca565b90565b34610a18576109f83660046101d0565b610a14610a036109dd565b610a0b6101c2565b9182918261022f565b0390f35b6101c8565b90565b610a34610a2f610a3992610a1d565b6101e5565b6101e2565b90565b610a4d670ddc9893b8f69331610a20565b90565b610a58610a3c565b90565b34610a8b57610a6b3660046101d0565b610a87610a76610a50565b610a7e6101c2565b9182918261022f565b0390f35b6101c8565b90565b610aa7610aa2610aac92610a90565b6101e5565b6101e2565b90565b610abe65ac76a57eb9a4610a93565b90565b610ac9610aaf565b90565b34610afc57610adc3660046101d0565b610af8610ae7610ac1565b610aef6101c2565b9182918261022f565b0390f35b6101c8565b34610b3257610b2e610b1d610b17366004610429565b91611230565b610b256101c2565b9182918261022f565b0390f35b6101c8565b610b4360025f9061076e565b90565b34610b7657610b563660046101d0565b610b72610b61610b37565b610b696101c2565b91829182610798565b0390f35b6101c8565b90565b610b92610b8d610b9792610b7b565b6101e5565b6101e2565b90565b610bab670de435a2a433cf48610b7e565b90565b610bb6610b9a565b90565b34610be957610bc93660046101d0565b610be5610bd4610bae565b610bdc6101c2565b9182918261022f565b0390f35b6101c8565b90565b610c05610c00610c0a92610bee565b6101e5565b6101e2565b90565b610c236c0236febc16a26943df322289be610bf1565b90565b610c2e610c0d565b90565b34610c6157610c413660046101d0565b610c5d610c4c610c26565b610c546101c2565b9182918261022f565b0390f35b6101c8565b90565b610c7d610c78610c8292610c66565b6101e5565b6101e2565b90565b610c91620b32d1610c69565b90565b610c9c610c85565b90565b34610ccf57610caf3660046101d0565b610ccb610cba610c94565b610cc26101c2565b9182918261022f565b0390f35b6101c8565b90565b610ceb610ce6610cf092610cd4565b6101e5565b6101e2565b90565b610d056824efc5d2223b2ab2b2610cd7565b90565b610d10610cf3565b90565b34610d4357610d233660046101d0565b610d3f610d2e610d08565b610d366101c2565b9182918261022f565b0390f35b6101c8565b90565b610d5f610d5a610d6492610d48565b6101e5565b6101e2565b90565b610d7b6ad4801858112018c8850bae610d4b565b90565b610d86610d67565b90565b34610db957610d993660046101d0565b610db5610da4610d7e565b610dac6101c2565b9182918261022f565b0390f35b6101c8565b90565b610dd5610dd0610dda92610dbe565b6101e5565b6101e2565b90565b610df069011de1930ce9ab44b5a1610dc1565b90565b610dfb610ddd565b90565b34610e2e57610e0e3660046101d0565b610e2a610e19610df3565b610e216101c2565b9182918261022f565b0390f35b6101c8565b5f80fd5b5f90565b610e449061080f565b90565b610e5090610e3b565b90565b610e5c9061082b565b90565b601f801991011690565b634e487b7160e01b5f52604160045260245ffd5b90610e8790610e5f565b810190811060018060401b03821117610e9f57604052565b610e69565b60e01b90565b60ff1690565b610eb981610eaa565b03610ec057565b5f80fd5b90505190610ed182610eb0565b565b90602082820312610eec57610ee9915f01610ec4565b90565b6101cc565b5f0190565b610efe6101c2565b3d5f823e3d90fd5b5f1c90565b610f17610f1c91610f06565b61086f565b90565b610f299054610f0b565b90565b634e487b7160e01b5f52601160045260245ffd5b610f4990610eaa565b604d8111610f5757600a0a90565b610f2c565b610f6b610f71919392936101e2565b926101e2565b91610f7d8382026101e2565b928184041490151715610f8c57565b610f2c565b634e487b7160e01b5f52601260045260245ffd5b610fb1610fb7916101e2565b916101e2565b908115610fc2570490565b610f91565b610fd3610fd991610eaa565b91610eaa565b90039060ff8211610fe657565b610f2c565b90565b611002610ffd61100792610feb565b6101e5565b6101e2565b90565b919091611015610e37565b5061101e610e37565b5061104b602061103561103084610e47565b610e53565b63313ce567906110436101c2565b938492610ea4565b8252818061105b60048201610ef1565b03915afa801561120c5761109b915f916111de575b5093602061108561108083610e47565b610e53565b63313ce567906110936101c2565b948592610ea4565b825281806110ab60048201610ef1565b03915afa9182156111d9576110dc6110f0926110d76110ff956110e1945f916111ab575b50965f610843565b610859565b610f1f565b6110ea86610f40565b90610f5c565b6110f983610f40565b90610fa5565b92611108610e37565b508061111c61111684610eaa565b91610eaa565b10155f146111675761114c9261114161113c611163969461114794610fc7565b610f40565b90610fa5565b610f5c565b61115d670de0b6b3a7640000610fee565b90610fa5565b5b90565b61118f9261118461117f61118a936111a69795610fc7565b610f40565b90610f5c565b610f5c565b6111a0670de0b6b3a7640000610fee565b90610fa5565b611164565b6111cc915060203d81116111d2575b6111c48183610e7d565b810190610ed3565b5f6110cf565b503d6111ba565b610ef6565b6111ff915060203d8111611205575b6111f78183610e7d565b810190610ed3565b5f611070565b503d6111ed565b610ef6565b90565b61122861122361122d92611211565b6101e5565b610eaa565b90565b61126f9261123c610e37565b50611245610e37565b50602061125961125484610e47565b610e53565b63313ce567906112676101c2565b968792610ea4565b8252818061127f60048201610ef1565b03915afa80156114a3576112bf945f91611475575b509260206112a96112a483610e47565b610e53565b63313ce567906112b76101c2565b978892610ea4565b825281806112cf60048201610ef1565b03915afa90811561147057611308611303611317926112fe6113269561139c9a5f91611442575b50975f610843565b610859565b610f1f565b61131186610f40565b90610f5c565b61132084610f40565b90610fa5565b9161132f610e37565b50611338610e37565b50611355611350601261134b8491611214565b610fc7565b610f40565b938061136961136384610eaa565b91610eaa565b145f1461139f5750506113969161137f91610f5c565b611390670de0b6b3a7640000610fee565b90610fa5565b5b610f5c565b90565b806113b26113ac84610eaa565b91610eaa565b115f146113fe576113e1926113d66113d16113f896946113dc94610fc7565b610f40565b90610fa5565b610f5c565b6113f2670de0b6b3a7640000610fee565b90610fa5565b5b611397565b6114269261141b6114166114219361143d9795610fc7565b610f40565b90610f5c565b610f5c565b611437670de0b6b3a7640000610fee565b90610fa5565b6113f9565b611463915060203d8111611469575b61145b8183610e7d565b810190610ed3565b5f6112f6565b503d611451565b610ef6565b611496915060203d811161149c575b61148e8183610e7d565b810190610ed3565b5f611294565b503d611484565b610ef656fea264697066735822122094aeff4f72d8cb66a513595c1c870f684b28279d59680c60c88a008fe7ed032564736f6c63430008190033",
  "linkReferences": {},
  "deployedLinkReferences": {}
}