{
  "_format": "hh-sol-artifact-1",
  "contractName": "BaluniV1Rebalancer",
  "sourceName": "contracts/managers/BaluniV1Rebalancer.sol",
  "abi": [
    {
      "inputs": [
        {
          "internalType": "address",
          "name": "target",
          "type": "address"
        }
      ],
      "name": "AddressEmptyCode",
      "type": "error"
    },
    {
      "inputs": [
        {
          "internalType": "address",
          "name": "implementation",
          "type": "address"
        }
      ],
      "name": "ERC1967InvalidImplementation",
      "type": "error"
    },
    {
      "inputs": [],
      "name": "ERC1967NonPayable",
      "type": "error"
    },
    {
      "inputs": [],
      "name": "FailedInnerCall",
      "type": "error"
    },
    {
      "inputs": [],
      "name": "InvalidInitialization",
      "type": "error"
    },
    {
      "inputs": [],
      "name": "NotInitializing",
      "type": "error"
    },
    {
      "inputs": [
        {
          "internalType": "address",
          "name": "owner",
          "type": "address"
        }
      ],
      "name": "OwnableInvalidOwner",
      "type": "error"
    },
    {
      "inputs": [
        {
          "internalType": "address",
          "name": "account",
          "type": "address"
        }
      ],
      "name": "OwnableUnauthorizedAccount",
      "type": "error"
    },
    {
      "inputs": [],
      "name": "UUPSUnauthorizedCallContext",
      "type": "error"
    },
    {
      "inputs": [
        {
          "internalType": "bytes32",
          "name": "slot",
          "type": "bytes32"
        }
      ],
      "name": "UUPSUnsupportedProxiableUUID",
      "type": "error"
    },
    {
      "anonymous": false,
      "inputs": [
        {
          "indexed": false,
          "internalType": "uint64",
          "name": "version",
          "type": "uint64"
        }
      ],
      "name": "Initialized",
      "type": "event"
    },
    {
      "anonymous": false,
      "inputs": [
        {
          "indexed": true,
          "internalType": "address",
          "name": "previousOwner",
          "type": "address"
        },
        {
          "indexed": true,
          "internalType": "address",
          "name": "newOwner",
          "type": "address"
        }
      ],
      "name": "OwnershipTransferred",
      "type": "event"
    },
    {
      "anonymous": false,
      "inputs": [
        {
          "indexed": true,
          "internalType": "address",
          "name": "implementation",
          "type": "address"
        }
      ],
      "name": "Upgraded",
      "type": "event"
    },
    {
      "inputs": [],
      "name": "UPGRADE_INTERFACE_VERSION",
      "outputs": [
        {
          "internalType": "string",
          "name": "",
          "type": "string"
        }
      ],
      "stateMutability": "view",
      "type": "function"
    },
    {
      "inputs": [
        {
          "internalType": "uint256[]",
          "name": "balances",
          "type": "uint256[]"
        },
        {
          "internalType": "address[]",
          "name": "assets",
          "type": "address[]"
        },
        {
          "internalType": "uint256[]",
          "name": "weights",
          "type": "uint256[]"
        },
        {
          "internalType": "uint256",
          "name": "limit",
          "type": "uint256"
        },
        {
          "internalType": "address",
          "name": "sender",
          "type": "address"
        },
        {
          "internalType": "address",
          "name": "baseAsset",
          "type": "address"
        }
      ],
      "name": "checkRebalance",
      "outputs": [
        {
          "components": [
            {
              "internalType": "uint256",
              "name": "length",
              "type": "uint256"
            },
            {
              "internalType": "uint256",
              "name": "totalValue",
              "type": "uint256"
            },
            {
              "internalType": "uint256[]",
              "name": "valuations",
              "type": "uint256[]"
            },
            {
              "internalType": "uint256",
              "name": "finalUsdBalance",
              "type": "uint256"
            },
            {
              "internalType": "uint256",
              "name": "overweightVaultsLength",
              "type": "uint256"
            },
            {
              "internalType": "uint256",
              "name": "underweightVaultsLength",
              "type": "uint256"
            },
            {
              "internalType": "uint256",
              "name": "totalActiveWeight",
              "type": "uint256"
            },
            {
              "internalType": "uint256",
              "name": "amountOut",
              "type": "uint256"
            },
            {
              "internalType": "uint256[]",
              "name": "overweightVaults",
              "type": "uint256[]"
            },
            {
              "internalType": "uint256[]",
              "name": "overweightAmounts",
              "type": "uint256[]"
            },
            {
              "internalType": "uint256[]",
              "name": "underweightVaults",
              "type": "uint256[]"
            },
            {
              "internalType": "uint256[]",
              "name": "underweightAmounts",
              "type": "uint256[]"
            },
            {
              "internalType": "uint256[]",
              "name": "balances",
              "type": "uint256[]"
            }
          ],
          "internalType": "struct BaluniV1Rebalancer.RebalanceVars",
          "name": "",
          "type": "tuple"
        }
      ],
      "stateMutability": "view",
      "type": "function"
    },
    {
      "inputs": [
        {
          "internalType": "address",
          "name": "_registry",
          "type": "address"
        }
      ],
      "name": "initialize",
      "outputs": [],
      "stateMutability": "nonpayable",
      "type": "function"
    },
    {
      "inputs": [],
      "name": "owner",
      "outputs": [
        {
          "internalType": "address",
          "name": "",
          "type": "address"
        }
      ],
      "stateMutability": "view",
      "type": "function"
    },
    {
      "inputs": [],
      "name": "proxiableUUID",
      "outputs": [
        {
          "internalType": "bytes32",
          "name": "",
          "type": "bytes32"
        }
      ],
      "stateMutability": "view",
      "type": "function"
    },
    {
      "inputs": [
        {
          "internalType": "uint256[]",
          "name": "balances",
          "type": "uint256[]"
        },
        {
          "internalType": "address[]",
          "name": "assets",
          "type": "address[]"
        },
        {
          "internalType": "uint256[]",
          "name": "weights",
          "type": "uint256[]"
        },
        {
          "internalType": "uint256",
          "name": "limit",
          "type": "uint256"
        },
        {
          "internalType": "address",
          "name": "sender",
          "type": "address"
        },
        {
          "internalType": "address",
          "name": "receiver",
          "type": "address"
        },
        {
          "internalType": "address",
          "name": "baseAsset",
          "type": "address"
        }
      ],
      "name": "rebalance",
      "outputs": [],
      "stateMutability": "nonpayable",
      "type": "function"
    },
    {
      "inputs": [],
      "name": "registry",
      "outputs": [
        {
          "internalType": "contract IBaluniV1Registry",
          "name": "",
          "type": "address"
        }
      ],
      "stateMutability": "view",
      "type": "function"
    },
    {
      "inputs": [
        {
          "internalType": "address",
          "name": "_registry",
          "type": "address"
        },
        {
          "internalType": "uint64",
          "name": "version",
          "type": "uint64"
        }
      ],
      "name": "reinitialize",
      "outputs": [],
      "stateMutability": "nonpayable",
      "type": "function"
    },
    {
      "inputs": [],
      "name": "renounceOwnership",
      "outputs": [],
      "stateMutability": "nonpayable",
      "type": "function"
    },
    {
      "inputs": [
        {
          "internalType": "address",
          "name": "newOwner",
          "type": "address"
        }
      ],
      "name": "transferOwnership",
      "outputs": [],
      "stateMutability": "nonpayable",
      "type": "function"
    },
    {
      "inputs": [
        {
          "internalType": "address",
          "name": "newImplementation",
          "type": "address"
        },
        {
          "internalType": "bytes",
          "name": "data",
          "type": "bytes"
        }
      ],
      "name": "upgradeToAndCall",
      "outputs": [],
      "stateMutability": "payable",
      "type": "function"
    }
  ],
  "bytecode": "0x60a060405234603957600e6047565b6014603d565b6146976100948239608051818181613062015281816130ce0152613297015261469790f35b6043565b60405190565b5f80fd5b604d6087565b565b60018060a01b031690565b90565b606c6068607092604f565b605a565b604f565b90565b607a90605d565b90565b6084906073565b90565b608e30607d565b60805256fe60806040526004361015610013575b610b42565b61001d5f356100cc565b80634f1ef286146100c757806352d1902d146100c2578063715018a6146100bd5780637b103999146100b85780638da5cb5b146100b35780638f2248bc146100ae578063997146f5146100a9578063ad3cb1cc146100a4578063c4d66de81461009f578063f0bf77141461009a5763f2fde38b0361000e57610b0f565b610ad2565b6109e7565b610994565b61085b565b610495565b610405565b6103ae565b6102e0565b6102ab565b610249565b60e01c90565b60405190565b5f80fd5b5f80fd5b60018060a01b031690565b6100f4906100e0565b90565b610100816100eb565b0361010757565b5f80fd5b90503590610118826100f7565b565b5f80fd5b5f80fd5b601f801991011690565b634e487b7160e01b5f52604160045260245ffd5b9061014a90610122565b810190811060018060401b0382111761016257604052565b61012c565b9061017a6101736100d2565b9283610140565b565b60018060401b03811161019857610194602091610122565b0190565b61012c565b90825f939282370152565b909291926101bd6101b88261017c565b610167565b938185526020850190828401116101d9576101d79261019d565b565b61011e565b9080601f830112156101fc578160206101f9933591016101a8565b90565b61011a565b91909160408184031261023f5761021a835f830161010b565b92602082013560018060401b03811161023a5761023792016101de565b90565b6100dc565b6100d8565b5f0190565b61025d610257366004610201565b90610b6f565b6102656100d2565b8061026f81610244565b0390f35b5f80fd5b5f91031261028157565b6100d8565b90565b61029290610286565b9052565b91906102a9905f60208501940190610289565b565b346102db576102bb366004610277565b6102d76102c6610bef565b6102ce6100d2565b91829182610296565b0390f35b610273565b3461030e576102f0366004610277565b6102f8610c52565b6103006100d2565b8061030a81610244565b0390f35b610273565b1c90565b60018060a01b031690565b6103329060086103379302610313565b610317565b90565b906103459154610322565b90565b6103525f8061033a565b90565b90565b61036c610367610371926100e0565b610355565b6100e0565b90565b61037d90610358565b90565b61038990610374565b90565b61039590610380565b9052565b91906103ac905f6020850194019061038c565b565b346103de576103be366004610277565b6103da6103c9610348565b6103d16100d2565b91829182610399565b0390f35b610273565b6103ec906100eb565b9052565b9190610403905f602085019401906103e3565b565b3461043557610415366004610277565b610431610420610c91565b6104286100d2565b918291826103f0565b0390f35b610273565b60018060401b031690565b61044e8161043a565b0361045557565b5f80fd5b9050359061046682610445565b565b9190604083820312610490578061048461048d925f860161010b565b93602001610459565b90565b6100d8565b346104c4576104ae6104a8366004610468565b90610f23565b6104b66100d2565b806104c081610244565b0390f35b610273565b60018060401b0381116104df5760208091020190565b61012c565b5f80fd5b90565b6104f4816104e8565b036104fb57565b5f80fd5b9050359061050c826104eb565b565b9092919261052361051e826104c9565b610167565b938185526020808601920283019281841161056057915b8383106105475750505050565b6020809161055584866104ff565b81520192019161053a565b6104e4565b9080601f83011215610583578160206105809335910161050e565b90565b61011a565b5f80fd5b909182601f830112156105c45781359160018060401b0383116105bf5760200192602083028401116105ba57565b6104e4565b610588565b61011a565b909182601f830112156106015781359160018060401b0383116105fc5760200192602083028401116105f757565b6104e4565b610588565b61011a565b60c0818303126106a9575f81013560018060401b0381116106a4578261062d918301610565565b92602082013560018060401b03811161069f578361064c91840161058c565b929093604082013560018060401b03811161069a578161066d9184016105c9565b92909361069761068084606085016104ff565b9361068e816080860161010b565b9360a00161010b565b90565b6100dc565b6100dc565b6100dc565b6100d8565b6106b7906104e8565b9052565b5190565b60209181520190565b60200190565b906106db816020936106ae565b0190565b60200190565b906107026106fc6106f5846106bb565b80936106bf565b926106c8565b905f5b8181106107125750505090565b90919261072b61072560019286516106ce565b946106df565b9101919091610705565b6108409161018061082e61081a6108066107f26107846101a087016107605f8a01515f8a01906106ae565b61077260208a015160208a01906106ae565b604089015188820360408a01526106e5565b610796606089015160608901906106ae565b6107a8608089015160808901906106ae565b6107ba60a089015160a08901906106ae565b6107cc60c089015160c08901906106ae565b6107de60e089015160e08901906106ae565b6101008801518782036101008901526106e5565b6101208701518682036101208801526106e5565b6101408601518582036101408701526106e5565b6101608501518482036101608601526106e5565b920151906101808184039101526106e5565b90565b6108589160208201915f818403910152610735565b90565b3461089557610891610880610871366004610606565b96959095949194939293611139565b6108886100d2565b91829182610843565b0390f35b610273565b60018060401b0381116108b6576108b2602091610122565b0190565b61012c565b906108cd6108c88361089a565b610167565b918252565b5f7f352e302e30000000000000000000000000000000000000000000000000000000910152565b61090360056108bb565b90610910602083016108d2565b565b61091a6108f9565b90565b610925610912565b90565b61093061091d565b90565b5190565b60209181520190565b90825f9392825e0152565b61096a6109736020936109789361096181610933565b93848093610937565b95869101610940565b610122565b0190565b6109919160208201915f81840391015261094b565b90565b346109c4576109a4366004610277565b6109c06109af610928565b6109b76100d2565b9182918261097c565b0390f35b610273565b906020828203126109e2576109df915f0161010b565b90565b6100d8565b34610a15576109ff6109fa3660046109c9565b61148d565b610a076100d2565b80610a1181610244565b0390f35b610273565b919060e083820312610acd575f83013560018060401b038111610ac85781610a43918501610565565b92602081013560018060401b038111610ac35782610a6291830161058c565b929093604083013560018060401b038111610abe5782610a839185016105c9565b929093610a9382606083016104ff565b92610abb610aa4846080850161010b565b93610ab28160a0860161010b565b9360c00161010b565b90565b6100dc565b6100dc565b6100dc565b6100d8565b34610b0a57610af4610ae5366004610a1a565b97969096959195949294611db7565b610afc6100d2565b80610b0681610244565b0390f35b610273565b34610b3d57610b27610b223660046109c9565b61303a565b610b2f6100d2565b80610b3981610244565b0390f35b610273565b5f80fd5b90610b5891610b53613051565b610b5a565b565b90610b6d91610b688161310a565b61317a565b565b90610b7991610b46565b565b5f90565b610b9090610b8b613286565b610be3565b90565b90565b5f1b90565b610baf610baa610bb492610b93565b610b96565b610286565b90565b610be07f360894a13ba1a3210667c828492db98dca3e2076cc3735a920a3ca505d382bbc610b9b565b90565b50610bec610bb7565b90565b610bff610bfa610b7b565b610b7f565b90565b610c0a6132eb565b610c12610c3f565b565b90565b610c2b610c26610c3092610c14565b610355565b6100e0565b90565b610c3c90610c17565b90565b610c50610c4b5f610c33565b61336f565b565b610c5a610c02565b565b5f90565b5f1c90565b60018060a01b031690565b610c7c610c8191610c60565b610c65565b90565b610c8e9054610c70565b90565b610c99610c5c565b50610cac5f610ca66133db565b01610c84565b90565b60401c90565b60ff1690565b610cc7610ccc91610caf565b610cb5565b90565b610cd99054610cbb565b90565b60018060401b031690565b610cf3610cf891610c60565b610cdc565b90565b610d059054610ce7565b90565b90610d1960018060401b0391610b96565b9181191691161790565b610d37610d32610d3c9261043a565b610355565b61043a565b90565b90565b90610d57610d52610d5e92610d23565b610d3f565b8254610d08565b9055565b60401b90565b90610d7760ff60401b91610d62565b9181191691161790565b151590565b610d8f90610d81565b90565b90565b90610daa610da5610db192610d86565b610d92565b8254610d68565b9055565b610dbe9061043a565b9052565b9190610dd5905f60208501940190610db5565b565b908091610de26133ff565b90610dee5f8301610ccf565b8015610e86575b610e6357610e2892610e1f91610e0d865f8601610d42565b610e1a60015f8601610d95565b610f0d565b5f809101610d95565b610e5e7fc7f505b2f371ae2175ee4913f4499e1f2633a7b5936321eed1cdaeb6115181d291610e556100d2565b91829182610dc2565b0390a1565b610e6b6100d2565b63f92ee8a960e01b815280610e8260048201610244565b0390fd5b50610e925f8301610cfb565b610ea4610e9e8661043a565b9161043a565b1015610df5565b610eb490610358565b90565b610ec090610eab565b90565b90610ed460018060a01b0391610b96565b9181191691161790565b610ee790610eab565b90565b90565b90610f02610efd610f0992610ede565b610eea565b8254610ec3565b9055565b610f219150610f1b90610eb7565b5f610eed565b565b90610f2d91610dd7565b565b610f3a6101a0610167565b90565b5f90565b606090565b602090818080808080808080808080610f5d610f2f565b9d8e610f67610f3d565b815201610f72610f3d565b815201610f7d610f41565b815201610f88610f3d565b815201610f93610f3d565b815201610f9e610f3d565b815201610fa9610f3d565b815201610fb4610f3d565b815201610fbf610f41565b815201610fca610f41565b815201610fd5610f41565b815201610fe0610f41565b815201610feb610f41565b81525050565b610ff9610f46565b90565b5090565b9061101261100d836104c9565b610167565b918252565b369037565b9061104161102983611000565b9260208061103786936104c9565b9201910390611017565b565b61105761105261105c92610c14565b610355565b6104e8565b90565b600161106b91016104e8565b90565b634e487b7160e01b5f52603260045260245ffd5b9190811015611092576020020190565b61106e565b356110a1816100f7565b90565b6110ad90610358565b90565b6110b9906110a4565b90565b6110c590610374565b90565b60e01b90565b905051906110db826104eb565b565b906020828203126110f6576110f3915f016110ce565b90565b6100d8565b6111036100d2565b3d5f823e3d90fd5b90611115826106bb565b811015611126576020809102010190565b61106e565b90611135906104e8565b9052565b97929691949093611148610ff1565b5061115c611157868890610ffc565b61101c565b98611166816106bb565b6111786111725f611043565b916104e8565b145f1461128857506111895f611043565b5b806111a76111a161119c898b90610ffc565b6104e8565b916104e8565b101561126b576112019060206111d76111d26111cd6111c88b8d8791611082565b611097565b6110b0565b6110bc565b6370a08231906111f68c926111ea6100d2565b968794859384936110c8565b8352600483016103f0565b03915afa918215611266576112339261122e915f91611238575b506112298d9184909261110b565b61112b565b61105f565b61118a565b611259915060203d811161125f575b6112518183610140565b8101906110dd565b5f61121b565b503d611247565b6110fb565b509297611285979295919496505b9590919293949561353c565b90565b9093985061128597929591949650611279565b6112af6112aa6112b492610c14565b610355565b61043a565b90565b90565b6112ce6112c96112d3926112b7565b610355565b61043a565b90565b6112df90610374565b90565b6112eb906112ba565b9052565b9190611302905f602085019401906112e2565b565b61130c6133ff565b9061132161131b5f8401610ccf565b15610d81565b9061132d5f8401610cfb565b8061134061133a5f61129b565b9161043a565b1480611461575b9061135b61135560016112ba565b9161043a565b1480611439575b61136d909115610d81565b9081611428575b506114055761139d9061139261138a60016112ba565b5f8601610d42565b826113f3575b611468565b6113a5575b50565b6113b2905f809101610d95565b60016113ea7fc7f505b2f371ae2175ee4913f4499e1f2633a7b5936321eed1cdaeb6115181d2916113e16100d2565b918291826112ef565b0390a15f6113a2565b61140060015f8601610d95565b611398565b61140d6100d2565b63f92ee8a960e01b81528061142460048201610244565b0390fd5b611433915015610d81565b5f611374565b5061136d611446306112d6565b3b6114596114535f611043565b916104e8565b149050611362565b5082611347565b61148561148b91611477613d80565b61148033613da8565b610eb7565b5f610eed565b565b61149690611304565b565b6114a46114a991610c60565b610317565b90565b6114b69054611498565b90565b905051906114c6826100f7565b565b906020828203126114e1576114de915f016114b9565b90565b6100d8565b5f7f4e6f206173736574732070726f76696465640000000000000000000000000000910152565b61151a6012602092610937565b611523816114e6565b0190565b61153c9060208101905f81830391015261150d565b90565b1561154657565b61154e6100d2565b62461bcd60e51b81528061156460048201611527565b0390fd5b60207f656e677468000000000000000000000000000000000000000000000000000000917f4d69736d6174636865642062616c616e63657320616e6420617373657473206c5f8201520152565b6115c26025604092610937565b6115cb81611568565b0190565b6115e49060208101905f8183039101526115b5565b90565b156115ee57565b6115f66100d2565b62461bcd60e51b81528061160c600482016115cf565b0390fd5b5090565b60207f6e67746800000000000000000000000000000000000000000000000000000000917f4d69736d617463686564207765696768747320616e6420617373657473206c655f8201520152565b61166e6024604092610937565b61167781611614565b0190565b6116909060208101905f818303910152611661565b90565b1561169a57565b6116a26100d2565b62461bcd60e51b8152806116b86004820161167b565b0390fd5b6116c690516104e8565b90565b6116d290610374565b90565b6116de81610d81565b036116e557565b5f80fd5b905051906116f6826116d5565b565b906020828203126117115761170e915f016116e9565b90565b6100d8565b61171f906104e8565b9052565b60409061174c611753949695939661174260608401985f8501906103e3565b60208301906103e3565b0190611716565b565b634e487b7160e01b5f52601160045260245ffd5b61177861177e919392936104e8565b926104e8565b820180921161178957565b611755565b60207f6967687420416d6f756e74212100000000000000000000000000000000000000917f42616c756e695631526562616c616e6365723a20556e646572204f76657277655f8201520152565b6117e8602d604092610937565b6117f18161178e565b0190565b61180a9060208101905f8183039101526117db565b90565b1561181457565b61181c6100d2565b62461bcd60e51b815280611832600482016117f5565b0390fd5b91602061185792949361185060408201965f8301906103e3565b01906103e3565b565b60207f646572204f76657277656967687420416d6f756e740000000000000000000000917f42616c756e695631526562616c616e6365723a20416c6c6f77616e636520756e5f8201520152565b6118b36035604092610937565b6118bc81611859565b0190565b6118d59060208101905f8183039101526118a6565b90565b156118df57565b6118e76100d2565b62461bcd60e51b8152806118fd600482016118c0565b0390fd5b91602061192292949361191b60408201965f8301906103e3565b0190611716565b565b61192d90610358565b90565b61193990611924565b90565b61194590610374565b90565b909594926119939461198261198c9261197860809661196e60a088019c5f8901906103e3565b60208701906103e3565b60408501906103e3565b6060830190611716565b01906103e3565b565b6119ca6119d1946119c06060949897956119b6608086019a5f8701906103e3565b60208501906103e3565b6040830190611716565b01906103e3565b565b60207f7420626173652061737365742062616c616e6365000000000000000000000000917f42616c756e695631526562616c616e6365723a2020496e73756666696369656e5f8201520152565b611a2d6034604092610937565b611a36816119d3565b0190565b611a4f9060208101905f818303910152611a20565b90565b15611a5957565b611a616100d2565b62461bcd60e51b815280611a7760048201611a3a565b0390fd5b60018060401b038111611a915760208091020190565b61012c565b90929192611aab611aa682611a7b565b610167565b9381855260208086019202830192818411611ae857915b838310611acf5750505050565b60208091611add848661010b565b815201920191611ac2565b6104e4565b611af8913691611a96565b90565b5190565b90611b0982611afb565b811015611b1a576020809102010190565b61106e565b611b2990516100eb565b90565b611b3b611b41919392936104e8565b926104e8565b91611b4d8382026104e8565b928184041490151715611b5c57565b611755565b634e487b7160e01b5f52601260045260245ffd5b611b81611b87916104e8565b916104e8565b908115611b92570490565b611b61565b60207f79207175616e74697479206973207a65726f0000000000000000000000000000917f42616c756e695631526562616c616e6365723a20526562616c616e63652062755f8201520152565b611bf16032604092610937565b611bfa81611b97565b0190565b611c139060208101905f818303910152611be4565b90565b15611c1d57565b611c256100d2565b62461bcd60e51b815280611c3b60048201611bfe565b0390fd5b60407f6c616e6365000000000000000000000000000000000000000000000000000000917f42616c756e695631526562616c616e6365723a20526562616c616e63652062755f8201527f79207175616e746974792065786365656473206261736520617373657420626160208201520152565b611cbf6045606092610937565b611cc881611c3f565b0190565b611ce19060208101905f818303910152611cb2565b90565b15611ceb57565b611cf36100d2565b62461bcd60e51b815280611d0960048201611ccc565b0390fd5b5f90565b611d20611d26919392936104e8565b926104e8565b8203918211611d3157565b611755565b5f7f42616c616e636520756e64657220616d6f756e7420746f207472616e73666572910152565b611d6960208092610937565b611d7281611d36565b0190565b611d8b9060208101905f818303910152611d5d565b90565b15611d9557565b611d9d6100d2565b62461bcd60e51b815280611db360048201611d76565b0390fd5b969593919290989794611dec6020611dd6611dd15f6114ac565b610380565b636c9c007890611de46100d2565b9384926110c8565b82528180611dfc60048201610244565b03915afa908115612fc9575f91612f9b575b5097611e36611e1e8c8790610ffc565b611e30611e2a5f611043565b916104e8565b1161153f565b611e658b611e5f611e59611e54611e4c866106bb565b938a90610ffc565b6104e8565b916104e8565b146115e7565b611e968b611e90611e8a611e85611e7d888a90611610565b938a90610ffc565b6104e8565b916104e8565b14611693565b611e9f816106bb565b611eb1611eab5f611043565b916104e8565b14612e86575b90611ecd939291928b928690919293899561353c565b96611ed75f611043565b5b80611ef8611ef2611eed6101008d01516106bb565b6104e8565b916104e8565b101561258457611f16611f116101208b0151839061110b565b6116bc565b611f28611f225f611043565b916104e8565b11611f3d575b611f38905b61105f565b611ed8565b611f69611f64838b611f5e611f5961010089930151879061110b565b6116bc565b91611082565b611097565b908982611f7e611f78896100eb565b916100eb565b1461249f5780611fdf611fd9611fd4611fcf610120611fc5611fc0610180611fe6990151611fba611fb56101008b01518d9061110b565b6116bc565b9061110b565b6116bc565b950151879061110b565b6116bc565b6104e8565b916104e8565b101561180d565b611ff7611ff2836110b0565b6110bc565b602063dd62ed3e91879061202561200d306116c9565b946120306120196100d2565b968795869485946110c8565b845260048401611836565b03915afa801561249a5761207261206c6120676120628f9461012090612079975f9161246c575b50950151879061110b565b6116bc565b6104e8565b916104e8565b10156118d8565b89602061208d612088856110b0565b6110bc565b6323b872dd906120d15f8a936120dc6120bd6120b86101206120ae306116c9565b9a01518b9061110b565b6116bc565b6120c56100d2565b988997889687956110c8565b855260048501611723565b03925af180156124675761243b575b5061211860206121026120fd5f6114ac565b610380565b6382755ebb906121106100d2565b9384926110c8565b8252818061212860048201610244565b03915afa908115612436575f91612408575b5061214c612147846110b0565b6110bc565b9260208c63095ea7b39561218b5f61217361216e610120899601518a9061110b565b6116bc565b9861219661217f6100d2565b9a8b96879586946110c8565b845260048401611901565b03925af19182156124035789948d936123d7575b50888b836121c06121ba836100eb565b916100eb565b145f146122d0575050906122435f6121e26121dd60209695611930565b61193c565b9261224e632d6bc8ea91958d9961221461014061220c6122078d61012087015161110b565b6116bc565b9301516106bb565b61222661222087611043565b916104e8565b1485146122c057905b6122376100d2565b9a8b98899788966110c8565b865260048601611995565b03925af19182156122bb57611f3892612285915f9161228d575b5061227f60e08d019161227a836116bc565b611769565b9061112b565b5b9050611f2e565b6122ae915060203d81116122b4575b6122a68183610140565b8101906110dd565b5f612268565b503d61229c565b6110fb565b506122ca306116c9565b9061222f565b925f90612358876020976122f06122eb61234d979c98611930565b61193c565b9661231e610140612316612311635efaaebb989c9f9661012087015161110b565b6116bc565b9301516106bb565b61233061232a88611043565b916104e8565b1486146123c757915b6123416100d2565b9b8c998a9889976110c8565b875260048701611948565b03925af19182156123c257611f389261238f915f91612394575b5061238960e08d0191612384836116bc565b611769565b9061112b565b612286565b6123b5915060203d81116123bb575b6123ad8183610140565b8101906110dd565b5f612372565b503d6123a3565b6110fb565b506123d1306116c9565b91612339565b6123f79060203d81116123fc575b6123ef8183610140565b8101906116f8565b6121aa565b503d6123e5565b6110fb565b612429915060203d811161242f575b6124218183610140565b8101906114c8565b5f61213a565b503d612417565b6110fb565b61245b9060203d8111612460575b6124538183610140565b8101906116f8565b6120eb565b503d612449565b6110fb565b61248d915060203d8111612493575b6124858183610140565b8101906110dd565b5f612057565b503d61247b565b6110fb565b916124b36124ae6020926110b0565b6110bc565b6323b872dd906124f75f89936125026124e36124de6101206124d4306116c9565b9b01518a9061110b565b6116bc565b6124eb6100d2565b998a97889687956110c8565b855260048501611723565b03925af191821561257f57611f3892612553575b5061254e61253261252d6101208d0151849061110b565b6116bc565b61254860e08d0191612543836116bc565b611769565b9061112b565b611f33565b6125739060203d8111612578575b61256b8183610140565b8101906116f8565b612516565b503d612561565b6110fb565b509392969491506125d49060206125a261259d8a6110b0565b6110bc565b6370a08231906125c96125b4306116c9565b926125bd6100d2565b968794859384936110c8565b8352600483016103f0565b03915afa8015612e8157612618925f91612e53575b50946126138661260c61260661260160e08c016116bc565b6104e8565b916104e8565b1015611a52565b611aed565b95612645602061262f61262a5f6114ac565b610380565b634f4608a29061263d6100d2565b9384926110c8565b8252818061265560048201610244565b03915afa908115612e4e575f91612e20575b50966126725f611043565b5b8061269361268d6126886101408b01516106bb565b6104e8565b916104e8565b1015612e1557869089836126b56126b0610160860151859061110b565b6116bc565b6126c76126c15f611043565b916104e8565b116126df575b50506126da91505b61105f565b612673565b61274561273361275e9361272e61272961016061271f61271a8b61271461270f8d6101406127579d94015161110b565b6116bc565b90611aff565b611b1f565b990151889061110b565b6116bc565b611b2c565b61273f60c08d016116bc565b90611b75565b61275160e08c016116bc565b90611b2c565b8b90611b75565b9186928161277461276e886100eb565b916100eb565b14612d87576127958161278f6127895f611043565b916104e8565b11611c16565b6127b2816127ab6127a58c6104e8565b916104e8565b1115611ce4565b6127de60206127c86127c35f6114ac565b610380565b6382755ebb906127d66100d2565b9384926110c8565b825281806127ee60048201610244565b03915afa908115612d82575f91612d54575b5061281261280d886110b0565b6110bc565b90602063095ea7b392829061283a5f879661284561282e6100d2565b988996879586946110c8565b845260048401611901565b03925af1918215612d4f57602092612d24575b50612861611d0d565b508361287561286f8b6100eb565b916100eb565b145f14612c8b5761288861288d91611930565b61193c565b632d6bc8ea906128bc5f8a936128c788976128a7306116c9565b906128b06100d2565b998a98899788966110c8565b865260048601611995565b03925af1908115612c86575f91612c58575b50925b6128e98460e08c0161112b565b6128fd6128f585613db3565b948590611d11565b61291161290982613db3565b918290611d11565b9161295a6020612928612923876110b0565b6110bc565b6370a082319061294f61293a306116c9565b926129436100d2565b958694859384936110c8565b8352600483016103f0565b03915afa8015612c5357612989915f91612c25575b5061298261297c896104e8565b916104e8565b1015611d8e565b6129b5602061299f61299a5f6114ac565b610380565b6304cc7325906129ad6100d2565b9384926110c8565b825281806129c560048201610244565b03915afa908115612c20575f91612bf2575b5091612a0560206129ef6129ea5f6114ac565b610380565b633b19e84a906129fd6100d2565b9384926110c8565b82528180612a1560048201610244565b03915afa8015612bed576020915f91612bc0575b5097612a3c612a37886110b0565b6110bc565b612a5f5f63a9059cbb969396612a6a612a536100d2565b988996879586946110c8565b845260048401611901565b03925af1918215612bbb57602092612b90575b50612a8f612a8a866110b0565b6110bc565b612ab25f63a9059cbb959395612abd612aa66100d2565b978896879586946110c8565b845260048401611901565b03925af18015612b8b57602093612ae292612add92612b60575b506110b0565b6110bc565b612b055f63a9059cbb969396612b10612af96100d2565b988996879586946110c8565b845260048401611901565b03925af1918215612b5b576126da92612b2f575b5087915089836126cd565b612b4f9060203d8111612b54575b612b478183610140565b8101906116f8565b612b24565b503d612b3d565b6110fb565b612b7f90863d8111612b84575b612b778183610140565b8101906116f8565b612ad7565b503d612b6d565b6110fb565b612baf90833d8111612bb4575b612ba78183610140565b8101906116f8565b612a7d565b503d612b9d565b6110fb565b612be09150823d8111612be6575b612bd88183610140565b8101906114c8565b5f612a29565b503d612bce565b6110fb565b612c13915060203d8111612c19575b612c0b8183610140565b8101906114c8565b5f6129d7565b503d612c01565b6110fb565b612c46915060203d8111612c4c575b612c3e8183610140565b8101906110dd565b5f61296f565b503d612c34565b6110fb565b612c79915060203d8111612c7f575b612c718183610140565b8101906110dd565b5f6128d9565b503d612c67565b6110fb565b612c97612c9c91611930565b61193c565b635efaaebb90612ccd5f8a93612cd88d978990612cb8306116c9565b91612cc16100d2565b9a8b998a9889976110c8565b875260048701611948565b03925af1908115612d1f575f91612cf1575b50926128dc565b612d12915060203d8111612d18575b612d0a8183610140565b8101906110dd565b5f612cea565b503d612d00565b6110fb565b612d4390833d8111612d48575b612d3b8183610140565b8101906116f8565b612858565b503d612d31565b6110fb565b612d75915060203d8111612d7b575b612d6d8183610140565b8101906114c8565b5f612800565b503d612d63565b6110fb565b60209150612d9c612d97876110b0565b6110bc565b612dbf5f63a9059cbb969396612dca612db36100d2565b988996879586946110c8565b845260048401611901565b03925af1918215612e10576126da92612de4575b506126d5565b612e049060203d8111612e09575b612dfc8183610140565b8101906116f8565b612dde565b503d612df2565b6110fb565b505050505050509050565b612e41915060203d8111612e47575b612e398183610140565b8101906110dd565b5f612667565b503d612e2f565b6110fb565b612e74915060203d8111612e7a575b612e6c8183610140565b8101906110dd565b5f6125e9565b503d612e62565b6110fb565b999591612e9a5f9a9699959894929a611043565b5b80612eb8612eb2612ead8b8d90610ffc565b6104e8565b916104e8565b1015612f8257612f119060208b612eea612ee5612ee0612edb8f8f908891611082565b611097565b6110b0565b6110bc565b612f066370a08231612efa6100d2565b968794859384936110c8565b8352600483016103f0565b03915afa918215612f7d57612f44928e612f3f925f92612f49575b50612f3a909184909261110b565b61112b565b61105f565b612e9b565b612f3a919250612f6f9060203d8111612f76575b612f678183610140565b8101906110dd565b9190612f2c565b503d612f5d565b6110fb565b509091959998611ecd9397949895999091929350611eb7565b612fbc915060203d8111612fc2575b612fb48183610140565b8101906114c8565b5f611e0e565b503d612faa565b6110fb565b612fdf90612fda6132eb565b612fe1565b565b80612ffc612ff6612ff15f610c33565b6100eb565b916100eb565b1461300c5761300a9061336f565b565b6130366130185f610c33565b6130206100d2565b918291631e4fbdf760e01b8352600483016103f0565b0390fd5b61304390612fce565b565b61304e90610374565b90565b61305a30613045565b61308c6130867f00000000000000000000000000000000000000000000000000000000000000006100eb565b916100eb565b1480156130bd575b61309a57565b6130a26100d2565b63703e46dd60e11b8152806130b960048201610244565b0390fd5b506130c6613ee1565b6130f86130f27f00000000000000000000000000000000000000000000000000000000000000006100eb565b916100eb565b1415613094565b506131086132eb565b565b613113906130ff565b565b61311e90610358565b90565b61312a90613115565b90565b61313690610374565b90565b61314281610286565b0361314957565b5f80fd5b9050519061315a82613139565b565b9060208282031261317557613172915f0161314d565b90565b6100d8565b91906131a8602061319261318d86613121565b61312d565b6352d1902d906131a06100d2565b9384926110c8565b825281806131b860048201610244565b03915afa80915f92613256575b50155f146132005750509060016131da57505b565b6131fc906131e66100d2565b918291634c9c8ce360e01b8352600483016103f0565b0390fd5b928361321b613215613210610bb7565b610286565b91610286565b036132305761322b929350613f0b565b6131d8565b6132528461323c6100d2565b918291632a87526960e21b835260048301610296565b0390fd5b61327891925060203d811161327f575b6132708183610140565b81019061315c565b905f6131c5565b503d613266565b61328f30613045565b6132c16132bb7f00000000000000000000000000000000000000000000000000000000000000006100eb565b916100eb565b036132c857565b6132d06100d2565b63703e46dd60e11b8152806132e760048201610244565b0390fd5b6132f3610c91565b61330c613306613301613f94565b6100eb565b916100eb565b0361331357565b61333c61331e613f94565b6133266100d2565b91829163118cdaa760e01b8352600483016103f0565b0390fd5b61334990610374565b90565b90565b9061336461335f61336b92613340565b61334c565b8254610ec3565b9055565b6133776133db565b61338f6133855f8301610c84565b915f84910161334f565b906133c36133bd7f8be0079c531659141344cd1fd0a4f28419497f9722a3daafe3b4186f6b6457e093613340565b91613340565b916133cc6100d2565b806133d681610244565b0390a3565b7f9016d09d72d40fdae2fd8ceac6b6234c7706214fd39c1cd1e609a0528c19930090565b7ff0c57e16840df040f15088dc2f81fe391c3923bec73e23a9662efc9c229c6a0090565b90565b61343a61343561343f92613423565b610355565b6104e8565b90565b61344d6101a0610167565b90565b52565b61345c90610358565b90565b61346890613453565b90565b919081101561347b576020020190565b61106e565b3561348a816104eb565b90565b613496906104e8565b5f1981146134a45760010190565b611755565b6134b290610374565b90565b6134be90610358565b90565b6134ca906134b5565b90565b6134d690610374565b90565b60ff1690565b6134e8816134d9565b036134ef57565b5f80fd5b90505190613500826134df565b565b9060208282031261351b57613518915f016134f3565b90565b6100d8565b61353461352f613539926134d9565b610355565b6104e8565b90565b9096959394919461354b610ff1565b5081888790879161355b91611aed565b61356492613fa6565b91909192898861357391610ffc565b9083908b8a875f805f80915f93878761358b91610ffc565b600261359690613426565b61359f91611b2c565b6135a89061101c565b9588886135b491610ffc565b60026135bf90613426565b6135c891611b2c565b6135d19061101c565b9789816135dd91610ffc565b60026135e890613426565b6135f191611b2c565b6135fa9061101c565b999061360591610ffc565b600261361090613426565b61361991611b2c565b6136229061101c565b999a61362c613442565b9c5f8e019061363a9161112b565b60208d01906136489161112b565b60408c019061365691613450565b61365f90611043565b60608b019061366d9161112b565b61367690611043565b60808a01906136849161112b565b61368d90611043565b60a089019061369b9161112b565b6136a490611043565b60c08801906136b29161112b565b6136bb90611043565b60e08701906136c99161112b565b6101008601906136d891613450565b6101208501906136e791613450565b6101408401906136f691613450565b61016083019061370591613450565b61018082019061371491613450565b939193965f61372290611043565b5b8a61374161373b61373684938690610ffc565b6104e8565b916104e8565b1015613ce457613773602061375d6137585f6114ac565b610380565b63bb3ba04c9061376b6100d2565b9384926110c8565b8252818061378360048201610244565b03915afa8015613cdf5761379e915f91613cb1575b5061345f565b906137b36137ae8d858491611082565b611097565b896137c86137c38b88869161346b565b613480565b6138076137de6137d98b879061110b565b6116bc565b60206137f16137ec5f6114ac565b610380565b634f4608a2906137ff6100d2565b9485926110c8565b8252818061381760048201610244565b03915afa918215613cac578f9261384092613839925f92613c7c575b50611b2c565b8c90611b75565b918261385461384e836104e8565b916104e8565b1192835f14613c6e579061386791611d11565b5b918080613c54575b5f14613b845750506138866138af918b90611b2c565b60206138996138945f6114ac565b610380565b634f4608a2906138a76100d2565b9485926110c8565b825281806138bf60048201610244565b03915afa908115613b7f576138db925f92613b4f575b50611b75565b936138fd8d6138f76060889201916138f2836116bc565b611769565b9061112b565b8261391061390a846100eb565b916100eb565b145f14613a28575050602061393061392b61394695936134c1565b6134cd565b63313ce5679061393e6100d2565b9586926110c8565b8252818061395660048201610244565b03915afa908115613a23576139c76139878d926139816139cc956139f0985f916139f5575b50613520565b906142cd565b5b6139ae856139a9610100860151916139a2608088016116bc565b909261110b565b61112b565b6139c0608061012085015194016116bc565b909261110b565b61112b565b6139ea60808b016139e46139df826116bc565b61348d565b9061112b565b5b61105f565b613723565b613a16915060203d8111613a1c575b613a0e8183610140565b810190613502565b5f61397b565b503d613a04565b6110fb565b90613a36613a6893926134a9565b9063248391ff6020613a52613a4d849699946134c1565b6134cd565b63313ce56790613a606100d2565b9788926110c8565b82528180613a7860048201610244565b03915afa948515613b4a57613aa7613abb93613aa1602098613ac6945f91613b1d575b50613520565b906142cd565b613aaf6100d2565b988996879586956110c8565b855260048501611723565b03915afa918215613b18578a6139c76139f0946139cc935f91613aea575b50613988565b613b0b915060203d8111613b11575b613b038183610140565b8101906110dd565b5f613ae4565b503d613af9565b6110fb565b613b3d91508a3d8111613b43575b613b358183610140565b810190613502565b5f613a9b565b503d613b2b565b6110fb565b613b7191925060203d8111613b78575b613b698183610140565b8101906110dd565b905f6138d5565b503d613b5f565b6110fb565b9092506139f09550613b9891935015610d81565b80613c3a575b613baa575b50506139eb565b613c1082613bd1613c1594613bcb60c0860191613bc6836116bc565b611769565b9061112b565b613bf785613bf261014086015191613beb60a088016116bc565b909261110b565b61112b565b613c0960a061016085015194016116bc565b909261110b565b61112b565b613c3360a08b01613c2d613c28826116bc565b61348d565b9061112b565b5f8a613ba3565b5081613c4e613c48896104e8565b916104e8565b11613b9e565b5082613c68613c628c6104e8565b916104e8565b11613870565b613c7791611d11565b613868565b613c9e91925060203d8111613ca5575b613c968183610140565b8101906110dd565b905f613833565b503d613c8c565b6110fb565b613cd2915060203d8111613cd8575b613cca8183610140565b8101906114c8565b5f613798565b503d613cc0565b6110fb565b5050505050505050909150613d0a610100820151613d04608084016116bc565b906142ff565b610100820152613d2b610120820151613d25608084016116bc565b906142ff565b610120820152613d4c610140820151613d4660a084016116bc565b906142ff565b610140820152613d6d610160820151613d6760a084016116bc565b906142ff565b61016082015290565b613d7e614374565b565b613d88613d76565b565b613d9b90613d96614374565b613d9d565b565b613da69061441a565b565b613db190613d8a565b565b613de990613dbf611d0d565b506020613dd3613dce5f6114ac565b610380565b634f4608a290613de16100d2565b9485926110c8565b82528180613df960048201610244565b03915afa8015613edc57613e39925f91613eae575b50906020613e23613e1e5f6114ac565b610380565b6385462d6f90613e316100d2565b9586926110c8565b82528180613e4960048201610244565b03915afa908115613ea957613e6d613e7392613e78955f91613e7b575b5084611d11565b90611b2c565b611b75565b90565b613e9c915060203d8111613ea2575b613e948183610140565b8101906110dd565b5f613e66565b503d613e8a565b6110fb565b613ecf915060203d8111613ed5575b613ec78183610140565b8101906110dd565b5f613e0e565b503d613ebd565b6110fb565b613ee9610c5c565b50613f045f613efe613ef9610bb7565b614425565b01610c84565b90565b5190565b90613f1582614428565b81613f407fbc7cd75a20ee27fd9adebab32041f755214dbc6bffa90cc0225b39da2e5c2d3b91613340565b90613f496100d2565b80613f5381610244565b0390a2613f5f81613f07565b613f71613f6b5f611043565b916104e8565b115f14613f8557613f8191614506565b505b565b5050613f8f614484565b613f83565b613f9c610c5c565b503390565b606090565b929192613fb1611d0d565b50613fba613fa1565b50613fe76020613fd1613fcc876134c1565b6134cd565b63313ce56790613fdf6100d2565b9384926110c8565b82528180613ff760048201610244565b03915afa90811561428d575f9161425f575b50906140145f611043565b94614041602061402b6140265f6114ac565b610380565b63bb3ba04c906140396100d2565b9384926110c8565b8252818061405160048201610244565b03915afa801561425a5761406c915f9161422c575b5061345f565b9361407e61407982611afb565b61101c565b946140885f611043565b975b886140a561409f61409a86611afb565b6104e8565b916104e8565b1015614220576140be6140b9848b90611aff565b611b1f565b6140d06140ca866100eb565b916100eb565b145f1461414f57614108614149916141026140f36140ee8d8a61110b565b6116bc565b6140fc8a613520565b90614535565b90611769565b9861414361413161412261411d89859061110b565b6116bc565b61412b8a613520565b90614535565b61413e8a9184909261110b565b61112b565b5b61105f565b9761408a565b97614159826134a9565b90602063b27b5e7592614175614170878590611aff565b611b1f565b906141a588956141b061419161418c8d899061110b565b6116bc565b6141996100d2565b988996879586956110c8565b855260048501611723565b03915afa801561421b576141d56141e891614149945f916141ed575b509b8c90611769565b9a6141e38a9184909261110b565b61112b565b614144565b61420e915060203d8111614214575b6142068183610140565b8101906110dd565b5f6141cc565b503d6141fc565b6110fb565b95975050505050509190565b61424d915060203d8111614253575b6142458183610140565b8101906114c8565b5f614066565b503d61423b565b6110fb565b614280915060203d8111614286575b6142788183610140565b810190613502565b5f614009565b503d61426e565b6110fb565b90565b6142a96142a46142ae92614292565b610355565b6104e8565b90565b6142ba906104e8565b604d81116142c857600a0a90565b611755565b906142f66142f16142fc936142e0611d0d565b50926142ec6012614295565b611d11565b6142b1565b90611b75565b90565b91909161430a613fa1565b506143148361101c565b9161431d611d0d565b5b8061433161432b876104e8565b916104e8565b101561436d576143689061436361435161434c86849061110b565b6116bc565b61435e879184909261110b565b61112b565b61105f565b61431e565b5092505090565b61438561437f61456b565b15610d81565b61438b57565b6143936100d2565b631afcd79f60e31b8152806143aa60048201610244565b0390fd5b6143bf906143ba614374565b6143c1565b565b806143dc6143d66143d15f610c33565b6100eb565b916100eb565b146143ec576143ea9061336f565b565b6144166143f85f610c33565b6144006100d2565b918291631e4fbdf760e01b8352600483016103f0565b0390fd5b614423906143ae565b565b90565b803b61443c6144365f611043565b916104e8565b1461445e5761445c905f614456614451610bb7565b614425565b0161334f565b565b6144809061446a6100d2565b918291634c9c8ce360e01b8352600483016103f0565b0390fd5b346144976144915f611043565b916104e8565b1161449e57565b6144a66100d2565b63b398979f60e01b8152806144bd60048201610244565b0390fd5b606090565b906144d86144d38361017c565b610167565b918252565b3d5f146144f8576144ed3d6144c6565b903d5f602084013e5b565b6145006144c1565b906144f6565b5f80614532936145146144c1565b508390602081019051915af4906145296144dd565b90919091614589565b90565b9061455e61455961456493614548611d0d565b50926145546012614295565b611d11565b6142b1565b90611b2c565b90565b5f90565b614573614567565b506145865f6145806133ff565b01610ccf565b90565b9061459d906145966144c1565b5015610d81565b5f146145a95750614614565b6145b282613f07565b6145c46145be5f611043565b916104e8565b14806145f9575b6145d3575090565b6145f5906145df6100d2565b918291639996b31560e01b8352600483016103f0565b0390fd5b50803b61460e6146085f611043565b916104e8565b146145cb565b61461d81613f07565b61462f6146295f611043565b916104e8565b115f1461463e57805190602001fd5b6146466100d2565b630a12f52160e11b81528061465d60048201610244565b0390fdfea264697066735822122086b9257eb89e1da21592fca2ddcaf4e1a5f7e489a88855358e2877052ccea17e64736f6c63430008190033",
  "linkReferences": {},
  "deployedLinkReferences": {}
}