{
  "_format": "hh-sol-artifact-1",
  "contractName": "AutoRebal",
  "sourceName": "contracts/proxy/AutoRebal.sol",
  "abi": [
    {
      "inputs": [
        {
          "internalType": "address",
          "name": "_admin",
          "type": "address"
        }
      ],
      "stateMutability": "nonpayable",
      "type": "constructor"
    },
    {
      "inputs": [],
      "name": "admin",
      "outputs": [
        {
          "internalType": "address",
          "name": "",
          "type": "address"
        }
      ],
      "stateMutability": "view",
      "type": "function"
    },
    {
      "inputs": [],
      "name": "advisor",
      "outputs": [
        {
          "internalType": "address",
          "name": "",
          "type": "address"
        }
      ],
      "stateMutability": "view",
      "type": "function"
    },
    {
      "inputs": [
        {
          "internalType": "address",
          "name": "_hypervisor",
          "type": "address"
        },
        {
          "internalType": "uint256[4]",
          "name": "outMin",
          "type": "uint256[4]"
        }
      ],
      "name": "autoRebalance",
      "outputs": [
        {
          "internalType": "int24",
          "name": "limitLower",
          "type": "int24"
        },
        {
          "internalType": "int24",
          "name": "limitUpper",
          "type": "int24"
        }
      ],
      "stateMutability": "nonpayable",
      "type": "function"
    },
    {
      "inputs": [
        {
          "internalType": "address",
          "name": "_hypervisor",
          "type": "address"
        }
      ],
      "name": "compound",
      "outputs": [
        {
          "internalType": "uint128",
          "name": "baseToken0Owed",
          "type": "uint128"
        },
        {
          "internalType": "uint128",
          "name": "baseToken1Owed",
          "type": "uint128"
        },
        {
          "internalType": "uint128",
          "name": "limitToken0Owed",
          "type": "uint128"
        },
        {
          "internalType": "uint128",
          "name": "limitToken1Owed",
          "type": "uint128"
        },
        {
          "internalType": "uint256[4]",
          "name": "inMin",
          "type": "uint256[4]"
        }
      ],
      "stateMutability": "nonpayable",
      "type": "function"
    },
    {
      "inputs": [],
      "name": "feeRecipient",
      "outputs": [
        {
          "internalType": "address",
          "name": "",
          "type": "address"
        }
      ],
      "stateMutability": "view",
      "type": "function"
    },
    {
      "inputs": [],
      "name": "limitWidth",
      "outputs": [
        {
          "internalType": "int24",
          "name": "",
          "type": "int24"
        }
      ],
      "stateMutability": "view",
      "type": "function"
    },
    {
      "inputs": [
        {
          "internalType": "address",
          "name": "_hypervisor",
          "type": "address"
        }
      ],
      "name": "liquidityOptions",
      "outputs": [
        {
          "internalType": "bool",
          "name": "",
          "type": "bool"
        },
        {
          "internalType": "int24",
          "name": "currentTick",
          "type": "int24"
        }
      ],
      "stateMutability": "view",
      "type": "function"
    },
    {
      "inputs": [],
      "name": "pool",
      "outputs": [
        {
          "internalType": "contract IUniswapV3Pool",
          "name": "",
          "type": "address"
        }
      ],
      "stateMutability": "view",
      "type": "function"
    },
    {
      "inputs": [
        {
          "internalType": "address",
          "name": "_hypervisor",
          "type": "address"
        },
        {
          "internalType": "int24",
          "name": "_baseLower",
          "type": "int24"
        },
        {
          "internalType": "int24",
          "name": "_baseUpper",
          "type": "int24"
        },
        {
          "internalType": "int24",
          "name": "_limitLower",
          "type": "int24"
        },
        {
          "internalType": "int24",
          "name": "_limitUpper",
          "type": "int24"
        },
        {
          "internalType": "address",
          "name": "_feeRecipient",
          "type": "address"
        },
        {
          "internalType": "uint256[4]",
          "name": "inMin",
          "type": "uint256[4]"
        },
        {
          "internalType": "uint256[4]",
          "name": "outMin",
          "type": "uint256[4]"
        }
      ],
      "name": "rebalance",
      "outputs": [],
      "stateMutability": "nonpayable",
      "type": "function"
    },
    {
      "inputs": [
        {
          "internalType": "contract IERC20",
          "name": "token",
          "type": "address"
        },
        {
          "internalType": "address",
          "name": "recipient",
          "type": "address"
        }
      ],
      "name": "rescueERC20",
      "outputs": [],
      "stateMutability": "nonpayable",
      "type": "function"
    },
    {
      "inputs": [
        {
          "internalType": "address",
          "name": "_advisor",
          "type": "address"
        }
      ],
      "name": "setAdvisor",
      "outputs": [],
      "stateMutability": "nonpayable",
      "type": "function"
    },
    {
      "inputs": [
        {
          "internalType": "address",
          "name": "_recipient",
          "type": "address"
        }
      ],
      "name": "setRecipient",
      "outputs": [],
      "stateMutability": "nonpayable",
      "type": "function"
    },
    {
      "inputs": [
        {
          "internalType": "address",
          "name": "newAdmin",
          "type": "address"
        }
      ],
      "name": "transferAdmin",
      "outputs": [],
      "stateMutability": "nonpayable",
      "type": "function"
    },
    {
      "inputs": [
        {
          "internalType": "address",
          "name": "_hypervisor",
          "type": "address"
        },
        {
          "internalType": "address",
          "name": "newOwner",
          "type": "address"
        }
      ],
      "name": "transferHypervisorOwner",
      "outputs": [],
      "stateMutability": "nonpayable",
      "type": "function"
    }
  ],
  "bytecode": "0x60806040526003805462ffffff60a01b1916600160a01b17905534801561002557600080fd5b50604051611d4a380380611d4a8339818101604052602081101561004857600080fd5b50516001600160a01b0381166100a5576040805162461bcd60e51b815260206004820152601960248201527f5f61646d696e2073686f756c64206265206e6f6e2d7a65726f00000000000000604482015290519081900360640190fd5b600080546001600160a01b039283166001600160a01b031991821681179283905560018054831690911790556002805490911691909216179055611c5c806100ee6000396000f3fe608060405234801561001057600080fd5b50600436106100ea5760003560e01c80635d799f871161008c5780637e46fdd1116100665780637e46fdd1146102b3578063b4e9bf88146102f7578063dfd1ffb5146103ae578063f851a44014610430576100ea565b80635d799f871461023957806368cf5cf81461026757806375829def1461028d576100ea565b80631936e4be116100c85780631936e4be14610162578063284dac231461016a5780633bbed4a01461020b5780634690484014610231576100ea565b80630fdf7a4c146100ef578063115c28ad1461011f57806316f0115b1461013e575b600080fd5b61011d6004803603604081101561010557600080fd5b506001600160a01b0381358116916020013516610438565b005b6101276104ef565b6040805160029290920b8252519081900360200190f35b610146610510565b604080516001600160a01b039092168252519081900360200190f35b61014661051f565b6101906004803603602081101561018057600080fd5b50356001600160a01b031661052e565b60405180866001600160801b03168152602001856001600160801b03168152602001846001600160801b03168152602001836001600160801b0316815260200182600460200280838360005b838110156101f45781810151838201526020016101dc565b505050509050019550505050505060405180910390f35b61011d6004803603602081101561022157600080fd5b50356001600160a01b0316610638565b6101466106b3565b61011d6004803603604081101561024f57600080fd5b506001600160a01b03813581169160200135166106c2565b61011d6004803603602081101561027d57600080fd5b50356001600160a01b0316610892565b61011d600480360360208110156102a357600080fd5b50356001600160a01b0316610968565b6102d9600480360360208110156102c957600080fd5b50356001600160a01b0316610a3e565b60408051921515835260029190910b60208301528051918290030190f35b61011d60048036036101c081101561030e57600080fd5b60408051608081810183526001600160a01b0385358116956020810135600290810b9695820135810b956060830135820b958584013590920b9460a084013590941693908301929161014083019160c084019060049083908390808284376000920191909152505060408051608081810190925292959493818101939250906004908390839080828437600092019190915250919450610d339350505050565b61040d600480360360a08110156103c457600080fd5b6040805160808181019092526001600160a01b0384351693928301929160a08301919060208401906004908390839080828437600092019190915250919450610e789350505050565b604051808360020b81526020018260020b81526020019250505060405180910390f35b610146611564565b6000546001600160a01b03163314610484576040805162461bcd60e51b815260206004820152600a60248201526937b7363c9030b236b4b760b11b604482015290519081900360640190fd5b816001600160a01b031663f2fde38b826040518263ffffffff1660e01b815260040180826001600160a01b03168152602001915050600060405180830381600087803b1580156104d357600080fd5b505af11580156104e7573d6000803e3d6000fd5b505050505050565b60035474010000000000000000000000000000000000000000900460020b81565b6003546001600160a01b031681565b6001546001600160a01b031681565b60008060008061053c611c31565b6001546001600160a01b0316331461058a576040805162461bcd60e51b815260206004820152600c60248201526b37b7363c9030b23b34b9b7b960a11b604482015290519081900360640190fd5b85610593611c31565b60405163144faa2160e21b81526001600160a01b0383169063513ea8849083906004018082608080838360005b838110156105d85781810151838201526020016105c0565b50505050905001915050608060405180830381600087803b1580156105fc57600080fd5b505af1158015610610573d6000803e3d6000fd5b505050506040513d608081101561062657600080fd5b50969895975093955091939092509050565b6000546001600160a01b03163314610684576040805162461bcd60e51b815260206004820152600a60248201526937b7363c9030b236b4b760b11b604482015290519081900360640190fd5b6002805473ffffffffffffffffffffffffffffffffffffffff19166001600160a01b0392909216919091179055565b6002546001600160a01b031681565b6000546001600160a01b0316331461070e576040805162461bcd60e51b815260206004820152600a60248201526937b7363c9030b236b4b760b11b604482015290519081900360640190fd5b6001600160a01b038116610769576040805162461bcd60e51b815260206004820152601c60248201527f726563697069656e742073686f756c64206265206e6f6e2d7a65726f00000000604482015290519081900360640190fd5b816001600160a01b031663a9059cbb82846001600160a01b03166370a08231306040518263ffffffff1660e01b815260040180826001600160a01b0316815260200191505060206040518083038186803b1580156107c657600080fd5b505afa1580156107da573d6000803e3d6000fd5b505050506040513d60208110156107f057600080fd5b5051604080517fffffffff0000000000000000000000000000000000000000000000000000000060e086901b1681526001600160a01b03909316600484015260248301919091525160448083019260209291908290030181600087803b15801561085957600080fd5b505af115801561086d573d6000803e3d6000fd5b505050506040513d602081101561088357600080fd5b505161088e57600080fd5b5050565b6000546001600160a01b031633146108de576040805162461bcd60e51b815260206004820152600a60248201526937b7363c9030b236b4b760b11b604482015290519081900360640190fd5b6001600160a01b038116610939576040805162461bcd60e51b815260206004820152601b60248201527f5f61647669736f722073686f756c64206265206e6f6e2d7a65726f0000000000604482015290519081900360640190fd5b6001805473ffffffffffffffffffffffffffffffffffffffff19166001600160a01b0392909216919091179055565b6000546001600160a01b031633146109b4576040805162461bcd60e51b815260206004820152600a60248201526937b7363c9030b236b4b760b11b604482015290519081900360640190fd5b6001600160a01b038116610a0f576040805162461bcd60e51b815260206004820152601b60248201527f6e657741646d696e2073686f756c64206265206e6f6e2d7a65726f0000000000604482015290519081900360640190fd5b6000805473ffffffffffffffffffffffffffffffffffffffff19166001600160a01b0392909216919091179055565b6000806000839050600080826001600160a01b031663c4a7761e6040518163ffffffff1660e01b8152600401604080518083038186803b158015610a8157600080fd5b505afa158015610a95573d6000803e3d6000fd5b505050506040513d6040811015610aab57600080fd5b508051602091820151604080516316f0115b60e01b815290519295509093506000926001600160a01b038716926316f0115b926004808201939291829003018186803b158015610afa57600080fd5b505afa158015610b0e573d6000803e3d6000fd5b505050506040513d6020811015610b2457600080fd5b505160408051633850c7bd60e01b815290516001600160a01b0390921691633850c7bd9160048082019260e092909190829003018186803b158015610b6857600080fd5b505afa158015610b7c573d6000803e3d6000fd5b505050506040513d60e0811015610b9257600080fd5b5080516020918201516040805163fa08274360e01b81529051919850919350600092610c5e928592610c1b926001600160a01b038b169263fa0827439260048083019392829003018186803b158015610bea57600080fd5b505afa158015610bfe573d6000803e3d6000fd5b505050506040513d6020811015610c1457600080fd5b5051611573565b610c57886001600160a01b031663888a91346040518163ffffffff1660e01b815260040160206040518083038186803b158015610bea57600080fd5b87876118b2565b9050600080610ce584610ca3896001600160a01b031663fa0827436040518163ffffffff1660e01b815260040160206040518083038186803b158015610bea57600080fd5b610cdf8a6001600160a01b031663888a91346040518163ffffffff1660e01b815260040160206040518083038186803b158015610bea57600080fd5b86611976565b90925090506000610d196001600160a01b038616807801000000000000000000000000000000000000000000000000611a12565b905081860381848903021199505050505050505050915091565b6001546001600160a01b03163314610d81576040805162461bcd60e51b815260206004820152600c60248201526b37b7363c9030b23b34b9b7b960a11b604482015290519081900360640190fd5b876001600160a01b03166385919c5d888888888888886040518863ffffffff1660e01b8152600401808860020b81526020018760020b81526020018660020b81526020018560020b8152602001846001600160a01b0316815260200183600460200280838360005b83811015610e01578181015183820152602001610de9565b5050505090500182600460200280838360005b83811015610e2c578181015183820152602001610e14565b50505050905001975050505050505050600060405180830381600087803b158015610e5657600080fd5b505af1158015610e6a573d6000803e3d6000fd5b505050505050505050505050565b60015460009081906001600160a01b03163314610ecb576040805162461bcd60e51b815260206004820152600c60248201526b37b7363c9030b23b34b9b7b960a11b604482015290519081900360640190fd5b600080610ed786610a3e565b9092509050858261112b57806001600160a01b031663d0c93a7c6040518163ffffffff1660e01b815260040160206040518083038186803b158015610f1b57600080fd5b505afa158015610f2f573d6000803e3d6000fd5b505050506040513d6020811015610f4557600080fd5b5051604080516334324e9f60e21b815290516001600160a01b0384169163d0c93a7c916004808301926020929190829003018186803b158015610f8757600080fd5b505afa158015610f9b573d6000803e3d6000fd5b505050506040513d6020811015610fb157600080fd5b5051604080516334324e9f60e21b815290516001600160a01b0385169163d0c93a7c916004808301926020929190829003018186803b158015610ff357600080fd5b505afa158015611007573d6000803e3d6000fd5b505050506040513d602081101561101d57600080fd5b5051600290810b9085900b8161102f57fe5b05020393508160020b8460020b14156110ac57806001600160a01b031663d0c93a7c6040518163ffffffff1660e01b815260040160206040518083038186803b15801561107b57600080fd5b505afa15801561108f573d6000803e3d6000fd5b505050506040513d60208110156110a557600080fd5b5051909303925b600360149054906101000a900460020b816001600160a01b031663d0c93a7c6040518163ffffffff1660e01b815260040160206040518083038186803b1580156110f557600080fd5b505afa158015611109573d6000803e3d6000fd5b505050506040513d602081101561111f57600080fd5b50510284039450611371565b806001600160a01b031663d0c93a7c6040518163ffffffff1660e01b815260040160206040518083038186803b15801561116457600080fd5b505afa158015611178573d6000803e3d6000fd5b505050506040513d602081101561118e57600080fd5b5051604080516334324e9f60e21b815290516001600160a01b0384169163d0c93a7c916004808301926020929190829003018186803b1580156111d057600080fd5b505afa1580156111e4573d6000803e3d6000fd5b505050506040513d60208110156111fa57600080fd5b5051604080516334324e9f60e21b815290516001600160a01b0385169163d0c93a7c916004808301926020929190829003018186803b15801561123c57600080fd5b505afa158015611250573d6000803e3d6000fd5b505050506040513d602081101561126657600080fd5b5051600290810b9085900b8161127857fe5b05020194508160020b8560020b14156112f657806001600160a01b031663d0c93a7c6040518163ffffffff1660e01b815260040160206040518083038186803b1580156112c457600080fd5b505afa1580156112d8573d6000803e3d6000fd5b505050506040513d60208110156112ee57600080fd5b505194909401935b600360149054906101000a900460020b816001600160a01b031663d0c93a7c6040518163ffffffff1660e01b815260040160206040518083038186803b15801561133f57600080fd5b505afa158015611353573d6000803e3d6000fd5b505050506040513d602081101561136957600080fd5b505102850193505b611379611c31565b816001600160a01b03166385919c5d836001600160a01b031663fa0827436040518163ffffffff1660e01b815260040160206040518083038186803b1580156113c157600080fd5b505afa1580156113d5573d6000803e3d6000fd5b505050506040513d60208110156113eb57600080fd5b505160408051632222a44d60e21b815290516001600160a01b0387169163888a9134916004808301926020929190829003018186803b15801561142d57600080fd5b505afa158015611441573d6000803e3d6000fd5b505050506040513d602081101561145757600080fd5b81019080805190602001909291905050508989600260009054906101000a90046001600160a01b0316878e6040518863ffffffff1660e01b8152600401808860020b81526020018760020b81526020018660020b81526020018560020b8152602001846001600160a01b0316815260200183600460200280838360005b838110156114ec5781810151838201526020016114d4565b5050505090500182600460200280838360005b838110156115175781810151838201526020016114ff565b50505050905001975050505050505050600060405180830381600087803b15801561154157600080fd5b505af1158015611555573d6000803e3d6000fd5b50505050505050509250929050565b6000546001600160a01b031681565b60008060008360020b1261158a578260020b611592565b8260020b6000035b9050620d89e88111156115d0576040805162461bcd60e51b81526020600482015260016024820152601560fa1b604482015290519081900360640190fd5b6000600182166115f157700100000000000000000000000000000000611603565b6ffffcb933bd6fad37aa2d162d1a5940015b70ffffffffffffffffffffffffffffffffff1690506002821615611637576ffff97272373d413259a46990580e213a0260801c5b6004821615611656576ffff2e50f5f656932ef12357cf3c7fdcc0260801c5b6008821615611675576fffe5caca7e10e4e61c3624eaa0941cd00260801c5b6010821615611694576fffcb9843d60f6159c9db58835c9266440260801c5b60208216156116b3576fff973b41fa98c081472e6896dfb254c00260801c5b60408216156116d2576fff2ea16466c96a3843ec78b326b528610260801c5b60808216156116f1576ffe5dee046a99a2a811c461f1969c30530260801c5b610100821615611711576ffcbe86c7900a88aedcffc83b479aa3a40260801c5b610200821615611731576ff987a7253ac413176f2b074cf7815e540260801c5b610400821615611751576ff3392b0822b70005940c7a398e4b70f30260801c5b610800821615611771576fe7159475a2c29b7443b29c7fa6e889d90260801c5b611000821615611791576fd097f3bdfd2022b8845ad8f792aa58250260801c5b6120008216156117b1576fa9f746462d870fdf8a65dc1f90e061e50260801c5b6140008216156117d1576f70d869a156d2a1b890bb3df62baf32f70260801c5b6180008216156117f1576f31be135f97d08fd981231505542fcfa60260801c5b62010000821615611812576f09aa508b5b7a84e1c677de54f3e99bc90260801c5b62020000821615611832576e5d6af8dedb81196699c329225ee6040260801c5b62040000821615611851576d2216e584f5fa1ea926041bedfe980260801c5b6208000082161561186e576b048a170391f7dc42444e8fa20260801c5b60008460020b131561188957806000198161188557fe5b0490505b64010000000081061561189d5760016118a0565b60005b60ff16602082901c0192505050919050565b6000836001600160a01b0316856001600160a01b031611156118d2579293925b846001600160a01b0316866001600160a01b0316116118fd576118f6858585611ac2565b905061196d565b836001600160a01b0316866001600160a01b0316101561195f576000611924878686611ac2565b90506000611933878986611b25565b9050806001600160801b0316826001600160801b0316106119545780611956565b815b9250505061196d565b61196a858584611b25565b90505b95945050505050565b600080836001600160a01b0316856001600160a01b03161115611997579293925b846001600160a01b0316866001600160a01b0316116119c2576119bb858585611b6a565b9150611a09565b836001600160a01b0316866001600160a01b031610156119fb576119e7868585611b6a565b91506119f4858785611bd3565b9050611a09565b611a06858585611bd3565b90505b94509492505050565b6000808060001985870986860292508281109083900303905080611a485760008411611a3d57600080fd5b508290049050611abb565b808411611a5457600080fd5b6000848688096000868103871696879004966002600389028118808a02820302808a02820302808a02820302808a02820302808a02820302808a02909103029181900381900460010186841190950394909402919094039290920491909117919091029150505b9392505050565b6000826001600160a01b0316846001600160a01b03161115611ae2579192915b6000611b05856001600160a01b0316856001600160a01b0316600160601b611a12565b905061196d611b2084838888036001600160a01b0316611a12565b611c16565b6000826001600160a01b0316846001600160a01b03161115611b45579192915b611b62611b2083600160601b8787036001600160a01b0316611a12565b949350505050565b6000826001600160a01b0316846001600160a01b03161115611b8a579192915b836001600160a01b0316611bc3606060ff16846001600160801b0316901b8686036001600160a01b0316866001600160a01b0316611a12565b81611bca57fe5b04949350505050565b6000826001600160a01b0316846001600160a01b03161115611bf3579192915b611b62826001600160801b03168585036001600160a01b0316600160601b611a12565b806001600160801b0381168114611c2c57600080fd5b919050565b6040518060800160405280600490602082028036833750919291505056fea164736f6c6343000706000a",
  "linkReferences": {},
  "deployedLinkReferences": {}
}