{
  "_format": "hh-sol-artifact-1",
  "contractName": "BaluniV1Pool",
  "sourceName": "contracts/pools/BaluniV1Pool.sol",
  "abi": [
    {
      "inputs": [
        {
          "internalType": "address",
          "name": "target",
          "type": "address"
        }
      ],
      "name": "AddressEmptyCode",
      "type": "error"
    },
    {
      "inputs": [
        {
          "internalType": "address",
          "name": "implementation",
          "type": "address"
        }
      ],
      "name": "ERC1967InvalidImplementation",
      "type": "error"
    },
    {
      "inputs": [],
      "name": "ERC1967NonPayable",
      "type": "error"
    },
    {
      "inputs": [
        {
          "internalType": "address",
          "name": "spender",
          "type": "address"
        },
        {
          "internalType": "uint256",
          "name": "allowance",
          "type": "uint256"
        },
        {
          "internalType": "uint256",
          "name": "needed",
          "type": "uint256"
        }
      ],
      "name": "ERC20InsufficientAllowance",
      "type": "error"
    },
    {
      "inputs": [
        {
          "internalType": "address",
          "name": "sender",
          "type": "address"
        },
        {
          "internalType": "uint256",
          "name": "balance",
          "type": "uint256"
        },
        {
          "internalType": "uint256",
          "name": "needed",
          "type": "uint256"
        }
      ],
      "name": "ERC20InsufficientBalance",
      "type": "error"
    },
    {
      "inputs": [
        {
          "internalType": "address",
          "name": "approver",
          "type": "address"
        }
      ],
      "name": "ERC20InvalidApprover",
      "type": "error"
    },
    {
      "inputs": [
        {
          "internalType": "address",
          "name": "receiver",
          "type": "address"
        }
      ],
      "name": "ERC20InvalidReceiver",
      "type": "error"
    },
    {
      "inputs": [
        {
          "internalType": "address",
          "name": "sender",
          "type": "address"
        }
      ],
      "name": "ERC20InvalidSender",
      "type": "error"
    },
    {
      "inputs": [
        {
          "internalType": "address",
          "name": "spender",
          "type": "address"
        }
      ],
      "name": "ERC20InvalidSpender",
      "type": "error"
    },
    {
      "inputs": [],
      "name": "EnforcedPause",
      "type": "error"
    },
    {
      "inputs": [],
      "name": "ExpectedPause",
      "type": "error"
    },
    {
      "inputs": [],
      "name": "FailedInnerCall",
      "type": "error"
    },
    {
      "inputs": [],
      "name": "InvalidInitialization",
      "type": "error"
    },
    {
      "inputs": [],
      "name": "NotInitializing",
      "type": "error"
    },
    {
      "inputs": [
        {
          "internalType": "address",
          "name": "owner",
          "type": "address"
        }
      ],
      "name": "OwnableInvalidOwner",
      "type": "error"
    },
    {
      "inputs": [
        {
          "internalType": "address",
          "name": "account",
          "type": "address"
        }
      ],
      "name": "OwnableUnauthorizedAccount",
      "type": "error"
    },
    {
      "inputs": [],
      "name": "ReentrancyGuardReentrantCall",
      "type": "error"
    },
    {
      "inputs": [],
      "name": "UUPSUnauthorizedCallContext",
      "type": "error"
    },
    {
      "inputs": [
        {
          "internalType": "bytes32",
          "name": "slot",
          "type": "bytes32"
        }
      ],
      "name": "UUPSUnsupportedProxiableUUID",
      "type": "error"
    },
    {
      "anonymous": false,
      "inputs": [
        {
          "indexed": true,
          "internalType": "address",
          "name": "owner",
          "type": "address"
        },
        {
          "indexed": true,
          "internalType": "address",
          "name": "spender",
          "type": "address"
        },
        {
          "indexed": false,
          "internalType": "uint256",
          "name": "value",
          "type": "uint256"
        }
      ],
      "name": "Approval",
      "type": "event"
    },
    {
      "anonymous": false,
      "inputs": [
        {
          "indexed": true,
          "internalType": "address",
          "name": "user",
          "type": "address"
        },
        {
          "indexed": false,
          "internalType": "uint256",
          "name": "amount",
          "type": "uint256"
        }
      ],
      "name": "Deposit",
      "type": "event"
    },
    {
      "anonymous": false,
      "inputs": [
        {
          "indexed": false,
          "internalType": "uint64",
          "name": "version",
          "type": "uint64"
        }
      ],
      "name": "Initialized",
      "type": "event"
    },
    {
      "anonymous": false,
      "inputs": [
        {
          "indexed": true,
          "internalType": "address",
          "name": "previousOwner",
          "type": "address"
        },
        {
          "indexed": true,
          "internalType": "address",
          "name": "newOwner",
          "type": "address"
        }
      ],
      "name": "OwnershipTransferred",
      "type": "event"
    },
    {
      "anonymous": false,
      "inputs": [
        {
          "indexed": false,
          "internalType": "address",
          "name": "account",
          "type": "address"
        }
      ],
      "name": "Paused",
      "type": "event"
    },
    {
      "anonymous": false,
      "inputs": [
        {
          "indexed": true,
          "internalType": "address",
          "name": "user",
          "type": "address"
        },
        {
          "indexed": false,
          "internalType": "address[]",
          "name": "assets",
          "type": "address[]"
        }
      ],
      "name": "RebalancePerformed",
      "type": "event"
    },
    {
      "anonymous": false,
      "inputs": [
        {
          "indexed": true,
          "internalType": "address",
          "name": "user",
          "type": "address"
        },
        {
          "indexed": false,
          "internalType": "address",
          "name": "fromToken",
          "type": "address"
        },
        {
          "indexed": false,
          "internalType": "address",
          "name": "toToken",
          "type": "address"
        },
        {
          "indexed": false,
          "internalType": "uint256",
          "name": "amountIn",
          "type": "uint256"
        },
        {
          "indexed": false,
          "internalType": "uint256",
          "name": "amountOut",
          "type": "uint256"
        }
      ],
      "name": "Swap",
      "type": "event"
    },
    {
      "anonymous": false,
      "inputs": [
        {
          "indexed": true,
          "internalType": "address",
          "name": "from",
          "type": "address"
        },
        {
          "indexed": true,
          "internalType": "address",
          "name": "to",
          "type": "address"
        },
        {
          "indexed": false,
          "internalType": "uint256",
          "name": "value",
          "type": "uint256"
        }
      ],
      "name": "Transfer",
      "type": "event"
    },
    {
      "anonymous": false,
      "inputs": [
        {
          "indexed": false,
          "internalType": "address",
          "name": "account",
          "type": "address"
        }
      ],
      "name": "Unpaused",
      "type": "event"
    },
    {
      "anonymous": false,
      "inputs": [
        {
          "indexed": true,
          "internalType": "address",
          "name": "implementation",
          "type": "address"
        }
      ],
      "name": "Upgraded",
      "type": "event"
    },
    {
      "anonymous": false,
      "inputs": [
        {
          "indexed": true,
          "internalType": "address",
          "name": "user",
          "type": "address"
        },
        {
          "indexed": false,
          "internalType": "uint256[]",
          "name": "amountsToAdd",
          "type": "uint256[]"
        }
      ],
      "name": "WeightsRebalanced",
      "type": "event"
    },
    {
      "anonymous": false,
      "inputs": [
        {
          "indexed": true,
          "internalType": "address",
          "name": "user",
          "type": "address"
        },
        {
          "indexed": false,
          "internalType": "uint256",
          "name": "amount",
          "type": "uint256"
        }
      ],
      "name": "Withdraw",
      "type": "event"
    },
    {
      "inputs": [],
      "name": "ONE",
      "outputs": [
        {
          "internalType": "uint256",
          "name": "",
          "type": "uint256"
        }
      ],
      "stateMutability": "view",
      "type": "function"
    },
    {
      "inputs": [],
      "name": "UPGRADE_INTERFACE_VERSION",
      "outputs": [
        {
          "internalType": "string",
          "name": "",
          "type": "string"
        }
      ],
      "stateMutability": "view",
      "type": "function"
    },
    {
      "inputs": [
        {
          "internalType": "address",
          "name": "owner",
          "type": "address"
        },
        {
          "internalType": "address",
          "name": "spender",
          "type": "address"
        }
      ],
      "name": "allowance",
      "outputs": [
        {
          "internalType": "uint256",
          "name": "",
          "type": "uint256"
        }
      ],
      "stateMutability": "view",
      "type": "function"
    },
    {
      "inputs": [
        {
          "internalType": "address",
          "name": "spender",
          "type": "address"
        },
        {
          "internalType": "uint256",
          "name": "value",
          "type": "uint256"
        }
      ],
      "name": "approve",
      "outputs": [
        {
          "internalType": "bool",
          "name": "",
          "type": "bool"
        }
      ],
      "stateMutability": "nonpayable",
      "type": "function"
    },
    {
      "inputs": [
        {
          "internalType": "uint256",
          "name": "",
          "type": "uint256"
        }
      ],
      "name": "assetInfos",
      "outputs": [
        {
          "internalType": "address",
          "name": "asset",
          "type": "address"
        },
        {
          "internalType": "uint256",
          "name": "weight",
          "type": "uint256"
        },
        {
          "internalType": "uint256",
          "name": "slippage",
          "type": "uint256"
        },
        {
          "internalType": "uint256",
          "name": "reserve",
          "type": "uint256"
        }
      ],
      "stateMutability": "view",
      "type": "function"
    },
    {
      "inputs": [
        {
          "internalType": "uint256",
          "name": "assetIndex",
          "type": "uint256"
        }
      ],
      "name": "assetLiquidity",
      "outputs": [
        {
          "internalType": "uint256",
          "name": "",
          "type": "uint256"
        }
      ],
      "stateMutability": "view",
      "type": "function"
    },
    {
      "inputs": [
        {
          "internalType": "address",
          "name": "account",
          "type": "address"
        }
      ],
      "name": "balanceOf",
      "outputs": [
        {
          "internalType": "uint256",
          "name": "",
          "type": "uint256"
        }
      ],
      "stateMutability": "view",
      "type": "function"
    },
    {
      "inputs": [],
      "name": "baseAsset",
      "outputs": [
        {
          "internalType": "address",
          "name": "",
          "type": "address"
        }
      ],
      "stateMutability": "view",
      "type": "function"
    },
    {
      "inputs": [
        {
          "internalType": "uint256",
          "name": "share",
          "type": "uint256"
        }
      ],
      "name": "calculateAssetShare",
      "outputs": [
        {
          "internalType": "uint256[]",
          "name": "",
          "type": "uint256[]"
        }
      ],
      "stateMutability": "view",
      "type": "function"
    },
    {
      "inputs": [],
      "name": "decimals",
      "outputs": [
        {
          "internalType": "uint8",
          "name": "",
          "type": "uint8"
        }
      ],
      "stateMutability": "view",
      "type": "function"
    },
    {
      "inputs": [
        {
          "internalType": "address",
          "name": "to",
          "type": "address"
        },
        {
          "internalType": "uint256[]",
          "name": "amounts",
          "type": "uint256[]"
        },
        {
          "internalType": "uint256",
          "name": "deadline",
          "type": "uint256"
        }
      ],
      "name": "deposit",
      "outputs": [
        {
          "internalType": "uint256",
          "name": "",
          "type": "uint256"
        }
      ],
      "stateMutability": "nonpayable",
      "type": "function"
    },
    {
      "inputs": [
        {
          "internalType": "address",
          "name": "fromToken",
          "type": "address"
        },
        {
          "internalType": "address",
          "name": "toToken",
          "type": "address"
        },
        {
          "internalType": "uint256",
          "name": "amount",
          "type": "uint256"
        }
      ],
      "name": "getAmountOut",
      "outputs": [
        {
          "internalType": "uint256",
          "name": "",
          "type": "uint256"
        }
      ],
      "stateMutability": "view",
      "type": "function"
    },
    {
      "inputs": [
        {
          "internalType": "address",
          "name": "asset",
          "type": "address"
        }
      ],
      "name": "getAssetReserve",
      "outputs": [
        {
          "internalType": "uint256",
          "name": "",
          "type": "uint256"
        }
      ],
      "stateMutability": "view",
      "type": "function"
    },
    {
      "inputs": [],
      "name": "getAssets",
      "outputs": [
        {
          "internalType": "address[]",
          "name": "",
          "type": "address[]"
        }
      ],
      "stateMutability": "view",
      "type": "function"
    },
    {
      "inputs": [
        {
          "internalType": "address",
          "name": "token",
          "type": "address"
        }
      ],
      "name": "getDeviationForToken",
      "outputs": [
        {
          "internalType": "uint256",
          "name": "",
          "type": "uint256"
        }
      ],
      "stateMutability": "view",
      "type": "function"
    },
    {
      "inputs": [],
      "name": "getDeviations",
      "outputs": [
        {
          "internalType": "bool[]",
          "name": "directions",
          "type": "bool[]"
        },
        {
          "internalType": "uint256[]",
          "name": "deviations",
          "type": "uint256[]"
        }
      ],
      "stateMutability": "view",
      "type": "function"
    },
    {
      "inputs": [],
      "name": "getReserves",
      "outputs": [
        {
          "internalType": "uint256[]",
          "name": "",
          "type": "uint256[]"
        }
      ],
      "stateMutability": "view",
      "type": "function"
    },
    {
      "inputs": [
        {
          "internalType": "address",
          "name": "token",
          "type": "address"
        }
      ],
      "name": "getSlippage",
      "outputs": [
        {
          "internalType": "uint256",
          "name": "",
          "type": "uint256"
        }
      ],
      "stateMutability": "view",
      "type": "function"
    },
    {
      "inputs": [],
      "name": "getSlippageParams",
      "outputs": [
        {
          "internalType": "uint256[]",
          "name": "",
          "type": "uint256[]"
        }
      ],
      "stateMutability": "view",
      "type": "function"
    },
    {
      "inputs": [
        {
          "internalType": "address",
          "name": "token",
          "type": "address"
        }
      ],
      "name": "getTokenWeight",
      "outputs": [
        {
          "internalType": "uint256",
          "name": "",
          "type": "uint256"
        }
      ],
      "stateMutability": "view",
      "type": "function"
    },
    {
      "inputs": [],
      "name": "getWeights",
      "outputs": [
        {
          "internalType": "uint256[]",
          "name": "",
          "type": "uint256[]"
        }
      ],
      "stateMutability": "view",
      "type": "function"
    },
    {
      "inputs": [
        {
          "internalType": "string",
          "name": "_name",
          "type": "string"
        },
        {
          "internalType": "string",
          "name": "_symbol",
          "type": "string"
        },
        {
          "internalType": "address[]",
          "name": "_assets",
          "type": "address[]"
        },
        {
          "internalType": "uint256[]",
          "name": "_weights",
          "type": "uint256[]"
        },
        {
          "internalType": "address",
          "name": "_registry",
          "type": "address"
        }
      ],
      "name": "initialize",
      "outputs": [],
      "stateMutability": "nonpayable",
      "type": "function"
    },
    {
      "inputs": [],
      "name": "isRebalanceNeeded",
      "outputs": [
        {
          "internalType": "bool",
          "name": "",
          "type": "bool"
        }
      ],
      "stateMutability": "view",
      "type": "function"
    },
    {
      "inputs": [],
      "name": "liquidity",
      "outputs": [
        {
          "internalType": "uint256",
          "name": "",
          "type": "uint256"
        }
      ],
      "stateMutability": "view",
      "type": "function"
    },
    {
      "inputs": [],
      "name": "name",
      "outputs": [
        {
          "internalType": "string",
          "name": "",
          "type": "string"
        }
      ],
      "stateMutability": "view",
      "type": "function"
    },
    {
      "inputs": [],
      "name": "owner",
      "outputs": [
        {
          "internalType": "address",
          "name": "",
          "type": "address"
        }
      ],
      "stateMutability": "view",
      "type": "function"
    },
    {
      "inputs": [],
      "name": "pause",
      "outputs": [],
      "stateMutability": "nonpayable",
      "type": "function"
    },
    {
      "inputs": [],
      "name": "paused",
      "outputs": [
        {
          "internalType": "bool",
          "name": "",
          "type": "bool"
        }
      ],
      "stateMutability": "view",
      "type": "function"
    },
    {
      "inputs": [],
      "name": "proxiableUUID",
      "outputs": [
        {
          "internalType": "bytes32",
          "name": "",
          "type": "bytes32"
        }
      ],
      "stateMutability": "view",
      "type": "function"
    },
    {
      "inputs": [
        {
          "internalType": "address",
          "name": "fromToken",
          "type": "address"
        },
        {
          "internalType": "address",
          "name": "toToken",
          "type": "address"
        },
        {
          "internalType": "uint256",
          "name": "amount",
          "type": "uint256"
        }
      ],
      "name": "quotePotentialSwap",
      "outputs": [
        {
          "internalType": "uint256",
          "name": "",
          "type": "uint256"
        }
      ],
      "stateMutability": "view",
      "type": "function"
    },
    {
      "inputs": [],
      "name": "rebalance",
      "outputs": [],
      "stateMutability": "nonpayable",
      "type": "function"
    },
    {
      "inputs": [
        {
          "internalType": "address",
          "name": "receiver",
          "type": "address"
        }
      ],
      "name": "rebalanceAndDeposit",
      "outputs": [
        {
          "internalType": "uint256[]",
          "name": "",
          "type": "uint256[]"
        }
      ],
      "stateMutability": "nonpayable",
      "type": "function"
    },
    {
      "inputs": [],
      "name": "registry",
      "outputs": [
        {
          "internalType": "contract IBaluniV1Registry",
          "name": "",
          "type": "address"
        }
      ],
      "stateMutability": "view",
      "type": "function"
    },
    {
      "inputs": [
        {
          "internalType": "string",
          "name": "_name",
          "type": "string"
        },
        {
          "internalType": "string",
          "name": "_symbol",
          "type": "string"
        },
        {
          "internalType": "address[]",
          "name": "_assets",
          "type": "address[]"
        },
        {
          "internalType": "uint256[]",
          "name": "_weights",
          "type": "uint256[]"
        },
        {
          "internalType": "address",
          "name": "_registry",
          "type": "address"
        },
        {
          "internalType": "uint64",
          "name": "_version",
          "type": "uint64"
        }
      ],
      "name": "reinitialize",
      "outputs": [],
      "stateMutability": "nonpayable",
      "type": "function"
    },
    {
      "inputs": [],
      "name": "renounceOwnership",
      "outputs": [],
      "stateMutability": "nonpayable",
      "type": "function"
    },
    {
      "inputs": [
        {
          "internalType": "address",
          "name": "",
          "type": "address"
        }
      ],
      "name": "reserves",
      "outputs": [
        {
          "internalType": "uint256",
          "name": "",
          "type": "uint256"
        }
      ],
      "stateMutability": "view",
      "type": "function"
    },
    {
      "inputs": [
        {
          "internalType": "address",
          "name": "fromToken",
          "type": "address"
        },
        {
          "internalType": "address",
          "name": "toToken",
          "type": "address"
        },
        {
          "internalType": "uint256",
          "name": "amount",
          "type": "uint256"
        },
        {
          "internalType": "uint256",
          "name": "minAmount",
          "type": "uint256"
        },
        {
          "internalType": "address",
          "name": "receiver",
          "type": "address"
        },
        {
          "internalType": "uint256",
          "name": "deadline",
          "type": "uint256"
        }
      ],
      "name": "swap",
      "outputs": [
        {
          "internalType": "uint256",
          "name": "amountOut",
          "type": "uint256"
        },
        {
          "internalType": "uint256",
          "name": "fee",
          "type": "uint256"
        }
      ],
      "stateMutability": "nonpayable",
      "type": "function"
    },
    {
      "inputs": [],
      "name": "symbol",
      "outputs": [
        {
          "internalType": "string",
          "name": "",
          "type": "string"
        }
      ],
      "stateMutability": "view",
      "type": "function"
    },
    {
      "inputs": [],
      "name": "totalSupply",
      "outputs": [
        {
          "internalType": "uint256",
          "name": "",
          "type": "uint256"
        }
      ],
      "stateMutability": "view",
      "type": "function"
    },
    {
      "inputs": [],
      "name": "totalValuation",
      "outputs": [
        {
          "internalType": "uint256",
          "name": "totalVal",
          "type": "uint256"
        },
        {
          "internalType": "uint256[]",
          "name": "valuations",
          "type": "uint256[]"
        }
      ],
      "stateMutability": "view",
      "type": "function"
    },
    {
      "inputs": [
        {
          "internalType": "address",
          "name": "to",
          "type": "address"
        },
        {
          "internalType": "uint256",
          "name": "value",
          "type": "uint256"
        }
      ],
      "name": "transfer",
      "outputs": [
        {
          "internalType": "bool",
          "name": "",
          "type": "bool"
        }
      ],
      "stateMutability": "nonpayable",
      "type": "function"
    },
    {
      "inputs": [
        {
          "internalType": "address",
          "name": "from",
          "type": "address"
        },
        {
          "internalType": "address",
          "name": "to",
          "type": "address"
        },
        {
          "internalType": "uint256",
          "name": "value",
          "type": "uint256"
        }
      ],
      "name": "transferFrom",
      "outputs": [
        {
          "internalType": "bool",
          "name": "",
          "type": "bool"
        }
      ],
      "stateMutability": "nonpayable",
      "type": "function"
    },
    {
      "inputs": [
        {
          "internalType": "address",
          "name": "newOwner",
          "type": "address"
        }
      ],
      "name": "transferOwnership",
      "outputs": [],
      "stateMutability": "nonpayable",
      "type": "function"
    },
    {
      "inputs": [],
      "name": "unitPrice",
      "outputs": [
        {
          "internalType": "uint256",
          "name": "",
          "type": "uint256"
        }
      ],
      "stateMutability": "view",
      "type": "function"
    },
    {
      "inputs": [],
      "name": "unpause",
      "outputs": [],
      "stateMutability": "nonpayable",
      "type": "function"
    },
    {
      "inputs": [
        {
          "internalType": "address",
          "name": "newImplementation",
          "type": "address"
        },
        {
          "internalType": "bytes",
          "name": "data",
          "type": "bytes"
        }
      ],
      "name": "upgradeToAndCall",
      "outputs": [],
      "stateMutability": "payable",
      "type": "function"
    },
    {
      "inputs": [
        {
          "internalType": "uint256",
          "name": "share",
          "type": "uint256"
        },
        {
          "internalType": "address",
          "name": "to",
          "type": "address"
        },
        {
          "internalType": "uint256",
          "name": "deadline",
          "type": "uint256"
        }
      ],
      "name": "withdraw",
      "outputs": [
        {
          "internalType": "uint256",
          "name": "",
          "type": "uint256"
        }
      ],
      "stateMutability": "nonpayable",
      "type": "function"
    }
  ],
  "bytecode": "0x60a06040523461003e5761001161004d565b610019610043565b6182e36101028239608051818181616758015281816167c4015261698d01526182e390f35b610049565b60405190565b5f80fd5b610055610057565b565b61005f610061565b565b61006961006b565b565b610073610075565b565b61007d61007f565b565b610087610089565b565b610091610093565b565b61009b61009d565b565b6100a56100a7565b565b6100af6100f3565b565b60018060a01b031690565b90565b6100d36100ce6100d8926100b1565b6100bc565b6100b1565b90565b6100e4906100bf565b90565b6100f0906100db565b90565b6100fc306100e7565b60805256fe60806040526004361015610013575b6119c2565b61001d5f3561030c565b806306fdde03146103075780630902f1ac14610302578063095ea7b3146102fd57806312899068146102f857806318160ddd146102f35780631a686502146102ee57806322acb867146102e957806323b872dd146102e4578063250aa683146102df578063295b9300146102da578063313ce567146102d557806334de9b8d146102d05780633f4ba83a146102cb57806343c2e2f5146102c65780634aa06652146102c15780634f1ef286146102bc57806352d1902d146102b75780635c975abb146102b257806367e4ac2c146102ad57806370a08231146102a8578063715018a6146102a35780637b1039991461029e5780637d7c2a1c146102995780637ff1c179146102945780638456cb591461028f57806389b3179b1461028a5780638a77c8dc146102855780638da5cb5b146102805780638de30f301461027b57806395d89b41146102765780639908fc8b14610271578063a9059cbb1461026c578063ad3cb1cc14610267578063b2b55d7014610262578063b3bf9d321461025d578063b7110e1314610258578063c2ee3a0814610253578063cdf456e11461024e578063cf8fa76414610249578063d14ef46d14610244578063d66bd5241461023f578063dd62ed3e1461023a578063e63697c814610235578063e64ebdd214610230578063e73faa2d1461022b578063f2fde38b146102265763fb33a6c00361000e57611988565b61186b565b611836565b611801565b6117cb565b61175b565b6116f9565b611685565b61152d565b6114da565b611465565b6113f7565b61130f565b611289565b611254565b6111a6565b611169565b6110ad565b611078565b611043565b610fec565b610fb7565b610f84565b610f4f565b610f1c565b610ee7565b610e17565b610de2565b610dad565b610cd9565b610ca4565b610c55565b610b62565b610b2c565b610af9565b610ac2565b6107ce565b610770565b610715565b6106df565b610670565b61063b565b610606565b6105d1565b61055b565b610471565b61039a565b60e01c90565b60405190565b5f80fd5b5f80fd5b5f91031261032a57565b61031c565b5190565b60209181520190565b90825f9392825e0152565b601f801991011690565b61037061037960209361037e936103678161032f565b93848093610333565b9586910161033c565b610347565b0190565b6103979160208201915f818403910152610351565b90565b346103ca576103aa366004610320565b6103c66103b5611ae2565b6103bd610312565b91829182610382565b0390f35b610318565b5190565b60209181520190565b60200190565b90565b6103ee906103e2565b9052565b906103ff816020936103e5565b0190565b60200190565b90610426610420610419846103cf565b80936103d3565b926103dc565b905f5b8181106104365750505090565b90919261044f61044960019286516103f2565b94610403565b9101919091610429565b61046e9160208201915f818403910152610409565b90565b346104a157610481366004610320565b61049d61048c611c1c565b610494610312565b91829182610459565b0390f35b610318565b5f80fd5b60018060a01b031690565b6104be906104aa565b90565b6104ca816104b5565b036104d157565b5f80fd5b905035906104e2826104c1565b565b6104ed816103e2565b036104f457565b5f80fd5b90503590610505826104e4565b565b919060408382031261052f578061052361052c925f86016104d5565b936020016104f8565b90565b61031c565b151590565b61054290610534565b9052565b9190610559905f60208501940190610539565b565b3461058c57610588610577610571366004610507565b90611d31565b61057f610312565b91829182610546565b0390f35b610318565b906020828203126105aa576105a7915f016104d5565b90565b61031c565b6105b8906103e2565b9052565b91906105cf905f602085019401906105af565b565b34610601576105fd6105ec6105e7366004610591565b611d57565b6105f4610312565b918291826105bc565b0390f35b610318565b3461063657610616366004610320565b610632610621611def565b610629610312565b918291826105bc565b0390f35b610318565b3461066b5761064b366004610320565b610667610656611e0e565b61065e610312565b918291826105bc565b0390f35b610318565b346106a057610680366004610320565b61069c61068b611e23565b610693610312565b91829182610459565b0390f35b610318565b90916060828403126106da576106d76106c0845f85016104d5565b936106ce81602086016104d5565b936040016104f8565b90565b61031c565b346107105761070c6106fb6106f53660046106a5565b91611ea6565b610703610312565b91829182610546565b0390f35b610318565b346107455761074161073061072b366004610591565b611ed5565b610738610312565b918291826105bc565b0390f35b610318565b9161076d9261076060408201935f8301906105af565b6020818403910152610409565b90565b346107a157610780366004610320565b610788611f6d565b9061079d610794610312565b9283928361074a565b0390f35b610318565b60ff1690565b6107b5906107a6565b9052565b91906107cc905f602085019401906107ac565b565b346107fe576107de366004610320565b6107fa6107e9611fb0565b6107f1610312565b918291826107b9565b0390f35b610318565b5f80fd5b5f80fd5b634e487b7160e01b5f52604160045260245ffd5b9061082990610347565b810190811060018060401b0382111761084157604052565b61080b565b90610859610852610312565b928361081f565b565b60018060401b03811161087757610873602091610347565b0190565b61080b565b90825f939282370152565b9092919261089c6108978261085b565b610846565b938185526020850190828401116108b8576108b69261087c565b565b610807565b9080601f830112156108db578160206108d893359101610887565b90565b610803565b60018060401b0381116108f65760208091020190565b61080b565b5f80fd5b9092919261091461090f826108e0565b610846565b938185526020808601920283019281841161095157915b8383106109385750505050565b6020809161094684866104d5565b81520192019161092b565b6108fb565b9080601f8301121561097457816020610971933591016108ff565b90565b610803565b60018060401b03811161098f5760208091020190565b61080b565b909291926109a96109a482610979565b610846565b93818552602080860192028301928184116109e657915b8383106109cd5750505050565b602080916109db84866104f8565b8152019201916109c0565b6108fb565b9080601f83011215610a0957816020610a0693359101610994565b90565b610803565b919060a083820312610ab8575f83013560018060401b038111610ab35781610a379185016108bd565b92602081013560018060401b038111610aae5782610a569183016108bd565b92604082013560018060401b038111610aa95783610a75918401610956565b9260608301359060018060401b038211610aa457610a9881610aa19386016109eb565b936080016104d5565b90565b6104a6565b6104a6565b6104a6565b6104a6565b61031c565b5f0190565b34610af457610ade610ad5366004610a0e565b939290926127dd565b610ae6610312565b80610af081610abd565b0390f35b610318565b34610b2757610b09366004610320565b610b11612808565b610b19610312565b80610b2381610abd565b0390f35b610318565b34610b5d57610b59610b48610b423660046106a5565b916128a2565b610b50610312565b918291826105bc565b0390f35b610318565b34610b9357610b8f610b7e610b783660046106a5565b91612a6d565b610b86610312565b918291826105bc565b0390f35b610318565b60018060401b038111610bb457610bb0602091610347565b0190565b61080b565b90929192610bce610bc982610b98565b610846565b93818552602085019082840111610bea57610be89261087c565b565b610807565b9080601f83011215610c0d57816020610c0a93359101610bb9565b90565b610803565b919091604081840312610c5057610c2b835f83016104d5565b92602082013560018060401b038111610c4b57610c489201610bef565b90565b6104a6565b61031c565b610c69610c63366004610c12565b90612c55565b610c71610312565b80610c7b81610abd565b0390f35b90565b610c8b90610c7f565b9052565b9190610ca2905f60208501940190610c82565b565b34610cd457610cb4366004610320565b610cd0610cbf612cd0565b610cc7610312565b91829182610c8f565b0390f35b610318565b34610d0957610ce9366004610320565b610d05610cf4612d04565b610cfc610312565b91829182610546565b0390f35b610318565b5190565b60209181520190565b60200190565b610d2a906104b5565b9052565b90610d3b81602093610d21565b0190565b60200190565b90610d62610d5c610d5584610d0e565b8093610d12565b92610d1b565b905f5b818110610d725750505090565b909192610d8b610d856001928651610d2e565b94610d3f565b9101919091610d65565b610daa9160208201915f818403910152610d45565b90565b34610ddd57610dbd366004610320565b610dd9610dc8612d98565b610dd0610312565b91829182610d95565b0390f35b610318565b34610e1257610e0e610dfd610df8366004610591565b612e1a565b610e05610312565b918291826105bc565b0390f35b610318565b34610e4557610e27366004610320565b610e2f612e66565b610e37610312565b80610e4181610abd565b0390f35b610318565b1c90565b60018060a01b031690565b610e69906008610e6e9302610e4a565b610e4e565b90565b90610e7c9154610e59565b90565b610e8b60045f90610e71565b90565b90565b610ea5610ea0610eaa926104aa565b610e8e565b6104aa565b90565b610eb690610e91565b90565b610ec290610ead565b90565b610ece90610eb9565b9052565b9190610ee5905f60208501940190610ec5565b565b34610f1757610ef7366004610320565b610f13610f02610e7f565b610f0a610312565b91829182610ed2565b0390f35b610318565b34610f4a57610f2c366004610320565b610f34612ef2565b610f3c610312565b80610f4681610abd565b0390f35b610318565b34610f7f57610f5f366004610320565b610f7b610f6a612f0c565b610f72610312565b91829182610459565b0390f35b610318565b34610fb257610f94366004610320565b610f9c612fab565b610fa4610312565b80610fae81610abd565b0390f35b610318565b34610fe757610fe3610fd2610fcd366004610591565b612fb5565b610fda610312565b918291826105bc565b0390f35b610318565b3461101c57610ffc366004610320565b611018611007613080565b61100f610312565b91829182610546565b0390f35b610318565b61102a906104b5565b9052565b9190611041905f60208501940190611021565b565b3461107357611053366004610320565b61106f61105e6131af565b611066610312565b9182918261102e565b0390f35b610318565b346110a8576110a461109361108e366004610591565b61320e565b61109b610312565b91829182610459565b0390f35b610318565b346110dd576110bd366004610320565b6110d96110c8613423565b6110d0610312565b91829182610382565b0390f35b610318565b909160c082840312611141576110fa835f84016104d5565b9261110881602085016104d5565b9261111682604083016104f8565b9261113e61112784606085016104f8565b9361113581608086016104d5565b9360a0016104f8565b90565b61031c565b91602061116792949361116060408201965f8301906105af565b01906105af565b565b346111a15761118861117c3660046110e2565b94939093929192613c98565b9061119d611194610312565b92839283611146565b0390f35b610318565b346111d7576111d36111c26111bc366004610507565b90613cbb565b6111ca610312565b91829182610546565b0390f35b610318565b906111ee6111e98361085b565b610846565b918252565b5f7f352e302e30000000000000000000000000000000000000000000000000000000910152565b61122460056111dc565b90611231602083016111f3565b565b61123b61121a565b90565b611246611233565b90565b61125161123e565b90565b3461128457611264366004610320565b61128061126f611249565b611277610312565b91829182610382565b0390f35b610318565b346112b9576112b56112a461129f366004610591565b613cdd565b6112ac610312565b918291826105bc565b0390f35b610318565b909160608284031261130a576112d6835f84016104d5565b9260208301359060018060401b038211611305576112f9816113029386016109eb565b936040016104f8565b90565b6104a6565b61031c565b346113405761133c61132b6113253660046112be565b916144e9565b611333610312565b918291826105bc565b0390f35b610318565b5190565b60209181520190565b60200190565b61136190610534565b9052565b9061137281602093611358565b0190565b60200190565b9061139961139361138c84611345565b8093611349565b92611352565b905f5b8181106113a95750505090565b9091926113c26113bc6001928651611365565b94611376565b910191909161139c565b90916113e66113f49360408401908482035f86015261137c565b916020818403910152610409565b90565b3461142857611407366004610320565b61140f614570565b9061142461141b610312565b928392836113cc565b0390f35b610318565b90565b6114409060086114459302610e4a565b61142d565b90565b906114539154611430565b90565b61146260015f90611448565b90565b3461149557611475366004610320565b611491611480611456565b611488610312565b918291826105bc565b0390f35b610318565b60018060a01b031690565b6114b59060086114ba9302610e4a565b61149a565b90565b906114c891546114a5565b90565b6114d760025f906114bd565b90565b3461150a576114ea366004610320565b6115066114f56114cb565b6114fd610312565b9182918261102e565b0390f35b610318565b9060208282031261152857611525915f016104f8565b90565b61031c565b3461155d5761155961154861154336600461150f565b614738565b611550610312565b918291826105bc565b0390f35b610318565b634e487b7160e01b5f52603260045260245ffd5b5490565b5f5260205f2090565b61158c81611576565b8210156115a65761159e60049161157a565b910201905f90565b611562565b5f1c90565b6115bc6115c1916115ab565b61149a565b90565b6115ce90546115b0565b90565b6115dd6115e2916115ab565b61142d565b90565b6115ef90546115d1565b90565b5f906115fd82611576565b8110156116435761160d91611583565b509061161a5f83016115c4565b91611627600182016115e5565b916116406003611639600285016115e5565b93016115e5565b90565b5f80fd5b61167c61168394611672606094989795611668608086019a5f870190611021565b60208501906105af565b60408301906105af565b01906105af565b565b346116b9576116b56116a061169b36600461150f565b6115f2565b906116ac949294610312565b94859485611647565b0390f35b610318565b6116c790610ead565b90565b906116d4906116be565b5f5260205260405f2090565b6116f6906116f16005915f926116ca565b611448565b90565b346117295761172561171461170f366004610591565b6116e0565b61171c610312565b918291826105bc565b0390f35b610318565b9190604083820312611756578061174a611753925f86016104d5565b936020016104d5565b90565b61031c565b3461178c5761178861177761177136600461172e565b90614799565b61177f610312565b918291826105bc565b0390f35b610318565b90916060828403126117c6576117c36117ac845f85016104f8565b936117ba81602086016104d5565b936040016104f8565b90565b61031c565b346117fc576117f86117e76117e1366004611791565b91615350565b6117ef610312565b918291826105bc565b0390f35b610318565b346118315761182d61181c61181736600461150f565b615366565b611824610312565b91829182610459565b0390f35b610318565b3461186657611846366004610320565b611862611851615581565b611859610312565b918291826105bc565b0390f35b610318565b346118995761188361187e366004610591565b61572b565b61188b610312565b8061189581610abd565b0390f35b610318565b60018060401b031690565b6118b28161189e565b036118b957565b5f80fd5b905035906118ca826118a9565b565b909160c082840312611983575f82013560018060401b03811161197e57836118f59184016108bd565b92602083013560018060401b03811161197957816119149185016108bd565b92604081013560018060401b0381116119745782611933918301610956565b92606082013560018060401b03811161196f576119558461196c9285016109eb565b9361196381608086016104d5565b9360a0016118bd565b90565b6104a6565b6104a6565b6104a6565b6104a6565b61031c565b346119bd576119a761199b3660046118cc565b949390939291926159fa565b6119af610312565b806119b981610abd565b0390f35b610318565b5f80fd5b606090565b634e487b7160e01b5f52602260045260245ffd5b90600160028304921680156119ff575b60208310146119fa57565b6119cb565b91607f16916119ef565b60209181520190565b5f5260205f2090565b905f9291805490611a35611a2e836119df565b8094611a09565b916001811690815f14611a8c5750600114611a50575b505050565b611a5d9192939450611a12565b915f925b818410611a7457505001905f8080611a4b565b60018160209295939554848601520191019290611a61565b92949550505060ff19168252151560200201905f8080611a4b565b90611ab191611a1b565b90565b90611ad4611acd92611ac4610312565b93848092611aa7565b038361081f565b565b611adf90611ab4565b90565b611aea6119c6565b50611afe6003611af8615a0a565b01611ad6565b90565b606090565b90611b18611b1383610979565b610846565b918252565b369037565b90611b47611b2f83611b06565b92602080611b3d8693610979565b9201910390611b1d565b565b90565b611b60611b5b611b6592611b49565b610e8e565b6103e2565b90565b6001611b7491016103e2565b90565b611b8090610e91565b90565b611b8c90611b77565b90565b611b9890610ead565b90565b611ba490610ead565b90565b5f80fd5b60e01b90565b90505190611bbe826104e4565b565b90602082820312611bd957611bd6915f01611bb1565b90565b61031c565b611be6610312565b3d5f823e3d90fd5b90611bf8826103cf565b811015611c09576020809102010190565b611562565b90611c18906103e2565b9052565b611c24611b01565b50611c36611c315f611576565b611b22565b90611c405f611b4c565b5b80611c5c611c56611c515f611576565b6103e2565b916103e2565b1015611d2a57611cc0906020611c8e611c89611c845f611c7d818790611583565b50016115c4565b611b83565b611b8f565b6370a0823190611cb5611ca030611b9b565b92611ca9610312565b96879485938493611bab565b83526004830161102e565b03915afa918215611d2557611cf292611ced915f91611cf7575b50611ce88691849092611bee565b611c0e565b611b68565b611c41565b611d18915060203d8111611d1e575b611d10818361081f565b810190611bc0565b5f611cda565b503d611d06565b611bde565b50565b5f90565b611d4e91611d3d611d2d565b50611d46615a2e565b919091615a3b565b600190565b5f90565b611d5f611d53565b50611d695f611b4c565b5b80611d85611d7f611d7a5f611576565b6103e2565b916103e2565b1015611de157611da15f611d9a818490611583565b50016115c4565b611db3611dad846104b5565b916104b5565b14611dc657611dc190611b68565b611d6a565b611dde9150611dd76002915f611583565b50016115e5565b90565b5050611dec5f611b4c565b90565b611df7611d53565b50611e0b6002611e05615a0a565b016115e5565b90565b611e16611d53565b50611e1f615a4b565b5090565b611e2b611b01565b50611e3d611e385f611576565b611b22565b611e465f611b4c565b5b80611e62611e5c611e575f611576565b6103e2565b916103e2565b1015611ea257611e9d90611e98611e866001611e7f5f8590611583565b50016115e5565b611e938591849092611bee565b611c0e565b611b68565b611e47565b5090565b91611ed092611eb3611d2d565b50611ec8611ebf615a2e565b82908491615bae565b919091615c41565b600190565b611edd611d53565b50611ee75f611b4c565b5b80611f03611efd611ef85f611576565b6103e2565b916103e2565b1015611f5f57611f1f5f611f18818490611583565b50016115c4565b611f31611f2b846104b5565b916104b5565b14611f4457611f3f90611b68565b611ee8565b611f5c9150611f556001915f611583565b50016115e5565b90565b5050611f6a5f611b4c565b90565b611f75611d53565b50611f7e611b01565b50611f87615a4b565b91909190565b5f90565b90565b611fa8611fa3611fad92611f91565b610e8e565b6107a6565b90565b611fb8611f8d565b50611fc36012611f94565b90565b60401c90565b60ff1690565b611fde611fe391611fc6565b611fcc565b90565b611ff09054611fd2565b90565b60018060401b031690565b61200a61200f916115ab565b611ff3565b90565b61201c9054611ffe565b90565b61203361202e61203892611b49565b610e8e565b61189e565b90565b90565b61205261204d6120579261203b565b610e8e565b61189e565b90565b61206390610ead565b90565b5f1b90565b9061207c60018060401b0391612066565b9181191691161790565b61209a61209561209f9261189e565b610e8e565b61189e565b90565b90565b906120ba6120b56120c192612086565b6120a2565b825461206b565b9055565b60401b90565b906120da60ff60401b916120c5565b9181191691161790565b6120ed90610534565b90565b90565b9061210861210361210f926120e4565b6120f0565b82546120cb565b9055565b61211c9061203e565b9052565b9190612133905f60208501940190612113565b565b91939092612141615cec565b946121566121505f8801611fe6565b15610534565b946121625f8801612012565b8061217561216f5f61201f565b9161189e565b1480612296575b9061219061218a600161203e565b9161189e565b148061226e575b6121a2909115610534565b908161225d575b5061223a576121d2946121c76121bf600161203e565b5f8a016120a5565b86612228575b612616565b6121da575b50565b6121e7905f8091016120f3565b600161221f7fc7f505b2f371ae2175ee4913f4499e1f2633a7b5936321eed1cdaeb6115181d291612216610312565b91829182612120565b0390a15f6121d7565b61223560015f8a016120f3565b6121cd565b612242610312565b63f92ee8a960e01b81528061225960048201610abd565b0390fd5b612268915015610534565b5f6121a9565b506121a261227b3061205a565b3b61228e6122885f611b4c565b916103e2565b149050612197565b508661217c565b6122a690610e91565b90565b6122b29061229d565b90565b906122c660018060a01b0391612066565b9181191691161790565b6122d99061229d565b90565b90565b906122f46122ef6122fb926122d0565b6122dc565b82546122b5565b9055565b90565b61231661231161231b926122ff565b610e8e565b6103e2565b90565b9061232a5f1991612066565b9181191691161790565b61234861234361234d926103e2565b610e8e565b6103e2565b90565b90565b9061236861236361236f92612334565b612350565b825461231e565b9055565b61237f612384916115ab565b610e4e565b90565b6123919054612373565b90565b905051906123a1826104c1565b565b906020828203126123bc576123b9915f01612394565b90565b61031c565b90565b906123d96123d46123e0926116be565b6123c1565b82546122b5565b9055565b90565b6123fb6123f6612400926123e4565b610e8e565b6103e2565b90565b61241761241261241c92611b49565b610e8e565b6104aa565b90565b61242890612403565b90565b5f7f496e76616c696420626173652061737365742061646472657373000000000000910152565b61245f601a602092610333565b6124688161242b565b0190565b6124819060208101905f818303910152612452565b90565b1561248b57565b612493610312565b62461bcd60e51b8152806124a96004820161246c565b0390fd5b5f7f496e697469616c697a6174696f6e206661696c65640000000000000000000000910152565b6124e16015602092610333565b6124ea816124ad565b0190565b6125039060208101905f8183039101526124d4565b90565b1561250d57565b612515610312565b62461bcd60e51b81528061252b600482016124ee565b0390fd5b61253990516103e2565b90565b634e487b7160e01b5f52601160045260245ffd5b61255f612565919392936103e2565b926103e2565b820180921161257057565b61253c565b90565b61258c61258761259192612575565b610e8e565b6103e2565b90565b5f7f496e76616c696420776569676874730000000000000000000000000000000000910152565b6125c8600f602092610333565b6125d181612594565b0190565b6125ea9060208101905f8183039101526125bb565b90565b156125f457565b6125fc610312565b62461bcd60e51b815280612612600482016125d5565b0390fd5b61269e939594612635612659936126529361263033615d2e565b615d59565b61263d615d6f565b612645615d95565b61264d615dbb565b6122a9565b60046122df565b61267461266d670de0b6b3a7640000612302565b6001612353565b60206126886126836004612387565b610eb9565b631bf01e9b90612696610312565b948592611bab565b825281806126ae60048201610abd565b03915afa9081156127d8576126d361272092612725945f916127aa575b5060026123c4565b6126eb6126e464e8d4a510006123e7565b6003612353565b6127196126f860026115c4565b61271261270c6127075f61241f565b6104b5565b916104b5565b1415612484565b8490616260565b612506565b61272e5f611b4c565b6127375f611b4c565b905b8161275461274e612749876103cf565b6103e2565b916103e2565b10156127865761277a6127809161277461276f878690611bee565b61252f565b90612550565b91611b68565b90612739565b90506127a89192506127a261279c612710612578565b916103e2565b146125ed565b565b6127cb915060203d81116127d1575b6127c3818361081f565b8101906123a3565b5f6126cb565b503d6127b9565b611bde565b906127ea94939291612135565b565b6127f461663d565b6127fc6127fe565b565b612806616731565b565b6128106127ec565b565b612821612827919392936103e2565b926103e2565b916128338382026103e2565b92818404149015171561284257565b61253c565b634e487b7160e01b5f52601260045260245ffd5b61286761286d916103e2565b916103e2565b908115612878570490565b612847565b61288c612892919392936103e2565b926103e2565b820391821161289d57565b61253c565b9161296461295e6129596128c485946128b9611d53565b508790869091612a6d565b6128cd87611d57565b966128d786611d57565b9061294161293b61293661292f61291e6129176129066128ff6128f989611ed5565b9f611ed5565b9f8a612812565b612911612710612578565b9061285b565b9688612812565b612929612710612578565b9061285b565b9a93612fb5565b6103e2565b916103e2565b115f14612986576129519161287d565b955b93612fb5565b6103e2565b916103e2565b105f146129785761297491612550565b5b90565b6129819161287d565b612975565b61298f91612550565b95612953565b61299e90610e91565b90565b6129aa90612995565b90565b5f7f496e76616c6964206f7261636c65206164647265737300000000000000000000910152565b6129e16016602092610333565b6129ea816129ad565b0190565b612a039060208101905f8183039101526129d4565b90565b15612a0d57565b612a15610312565b62461bcd60e51b815280612a2b600482016129ee565b0390fd5b612a3890610ead565b90565b604090612a64612a6b9496959396612a5a60608401985f850190611021565b6020830190611021565b01906105af565b565b90612a76611d53565b50612aa46020612a8e612a896004612387565b610eb9565b63bb3ba04c90612a9c610312565b938492611bab565b82528180612ab460048201610abd565b03915afa8015612c2757612acf915f91612bf9575b506129a1565b91612afd6020612ae7612ae26004612387565b610eb9565b63bb3ba04c90612af5610312565b938492611bab565b82528180612b0d60048201610abd565b03915afa8015612bf457602094612b4e612b5392612b73945f91612bc7575b50612b47612b41612b3c5f61241f565b6104b5565b916104b5565b1415612a06565b612a2f565b91612b7e63248391ff919496612b67610312565b97889687958695611bab565b855260048501612a3b565b03915afa908115612bc2575f91612b94575b5090565b612bb5915060203d8111612bbb575b612bad818361081f565b810190611bc0565b5f612b90565b503d612ba3565b611bde565b612be79150883d8111612bed575b612bdf818361081f565b8101906123a3565b5f612b2c565b503d612bd5565b611bde565b612c1a915060203d8111612c20575b612c12818361081f565b8101906123a3565b5f612ac9565b503d612c08565b611bde565b90612c3e91612c39616747565b612c40565b565b90612c5391612c4e81616800565b616870565b565b90612c5f91612c2c565b565b5f90565b612c7690612c7161697c565b612cc4565b90565b90565b612c90612c8b612c9592612c79565b612066565b610c7f565b90565b612cc17f360894a13ba1a3210667c828492db98dca3e2076cc3735a920a3ca505d382bbc612c7c565b90565b50612ccd612c98565b90565b612ce0612cdb612c61565b612c65565b90565b612cef612cf4916115ab565b611fcc565b90565b612d019054612ce3565b90565b612d0c611d2d565b50612d1f5f612d196169e1565b01612cf7565b90565b606090565b90612d39612d34836108e0565b610846565b918252565b369037565b90612d68612d5083612d27565b92602080612d5e86936108e0565b9201910390612d3e565b565b90612d7482610d0e565b811015612d85576020809102010190565b611562565b90612d94906104b5565b9052565b612da0612d22565b50612db2612dad5f611576565b612d43565b612dbb5f611b4c565b5b80612dd7612dd1612dcc5f611576565b6103e2565b916103e2565b1015612e1657612e1190612e0c612dfa5f612df3818590611583565b50016115c4565b612e078591849092612d6a565b612d8a565b611b68565b612dbc565b5090565b612e39612e3e91612e29611d53565b505f612e33615a0a565b016116ca565b6115e5565b90565b612e4961663d565b612e51612e53565b565b612e64612e5f5f61241f565b616a05565b565b612e6e612e41565b565b5f7f526562616c616e6365206e6f74206e6565646564000000000000000000000000910152565b612ea46014602092610333565b612ead81612e70565b0190565b612ec69060208101905f818303910152612e97565b90565b15612ed057565b612ed8610312565b62461bcd60e51b815280612eee60048201612eb1565b0390fd5b612f02612efd613080565b612ec9565b612f0a616b1a565b565b612f14611b01565b50612f26612f215f611576565b611b22565b612f2f5f611b4c565b5b80612f4b612f45612f405f611576565b6103e2565b916103e2565b1015612f8b57612f8690612f81612f6f6002612f685f8590611583565b50016115e5565b612f7c8591849092611bee565b611c0e565b611b68565b612f30565b5090565b612f9761663d565b612f9f612fa1565b565b612fa9616f4d565b565b612fb3612f8f565b565b612fbd611d53565b50612fc6614570565b9050612fd15f611b4c565b5b80612fed612fe7612fe25f611576565b6103e2565b916103e2565b1015613044576130095f613002818490611583565b50016115c4565b61301b613015856104b5565b916104b5565b1461302e5761302990611b68565b612fd2565b613041925061303c91611bee565b61252f565b90565b5050506130505f611b4c565b90565b9061305d82611345565b81101561306e576020809102010190565b611562565b61307d9051610534565b90565b613088611d2d565b506130b660206130a061309b6004612387565b610eb9565b63ea233c05906130ae610312565b938492611bab565b825281806130c660048201610abd565b03915afa9081156131a6575f91613178575b506130e1614570565b919091906130ee5f611b4c565b5b8061310a6131046130ff866103cf565b6103e2565b916103e2565b10156131705761312361311e858390613053565b613073565b80613144575b61313b5761313690611b68565b6130ef565b50505050600190565b50613158613153848390611bee565b61252f565b61316a613164846103e2565b916103e2565b11613129565b505050505f90565b613199915060203d811161319f575b613191818361081f565b810190611bc0565b5f6130d8565b503d613187565b611bde565b5f90565b6131b76131ab565b506131ca5f6131c4616f57565b016115c4565b90565b6131d681610534565b036131dd57565b5f80fd5b905051906131ee826131cd565b565b9060208282031261320957613206915f016131e1565b90565b61031c565b613216611b01565b50613227613222613080565b612ec9565b613238613232615a4b565b90616f7b565b9161324a6132455f611576565b611b22565b9061326761325785617071565b61326160036115e5565b90612812565b6132705f611b4c565b5b8061328c613286613281896103cf565b6103e2565b916103e2565b10156133c05785906132a76132a2838390611bee565b61252f565b6132b96132b35f611b4c565b916103e2565b116132ce575b6132c99150611b68565b613271565b6133006132ee826132e86132e3868690611bee565b61252f565b9061715a565b6132fb8791849092611bee565b611c0e565b602061332861332361331e5f613317818790611583565b50016115c4565b611b83565b611b8f565b6323b872dd906133675f339361337261335361334e61334630611b9b565b9a8a90611bee565b61252f565b61335b610312565b998a9788968795611bab565b855260048501612a3b565b03925af19182156133bb576132c99261338f575b508691506132bf565b6133af9060203d81116133b4575b6133a7818361081f565b8101906131f0565b613386565b503d61339d565b611bde565b506133cd919492936171da565b6133d5617362565b6133dd61761d565b3361341d61340b7fa95ad530009c6f929555e70a66aadbeae7231e45756c5b028ca77fbaa376e73e926116be565b92613414610312565b91829182610459565b0390a290565b61342b6119c6565b5061343f6004613439615a0a565b01611ad6565b90565b5f7f4558504952454400000000000000000000000000000000000000000000000000910152565b6134766007602092610333565b61347f81613442565b0190565b6134989060208101905f818303910152613469565b90565b156134a257565b6134aa610312565b62461bcd60e51b8152806134c060048201613483565b0390fd5b906134f1979695949392916134ec886134e56134df426103e2565b916103e2565b101561349b565b6134f5565b9091565b9061350d97969594939291613508617741565b6139d5565b90916135176177d4565b565b5f7f496e76616c696420746f6b656e20616464726573730000000000000000000000910152565b61354d6015602092610333565b61355681613519565b0190565b61356f9060208101905f818303910152613540565b90565b1561357957565b613581610312565b62461bcd60e51b8152806135976004820161355a565b0390fd5b5f7f43616e6e6f742073776170207468652073616d6520746f6b656e000000000000910152565b6135cf601a602092610333565b6135d88161359b565b0190565b6135f19060208101905f8183039101526135c2565b90565b156135fb57565b613603610312565b62461bcd60e51b815280613619600482016135dc565b0390fd5b5f7f416d6f756e74206d7573742062652067726561746572207468616e207a65726f910152565b61365060208092610333565b6136598161361d565b0190565b6136729060208101905f818303910152613644565b90565b1561367c57565b613684610312565b62461bcd60e51b81528061369a6004820161365d565b0390fd5b5f7f496e76616c696420726563656976657220616464726573730000000000000000910152565b6136d26018602092610333565b6136db8161369e565b0190565b6136f49060208101905f8183039101526136c5565b90565b156136fe57565b613706610312565b62461bcd60e51b81528061371c600482016136df565b0390fd5b5f7f546f6b656e207472616e73666572206661696c65640000000000000000000000910152565b6137546015602092610333565b61375d81613720565b0190565b6137769060208101905f818303910152613747565b90565b1561378057565b613788610312565b62461bcd60e51b81528061379e60048201613761565b0390fd5b5f7f496e73756666696369656e74204c697175696469747900000000000000000000910152565b6137d66016602092610333565b6137df816137a2565b0190565b6137f89060208101905f8183039101526137c9565b90565b1561380257565b61380a610312565b62461bcd60e51b815280613820600482016137e3565b0390fd5b60207f68616e2030000000000000000000000000000000000000000000000000000000917f416d6f756e7420746f2073656e64206d757374206265206772656174657220745f8201520152565b61387e6025604092610333565b61388781613824565b0190565b6138a09060208101905f818303910152613871565b90565b156138aa57565b6138b2610312565b62461bcd60e51b8152806138c86004820161388b565b0390fd5b60207f6d696e20616d6f756e7400000000000000000000000000000000000000000000917f416d6f756e74206f7574206d7573742062652067726561746572207468616e205f8201520152565b613926602a604092610333565b61392f816138cc565b0190565b6139489060208101905f818303910152613919565b90565b1561395257565b61395a610312565b62461bcd60e51b81528061397060048201613933565b0390fd5b91602061399592949361398e60408201965f830190611021565b01906105af565b565b6139cc6139d3946139c26060949897956139b8608086019a5f870190611021565b6020850190611021565b60408301906105af565b01906105af565b565b9091939294959796505050816139fb6139f56139f05f61241f565b6104b5565b916104b5565b141580613c70575b613a0c90613572565b613a2982613a22613a1c866104b5565b916104b5565b14156135f4565b613a4581613a3f613a395f611b4c565b916103e2565b11613675565b613a6a86613a63613a5d613a585f61241f565b6104b5565b916104b5565b14156136f7565b613a7b613a7683611b83565b611b8f565b60206323b872dd913390613aab5f613a9230611b9b565b95613ab688613a9f610312565b98899788968795611bab565b855260048501612a3b565b03925af18015613c6b57613ad1915f91613c3d575b50613779565b613add828483916128a2565b95613b03613aea85613cdd565b613afc613af68a6103e2565b916103e2565b10156137fb565b613b51613b1a613b12896177f1565b98899061287d565b95613b3787613b31613b2b5f611b4c565b916103e2565b116138a3565b613b4a613b4488926103e2565b916103e2565b101561394b565b613b62613b5d85611b83565b611b8f565b602063a9059cbb918390613b895f8a95613b94613b7d610312565b97889687958694611bab565b845260048401613974565b03925af18015613c3857613baf915f91613c0a575b50613779565b613bb7617362565b613bbf61761d565b91929092613c0385613bf17fcd3829a3813dc3cdd188fd3d01dcf3268c16be2fdd2dd21d0665418816e46062956116be565b95613bfa610312565b94859485613997565b0390a29190565b613c2b915060203d8111613c31575b613c23818361081f565b8101906131f0565b5f613ba9565b503d613c19565b611bde565b613c5e915060203d8111613c64575b613c56818361081f565b8101906131f0565b5f613acb565b503d613c4c565b611bde565b50613a0c83613c8f613c89613c845f61241f565b6104b5565b916104b5565b14159050613a03565b90613cb79594939291613ca9611d53565b613cb1611d53565b906134c4565b9091565b613cd891613cc7611d2d565b50613cd0615a2e565b919091615c41565b600190565b613ce5611d53565b90613cef5f611b4c565b5b80613d0b613d05613d005f611576565b6103e2565b916103e2565b1015613de05781613d39613d33613d2e5f613d27818790611583565b50016115c4565b6104b5565b916104b5565b14613d4c57613d4790611b68565b613cf0565b50613d979150613d65613d60602092611b83565b611b8f565b6370a0823190613d8c613d7730611b9b565b92613d80610312565b95869485938493611bab565b83526004830161102e565b03915afa908115613ddb575f91613dad575b5090565b613dce915060203d8111613dd4575b613dc6818361081f565b810190611bc0565b5f613da9565b503d613dbc565b611bde565b505090565b90613e0e939291613e0984613e02613dfc426103e2565b916103e2565b101561349b565b613e11565b90565b90613e25939291613e20617741565b613e30565b90613e2e6177d4565b565b90613e44939291613e3f617917565b6141c5565b90565b5f7f496e76616c6964207265736572766573206c656e677468000000000000000000910152565b613e7b6017602092610333565b613e8481613e47565b0190565b613e9d9060208101905f818303910152613e6e565b90565b15613ea757565b613eaf610312565b62461bcd60e51b815280613ec560048201613e88565b0390fd5b5f7f4e6f206173736574730000000000000000000000000000000000000000000000910152565b613efd6009602092610333565b613f0681613ec9565b0190565b613f1f9060208101905f818303910152613ef0565b90565b15613f2957565b613f31610312565b62461bcd60e51b815280613f4760048201613f0a565b0390fd5b60207f6564000000000000000000000000000000000000000000000000000000000000917f42616c756e695631506f6f6c3a205472616e736665722066726f6d206661696c5f8201520152565b613fa56022604092610333565b613fae81613f4b565b0190565b613fc79060208101905f818303910152613f98565b90565b15613fd157565b613fd9610312565b62461bcd60e51b815280613fef60048201613fb2565b0390fd5b60207f2030000000000000000000000000000000000000000000000000000000000000917f546f74616c2076616c7565206d7573742062652067726561746572207468616e5f8201520152565b61404d6022604092610333565b61405681613ff3565b0190565b61406f9060208101905f818303910152614040565b90565b1561407957565b614081610312565b62461bcd60e51b8152806140976004820161405a565b0390fd5b60207f7468616e20300000000000000000000000000000000000000000000000000000917f546f74616c206c6971756964697479206d7573742062652067726561746572205f8201520152565b6140f56026604092610333565b6140fe8161409b565b0190565b6141179060208101905f8183039101526140e8565b90565b1561412157565b614129610312565b62461bcd60e51b81528061413f60048201614102565b0390fd5b5f7f4d696e7420717479206973203000000000000000000000000000000000000000910152565b614177600d602092610333565b61418081614143565b0190565b6141999060208101905f81830391015261416a565b90565b156141a357565b6141ab610312565b62461bcd60e51b8152806141c160048201614184565b0390fd5b90939250506141d2611def565b916141dc5f611b4c565b936142116141e8611c1c565b61420b6142056142006141fa5f611576565b936103cf565b6103e2565b916103e2565b14613ea0565b61423561421d5f611576565b61422f6142295f611b4c565b916103e2565b11613f22565b61423e5f611b4c565b945b8561425b6142556142505f611576565b6103e2565b916103e2565b10156143a95783906142795f614272818a90611583565b50016115c4565b9060208861428e61428985611b83565b611b8f565b6142ca5f6323b872dd6142d56142b66142b133976142ab30611b9b565b9c611bee565b61252f565b6142be610312565b9a8b9788968795611bab565b855260048501612a3b565b03925af19283156143a45761434c936142f5915f91614376575b50613fca565b6142fd611d53565b508161431a61431461430f60026115c4565b6104b5565b916104b5565b146143525761433f61434592614339614334898c90611bee565b61252f565b90617948565b90612550565b955b611b68565b94614240565b614370915061436a614365878a90611bee565b61252f565b90612550565b95614347565b614397915060203d811161439d575b61438f818361081f565b8101906131f0565b5f6142ef565b503d614385565b611bde565b9194509291506143cb816143c56143bf5f611b4c565b916103e2565b11614072565b6143d3611d53565b50816143e76143e15f611b4c565b916103e2565b145f146144845761440391506143fd60036115e5565b90612812565b905b6144228261441b6144155f611b4c565b916103e2565b141561419c565b61442d8183906171da565b614435617362565b61443d61761d565b819061447e61446c7fe1fffcc4923d04b559f4d29a8bfc6cda04eb5b0d3c460751c2402c5c5cc9109c926116be565b92614475610312565b918291826105bc565b0390a290565b6144dd6144cc6144e3936144c7614499615a4b565b50946144b7866144b16144ab5f611b4c565b916103e2565b1161411a565b6144c160036115e5565b90612812565b612812565b916144d760036115e5565b90612812565b9061285b565b90614405565b906144fc92916144f7611d53565b613de5565b90565b606090565b60018060401b03811161451a5760208091020190565b61080b565b9061453161452c83614504565b610846565b918252565b369037565b906145606145488361451f565b926020806145568693614504565b9201910390614536565b565b9061456c90610534565b9052565b6145786144ff565b50614581611b01565b5061458a615a4b565b6145935f611576565b9161459d8361453b565b916145a784611b22565b946145b15f611b4c565b5b806145c56145bf886103e2565b916103e2565b10156146ad5761466e906146006145f96145e86145e3878590611bee565b61252f565b6145f3612710612578565b90612812565b869061285b565b61461760016146105f8590611583565b50016115e5565b908061462b614625846103e2565b916103e2565b115f14614673576146519161463f9161287d565b61464c8a91849092611bee565b611c0e565b61466860016146638891849092613053565b614562565b5b611b68565b6145b2565b614680906146929261287d565b61468d8a91849092611bee565b611c0e565b6146a85f6146a38891849092613053565b614562565b614669565b50935050509190565b5f7f496e76616c696420617373657420696e64657800000000000000000000000000910152565b6146ea6013602092610333565b6146f3816146b6565b0190565b61470c9060208101905f8183039101526146dd565b90565b1561471657565b61471e610312565b62461bcd60e51b815280614734600482016146f7565b0390fd5b61477b61478091614747611d53565b50614750615a4b565b90506147768261477061476a614765856103cf565b6103e2565b916103e2565b1061470f565b611bee565b61252f565b90565b9061478d906116be565b5f5260205260405f2090565b6147c7916147bd6147c2926147ac611d53565b5060016147b7615a0a565b01614783565b6116ca565b6115e5565b90565b906147f39392916147ee846147e76147e1426103e2565b916103e2565b101561349b565b6147f6565b90565b9061480a939291614805617741565b614815565b906148136177d4565b565b90614829939291614824617917565b614dd5565b90565b5f7f496e76616c696420616464726573730000000000000000000000000000000000910152565b614860600f602092610333565b6148698161482c565b0190565b6148829060208101905f818303910152614853565b90565b1561488c57565b614894610312565b62461bcd60e51b8152806148aa6004820161486d565b0390fd5b5f7f5368617265206d7573742062652067726561746572207468616e203000000000910152565b6148e2601c602092610333565b6148eb816148ae565b0190565b6149049060208101905f8183039101526148d5565b90565b1561490e57565b614916610312565b62461bcd60e51b81528061492c600482016148ef565b0390fd5b91602061495192949361494a60408201965f830190611021565b0190611021565b565b60207f616e636500000000000000000000000000000000000000000000000000000000917f42616c756e695631506f6f6c3a20496e73756666696369656e7420416c6c6f775f8201520152565b6149ad6024604092610333565b6149b681614953565b0190565b6149cf9060208101905f8183039101526149a0565b90565b156149d957565b6149e1610312565b62461bcd60e51b8152806149f7600482016149ba565b0390fd5b5f7f5472616e736665722046726f6d204661696c6564000000000000000000000000910152565b614a2f6014602092610333565b614a38816149fb565b0190565b614a519060208101905f818303910152614a22565b90565b15614a5b57565b614a63610312565b62461bcd60e51b815280614a7960048201614a3c565b0390fd5b5f7f4e6f206c69717569646974790000000000000000000000000000000000000000910152565b614ab1600c602092610333565b614aba81614a7d565b0190565b614ad39060208101905f818303910152614aa4565b90565b15614add57565b614ae5610312565b62461bcd60e51b815280614afb60048201614abe565b0390fd5b5f7f496e76616c696420747265617375727920616464726573730000000000000000910152565b614b336018602092610333565b614b3c81614aff565b0190565b614b559060208101905f818303910152614b26565b90565b15614b5f57565b614b67610312565b62461bcd60e51b815280614b7d60048201614b40565b0390fd5b60207f2042616c616e6365000000000000000000000000000000000000000000000000917f42616c756e695631506f6f6c3a20496e73756666696369656e742041737365745f8201520152565b614bdb6028604092610333565b614be481614b81565b0190565b614bfd9060208101905f818303910152614bce565b90565b15614c0757565b614c0f610312565b62461bcd60e51b815280614c2560048201614be8565b0390fd5b60207f6400000000000000000000000000000000000000000000000000000000000000917f42616c756e695631506f6f6c3a20466565205472616e73666572204661696c655f8201520152565b614c836021604092610333565b614c8c81614c29565b0190565b614ca59060208101905f818303910152614c76565b90565b15614caf57565b614cb7610312565b62461bcd60e51b815280614ccd60048201614c90565b0390fd5b5f7f4173736574207472616e73666572206661696c65640000000000000000000000910152565b614d056015602092610333565b614d0e81614cd1565b0190565b614d279060208101905f818303910152614cf8565b90565b15614d3157565b614d39610312565b62461bcd60e51b815280614d4f60048201614d12565b0390fd5b5f7f496e73756666696369656e742042414c554e49206c6971756964697479000000910152565b614d87601d602092610333565b614d9081614d53565b0190565b614da99060208101905f818303910152614d7a565b90565b15614db357565b614dbb610312565b62461bcd60e51b815280614dd160048201614d94565b0390fd5b909193925050614e0083614df9614df3614dee5f61241f565b6104b5565b916104b5565b1415614885565b614e1c81614e16614e105f611b4c565b916103e2565b11614907565b614e35614e30614e2b30611b9b565b611b83565b611b8f565b602063dd62ed3e913390614e63614e4b30611b9b565b94614e6e614e57610312565b96879586948594611bab565b845260048401614930565b03915afa801561534b57614e9d915f9161531d575b50614e96614e90846103e2565b916103e2565b10156149d2565b614eb6614eb1614eac30611b9b565b611b83565b611b8f565b60206323b872dd913390614ee65f614ecd30611b9b565b95614ef188614eda610312565b98899788968795611bab565b855260048501612a3b565b03925af1801561531857614f0c915f916152ea575b50614a54565b614f2f614f17611def565b614f29614f235f611b4c565b916103e2565b11614ad6565b614f5c6020614f46614f416004612387565b610eb9565b633b19e84a90614f54610312565b938492611bab565b82528180614f6c60048201610abd565b03915afa9081156152e5575f916152b7575b5090614fa582614f9e614f98614f935f61241f565b6104b5565b916104b5565b1415614b58565b614fae5f611b4c565b5b80614fca614fc4614fbf5f611576565b6103e2565b916103e2565b101561521b57614feb614fe6614fdf84615366565b8390611bee565b61252f565b90615049602061501761501261500d5f615006818890611583565b50016115c4565b611b83565b611b8f565b6370a082319061503e61502930611b9b565b92615032610312565b95869485938493611bab565b83526004830161102e565b03915afa801561521657615078915f916151e8575b5061507161506b856103e2565b916103e2565b1015614c00565b61508c615084836177f1565b92839061287d565b9160206150b56150b06150ab5f6150a4818890611583565b50016115c4565b611b83565b611b8f565b9163a9059cbb926150da5f8993956150e56150ce610312565b97889687958694611bab565b845260048401613974565b03925af180156151e357615100915f916151b5575b50614ca8565b602061512861512361511e5f615117818790611583565b50016115c4565b611b83565b611b8f565b9263a9059cbb9361514d5f8a9396615158615141610312565b98899687958694611bab565b845260048401613974565b03925af19182156151b05761517d92615178915f91615182575b50614d2a565b611b68565b614faf565b6151a3915060203d81116151a9575b61519b818361081f565b8101906131f0565b5f615172565b503d615191565b611bde565b6151d6915060203d81116151dc575b6151ce818361081f565b8101906131f0565b5f6150fa565b503d6151c4565b611bde565b615209915060203d811161520f575b615201818361081f565b810190611bc0565b5f61505e565b503d6151f7565b611bde565b509192905061524d61523461522f30611b9b565b612e1a565b615246615240856103e2565b916103e2565b1015614dac565b61526061525930611b9b565b839061796b565b615268617362565b61527061761d565b81906152b161529f7f884edad9ce6fa2440d8a54cc123490eb96d2768479d49ff9c7366125a9424364926116be565b926152a8610312565b918291826105bc565b0390a290565b6152d8915060203d81116152de575b6152d0818361081f565b8101906123a3565b5f614f7e565b503d6152c6565b611bde565b61530b915060203d8111615311575b615303818361081f565b8101906131f0565b5f614f06565b503d6152f9565b611bde565b61533e915060203d8111615344575b615336818361081f565b810190611bc0565b5f614e83565b503d61532c565b611bde565b90615363929161535e611d53565b6147ca565b90565b61538290615372611b01565b5061537c816177f1565b9061287d565b9061539461538f5f611576565b611b22565b61539d5f611b4c565b5b806153b96153b36153ae5f611576565b6103e2565b916103e2565b10156154a25761541d9060206153eb6153e66153e15f6153da818790611583565b50016115c4565b611b83565b611b8f565b6370a08231906154126153fd30611b9b565b92615406610312565b96879485938493611bab565b83526004830161102e565b03915afa91821561549d5761545361544561546a94615465935f9161546f575b508890612812565b61544d611def565b9061285b565b6154608591849092611bee565b611c0e565b611b68565b61539e565b615490915060203d8111615496575b615488818361081f565b810190611bc0565b5f61543d565b503d61547e565b611bde565b5090915090565b6154b290610e91565b90565b6154be906154a9565b90565b6154ca90610ead565b90565b6154d6816107a6565b036154dd57565b5f80fd5b905051906154ee826154cd565b565b9060208282031261550957615506915f016154e1565b90565b61031c565b61552261551d615527926107a6565b610e8e565b6103e2565b90565b61553e61553961554392611f91565b610e8e565b6103e2565b90565b90565b61555d61555861556292615546565b610e8e565b6103e2565b90565b61556e906103e2565b604d811161557c57600a0a90565b61253c565b615589611d53565b506155bf60206155a96155a461559f60026115c4565b6154b5565b6154c1565b63313ce567906155b7610312565b938492611bab565b825281806155cf60048201610abd565b03915afa80156156ba576155f161560091615605935f9161568c575b5061550e565b6155fb601261552a565b61287d565b615565565b61560d611def565b8061562061561a5f611b4c565b916103e2565b1461567e5761562d615a4b565b50918261564261563c5f611b4c565b916103e2565b1461566f576156576156679161566c94612812565b61566160016115e5565b90612812565b61285b565b90565b50505061567b5f611b4c565b90565b50506156895f611b4c565b90565b6156ad915060203d81116156b3575b6156a5818361081f565b8101906154f0565b5f6155eb565b503d61569b565b611bde565b6156d0906156cb61663d565b6156d2565b565b806156ed6156e76156e25f61241f565b6104b5565b916104b5565b146156fd576156fb90616a05565b565b6157276157095f61241f565b615711610312565b918291631e4fbdf760e01b83526004830161102e565b0390fd5b615734906156bf565b565b61573f9061189e565b9052565b9190615756905f60208501940190615736565b565b91929490938195615767615cec565b946157735f8701611fe6565b801561580b575b6157e8576157ad966157a4956157928a5f8a016120a5565b61579f60015f8a016120f3565b615830565b5f8091016120f3565b6157e37fc7f505b2f371ae2175ee4913f4499e1f2633a7b5936321eed1cdaeb6115181d2916157da610312565b91829182615743565b0390a1565b6157f0610312565b63f92ee8a960e01b81528061580760048201610abd565b0390fd5b506158175f8701612012565b6158296158238a61189e565b9161189e565b101561577a565b61587692939695509361585261586f926158bb9661584d33615d2e565b615d59565b61585a615d6f565b615862615d95565b61586a615dbb565b6122a9565b60046122df565b61589161588a670de0b6b3a7640000612302565b6001612353565b60206158a56158a06004612387565b610eb9565b631bf01e9b906158b3610312565b948592611bab565b825281806158cb60048201610abd565b03915afa9081156159f5576158f061593d92615942945f916159c7575b5060026123c4565b61590861590164e8d4a510006123e7565b6003612353565b61593661591560026115c4565b61592f6159296159245f61241f565b6104b5565b916104b5565b1415612484565b8490616260565b612506565b61594b5f611b4c565b6159545f611b4c565b905b8161597161596b615966876103cf565b6103e2565b916103e2565b10156159a35761599761599d9161599161598c878690611bee565b61252f565b90612550565b91611b68565b90615956565b90506159c59192506159bf6159b9612710612578565b916103e2565b146125ed565b565b6159e8915060203d81116159ee575b6159e0818361081f565b8101906123a3565b5f6158e8565b503d6159d6565b611bde565b90615a089594939291615758565b565b7f52c63247e1f47db19d5ce0460030c497f067ca4cebf71ba98eeadabe20bace0090565b615a366131ab565b503390565b91615a4992916001926179d1565b565b615a53611d53565b615a5b611b01565b50615a655f611576565b90615a6f82611b22565b92615a795f611b4c565b915b82615a8e615a88866103e2565b916103e2565b1015615b6657615aaa5f615aa3818690611583565b50016115c4565b615ab381613cdd565b9081615ac7615ac15f611b4c565b916103e2565b14615b5a5791615b299183615b3094615af1615aeb615ae660026115c4565b6104b5565b916104b5565b145f14615b365750615b0f90615b0a8991889092611bee565b611c0e565b5b615b23615b1e888790611bee565b61252f565b90612550565b925b611b68565b91615a7b565b615b5591615b4391617948565b615b508991889092611bee565b611c0e565b615b10565b505091615b3090615b2b565b915091509190565b604090615b97615b9e9496959396615b8d60608401985f850190611021565b60208301906105af565b01906105af565b565b90615bab91036103e2565b90565b929192615bbc818390614799565b9081615bd1615bcb5f196103e2565b916103e2565b03615bde575b5050509050565b81615bf1615beb876103e2565b916103e2565b10615c1757615c0e9394615c06919392615ba0565b905f926179d1565b805f8080615bd7565b50615c3d84929192615c27610312565b938493637dc7a0d960e11b855260048501615b6e565b0390fd5b9182615c5d615c57615c525f61241f565b6104b5565b916104b5565b14615cbe5781615c7d615c77615c725f61241f565b6104b5565b916104b5565b14615c9057615c8e92919091617b07565b565b615cba615c9c5f61241f565b615ca4610312565b91829163ec442f0560e01b83526004830161102e565b0390fd5b615ce8615cca5f61241f565b615cd2610312565b918291634b637e8f60e11b83526004830161102e565b0390fd5b7ff0c57e16840df040f15088dc2f81fe391c3923bec73e23a9662efc9c229c6a0090565b615d2190615d1c617c94565b615d23565b565b615d2c90617d3a565b565b615d3790615d10565b565b90615d4b91615d46617c94565b615d4d565b565b90615d5791617efd565b565b90615d6391615d39565b565b615d6d617c94565b565b615d77615d65565b565b615d81617c94565b615d89615d8b565b565b615d93617f38565b565b615d9d615d79565b565b615da7617c94565b615daf615db1565b565b615db9617f6a565b565b615dc3615d9f565b565b5f7f496e76616c696420726562616c616e6365722061646472657373000000000000910152565b615df9601a602092610333565b615e0281615dc5565b0190565b615e1b9060208101905f818303910152615dec565b90565b15615e2557565b615e2d610312565b62461bcd60e51b815280615e4360048201615e06565b0390fd5b60207f6368000000000000000000000000000000000000000000000000000000000000917f41737365747320616e642077656967687473206c656e677468206d69736d61745f8201520152565b615ea16022604092610333565b615eaa81615e47565b0190565b615ec39060208101905f818303910152615e94565b90565b15615ecd57565b615ed5610312565b62461bcd60e51b815280615eeb60048201615eae565b0390fd5b615efa906004612812565b90565b1b90565b91906008615f1c910291615f165f1984615efd565b92615efd565b9181191691161790565b9190615f3c615f37615f4493612334565b612350565b908354615f01565b9055565b615f5a91615f54611d53565b91615f26565b565b5f6003615f88928280820155615f758360018301615f48565b615f828360028301615f48565b01615f48565b565b634e487b7160e01b5f525f60045260245ffd5b905f03615faf57615fad90615f5c565b565b615f8a565b5b818110615fc0575050565b80615fcd5f600493615f9d565b01615fb5565b9091828110615fe2575b505050565b616000615ffa615ff461600b95615eef565b92615eef565b9261157a565b918201910190615fb4565b5f8080615fdd565b90600160401b8111616037578161602c61603593611576565b90828155615fd3565b565b61080b565b5f61604691616013565b565b905f0361605a576160589061603c565b565b615f8a565b61606990516104b5565b90565b5f7f496e76616c696420617373657420616464726573730000000000000000000000910152565b6160a06015602092610333565b6160a98161606c565b0190565b6160c29060208101905f818303910152616093565b90565b156160cc57565b6160d4610312565b62461bcd60e51b8152806160ea600482016160ad565b0390fd5b5f7f496e76616c696420776569676874000000000000000000000000000000000000910152565b616122600e602092610333565b61612b816160ee565b0190565b6161449060208101905f818303910152616115565b90565b1561614e57565b616156610312565b62461bcd60e51b81528061616c6004820161612f565b0390fd5b90565b61617d6080610846565b90565b5f5260205f2090565b5490565b61619681616189565b8210156161b0576161a8600491616180565b910201905f90565b611562565b9061621260606003616218946161d85f82016161d25f880161605f565b906123c4565b6161f1600182016161eb6020880161252f565b90612353565b61620a600282016162046040880161252f565b90612353565b01920161252f565b90612353565b565b919061622b57616229916161b5565b565b615f8a565b90815491600160401b83101561625b57826162539160016162599501815561618d565b9061621a565b565b61080b565b91909161626b611d2d565b50616299602061628361627e6004612387565b610eb9565b63cff49d6890616291610312565b938492611bab565b825281806162a960048201610abd565b03915afa908115616638575f9161660a575b50926162ea60206162d46162cf6004612387565b610eb9565b63cff49d68906162e2610312565b938492611bab565b825281806162fa60048201610abd565b03915afa801561660557616331915f916165d7575b5061632a61632461631f5f61241f565b6104b5565b916104b5565b1415615e1e565b61635d61633d83610d0e565b61635761635161634c856103cf565b6103e2565b916103e2565b14615ec6565b6163675f80616048565b6163705f611b4c565b5b8061638c61638661638186610d0e565b6103e2565b916103e2565b10156165cd576163c96163a86163a3858490612d6a565b61605f565b6163c26163bc6163b75f61241f565b6104b5565b916104b5565b14156160c5565b6163f76163df6163da848490611bee565b61252f565b6163f16163eb5f611b4c565b916103e2565b11616147565b61647a6164035f616170565b616416616411868590612d6a565b61605f565b9061647561646c61643061642b888890611bee565b61252f565b61646761645e5f6164595f94616450616447616173565b9a5f8c01612d8a565b60208a01611c0e565b611b4c565b60408701611c0e565b611b4c565b60608401611c0e565b616230565b61649561649061648b858490612d6a565b61605f565b611b83565b61649e81611b8f565b602063dd62ed3e916164af30611b9b565b906164cc8a946164d76164c0610312565b96879586948594611bab565b845260048401614930565b03915afa9081156165c8575f9161659a575b506164fc6164f65f611b4c565b916103e2565b14616511575b5061650c90611b68565b616371565b61651a90611b8f565b90602063095ea7b39287906165435f80199661654e616537610312565b98899687958694611bab565b845260048401613974565b03925af19182156165955761650c92616569575b5090616502565b6165899060203d811161658e575b616581818361081f565b8101906131f0565b616562565b503d616577565b611bde565b6165bb915060203d81116165c1575b6165b3818361081f565b810190611bc0565b5f6164e9565b503d6165a9565b611bde565b5050509050600190565b6165f8915060203d81116165fe575b6165f0818361081f565b8101906123a3565b5f61630f565b503d6165e6565b611bde565b61662b915060203d8111616631575b616623818361081f565b8101906123a3565b5f6162bb565b503d616619565b611bde565b6166456131af565b61665e616658616653615a2e565b6104b5565b916104b5565b0361666557565b61668e616670615a2e565b616678610312565b91829163118cdaa760e01b83526004830161102e565b0390fd5b61669a617f74565b6166a26166da565b565b906166b060ff91612066565b9181191691161790565b906166cf6166ca6166d6926120e4565b6120f0565b82546166a4565b9055565b6166ee6166e56169e1565b5f8091016166ba565b6166f6615a2e565b61672c7f5db9ee0a495bf2e6ff9c91a7834c1ba4fdd244a5e8aa4e537bd38aeae4b073aa91616723610312565b9182918261102e565b0390a1565b616739616692565b565b61674490610ead565b90565b6167503061673b565b61678261677c7f00000000000000000000000000000000000000000000000000000000000000006104b5565b916104b5565b1480156167b3575b61679057565b616798610312565b63703e46dd60e11b8152806167af60048201610abd565b0390fd5b506167bc617fae565b6167ee6167e87f00000000000000000000000000000000000000000000000000000000000000006104b5565b916104b5565b141561678a565b506167fe61663d565b565b616809906167f5565b565b61681490610e91565b90565b6168209061680b565b90565b61682c90610ead565b90565b61683881610c7f565b0361683f57565b5f80fd5b905051906168508261682f565b565b9060208282031261686b57616868915f01616843565b90565b61031c565b919061689e602061688861688386616817565b616823565b6352d1902d90616896610312565b938492611bab565b825281806168ae60048201610abd565b03915afa80915f9261694c575b50155f146168f65750509060016168d057505b565b6168f2906168dc610312565b918291634c9c8ce360e01b83526004830161102e565b0390fd5b928361691161690b616906612c98565b610c7f565b91610c7f565b0361692657616921929350617fd8565b6168ce565b61694884616932610312565b918291632a87526960e21b835260048301610c8f565b0390fd5b61696e91925060203d8111616975575b616966818361081f565b810190616852565b905f6168bb565b503d61695c565b6169853061673b565b6169b76169b17f00000000000000000000000000000000000000000000000000000000000000006104b5565b916104b5565b036169be57565b6169c6610312565b63703e46dd60e11b8152806169dd60048201610abd565b0390fd5b7fcd5ed15c6e187e77e9aee88184c21f4f2182ab5827cb3b7e07fbedcd63f0330090565b616a0d616f57565b616a25616a1b5f83016115c4565b915f8491016123c4565b90616a59616a537f8be0079c531659141344cd1fd0a4f28419497f9722a3daafe3b4186f6b6457e0936116be565b916116be565b91616a62610312565b80616a6c81610abd565b0390a3565b616a7a90610e91565b90565b616a8690616a71565b90565b616a9290610ead565b90565b5f910312616a9f57565b61031c565b9260c094989795616afd616af2616b0793616ae4616b1197616ad6616b189d9860e08c01908c5f818403910152610409565b908a820360208c0152610d45565b9088820360408a0152610409565b9a60608701906105af565b6080850190611021565b60a0830190611021565b0190611021565b565b616b476020616b31616b2c6004612387565b610eb9565b63cff49d6890616b3f610312565b938492611bab565b82528180616b5760048201610abd565b03915afa908115616ede575f91616eb0575b5090616b73612d98565b90616b7c611e23565b91616b865f611b4c565b5b80616ba2616b9c616b975f611576565b6103e2565b916103e2565b1015616d1b57616bce616bc9616bc45f616bbd818690611583565b50016115c4565b611b83565b611b8f565b602063dd62ed3e91616bdf30611b9b565b90616bfc8994616c07616bf0610312565b96879586948594611bab565b845260048401614930565b03915afa908115616d16575f91616ce8575b50616c2d616c275f196103e2565b916103e2565b10616c41575b616c3c90611b68565b616b87565b616c67616c62616c5d5f616c56818690611583565b50016115c4565b611b83565b611b8f565b90602063095ea7b3928790616c905f801996616c9b616c84610312565b98899687958694611bab565b845260048401613974565b03925af1918215616ce357616c3c92616cb7575b509050616c33565b616cd79060203d8111616cdc575b616ccf818361081f565b8101906131f0565b616caf565b503d616cc5565b611bde565b616d09915060203d8111616d0f575b616d01818361081f565b810190611bc0565b5f616c19565b503d616cf7565b611bde565b50919092616d27611c1c565b616d546020616d3e616d396004612387565b610eb9565b63ea233c0590616d4c610312565b938492611bab565b82528180616d6460048201610abd565b03915afa908115616eab57616d8a91616d85915f91616e7d575b5093616a7d565b616a89565b63f0bf7714859493616d9b30611b9b565b91616da530611b9b565b95616db060026115c4565b853b15616e78575f97616dd7958995616de294616dcb610312565b9c8d9b8c9a8b99611bab565b895260048901616aa4565b03925af18015616e7357616e47575b50616dfa617362565b616e0261761d565b33616e42616e307f279b343370f587af7fb675ae7c8578e9c8abcc373236ad02c501a4771fe7a7b8926116be565b92616e39610312565b91829182610d95565b0390a2565b616e66905f3d8111616e6c575b616e5e818361081f565b810190616a95565b5f616df1565b503d616e54565b611bde565b611ba7565b616e9e915060203d8111616ea4575b616e96818361081f565b810190611bc0565b5f616d7e565b503d616e8c565b611bde565b616ed1915060203d8111616ed7575b616ec9818361081f565b8101906123a3565b5f616b69565b503d616ebf565b611bde565b616eeb617917565b616ef3616ef5565b565b616f0a616f006169e1565b5f600191016166ba565b616f12615a2e565b616f487f62e78cea01bee320cd4e420270b5ea74000d11b0c9f74754ebdbfc544b05a25891616f3f610312565b9182918261102e565b0390a1565b616f55616ee3565b565b7f9016d09d72d40fdae2fd8ceac6b6234c7706214fd39c1cd1e609a0528c19930090565b9190616f85611b01565b50616f97616f925f611576565b611b22565b616fa05f611b4c565b5b80616fbc616fb6616fb15f611576565b6103e2565b916103e2565b10156170695761702c90616ffb616fea87616fe46001616fdd5f8790611583565b50016115e5565b90612812565b616ff5612710612578565b9061285b565b61700e617009868490611bee565b61252f565b61702061701a836103e2565b916103e2565b10617031575b50611b68565b616fa1565b6170516170639161704b617046888690611bee565b61252f565b9061287d565b61705e8591849092611bee565b611c0e565b5f617026565b509192505090565b617079611d53565b906170835f611b4c565b915b826170a061709a6170955f611576565b6103e2565b916103e2565b10156170d2576170c66170cc916170c06170bb858790611bee565b61252f565b90612550565b92611b68565b91617085565b91505090565b5f7f496e76616c696420746f6b656e20616d6f756e7420746f206164640000000000910152565b61710c601b602092610333565b617115816170d8565b0190565b61712e9060208101905f8183039101526170ff565b90565b1561713857565b617140610312565b62461bcd60e51b81528061715660048201617119565b0390fd5b617162611d53565b506171795f617172818490611583565b50016115c4565b61719461718e61718960026115c4565b6104b5565b916104b5565b146171d657906171b25f6171ab6171b79482611583565b50016115c4565b618061565b6171d3816171cd6171c75f611b4c565b916103e2565b11617131565b90565b5090565b806171f56171ef6171ea5f61241f565b6104b5565b916104b5565b146172115761720f916172075f61241f565b919091617b07565b565b61723b61721d5f61241f565b617225610312565b91829163ec442f0560e01b83526004830161102e565b0390fd5b90565b61725661725161725b9261723f565b610e8e565b6103e2565b90565b5f7f556e646572666c6f772064656372656d656e74696e6720736c69707061676500910152565b617292601f602092610333565b61729b8161725e565b0190565b6172b49060208101905f818303910152617285565b90565b156172be57565b6172c6610312565b62461bcd60e51b8152806172dc6004820161729f565b0390fd5b5f7f4f766572666c6f7720696e6372656d656e74696e6720736c6970706167650000910152565b617314601e602092610333565b61731d816172e0565b0190565b6173369060208101905f818303910152617307565b90565b1561734057565b617348610312565b62461bcd60e51b81528061735e60048201617321565b0390fd5b61736a614570565b906173756064617242565b91617380600a615549565b9161738a5f611b4c565b5b806173a66173a061739b5f611576565b6103e2565b916103e2565b1015617616576174bc906173c760026173c05f8490611583565b50016115e5565b6173da6173d5868490611bee565b61252f565b6173ec6173e6896103e2565b916103e2565b11156175f857617405617400858490613053565b613073565b5f146174de576174869061745661742f617428617423898790611bee565b61252f565b8a9061285b565b617450600261743f5f8890611583565b50019161744b836115e5565b612550565b90612353565b61747f617479617473600261746c5f8890611583565b50016115e5565b926103e2565b916103e2565b1015617339565b5b61749e60026174975f8490611583565b50016115e5565b6174b06174aa876103e2565b916103e2565b116174c1575b5b611b68565b61738b565b6174d98560026174d25f8590611583565b5001612353565b6174b6565b6174f560026174ee5f8590611583565b50016115e5565b61752361751d61751861751161750c8a8890611bee565b61252f565b8b9061285b565b6103e2565b916103e2565b115f146175ab576175a59061757561754e617547617542898790611bee565b61252f565b8a9061285b565b61756f600261755e5f8890611583565b50019161756a836115e5565b61287d565b90612353565b61759e617598617592600261758b5f8890611583565b50016115e5565b926103e2565b916103e2565b11156172b7565b5b617487565b506175f36175cc6175c56175c0878590611bee565b61252f565b889061285b565b6175ed60026175dc5f8690611583565b5001916175e8836115e5565b612550565b90612353565b6175a6565b5061761185600261760a5f8590611583565b5001612353565b6174b7565b5050505050565b6176265f611b4c565b5b8061764261763c6176375f611576565b6103e2565b916103e2565b1015617712576176a690602061767461766f61766a5f617663818790611583565b50016115c4565b611b83565b611b8f565b6370a082319061769b61768630611b9b565b9261768f610312565b96879485938493611bab565b83526004830161102e565b03915afa91821561770d576176da926176d5915f916176df575b5060036176ce5f8590611583565b5001612353565b611b68565b617627565b617700915060203d8111617706575b6176f8818361081f565b810190611bc0565b5f6176c0565b503d6176ee565b611bde565b50565b90565b61772c61772761773192617715565b610e8e565b6103e2565b90565b61773e6002617718565b90565b617749618083565b6177545f82016115e5565b61776d617767617762617734565b6103e2565b916103e2565b1461778857617786905f61777f617734565b9101612353565b565b617790610312565b633ee5aeb560e01b8152806177a760048201610abd565b0390fd5b6177bf6177ba6177c49261203b565b610e8e565b6103e2565b90565b6177d160016177ab565b90565b6177ef6177df618083565b5f6177e86177c7565b9101612353565b565b6177f9611d53565b50617827602061781161780c6004612387565b610eb9565b6385462d6f9061781f610312565b938492611bab565b8252818061783760048201610abd565b03915afa908115617912575f916178e4575b5090617878602061786261785d6004612387565b610eb9565b634f4608a290617870610312565b938492611bab565b8252818061788860048201610abd565b03915afa9283156178df576178ae936178a9925f916178b1575b5092612812565b61285b565b90565b6178d2915060203d81116178d8575b6178ca818361081f565b810190611bc0565b5f6178a2565b503d6178c0565b611bde565b617905915060203d811161790b575b6178fd818361081f565b810190611bc0565b5f617849565b503d6178f3565b611bde565b61791f612d04565b61792557565b61792d610312565b63d93c066560e01b81528061794460048201610abd565b0390fd5b9061796891617955611d53565b509061796160026115c4565b9091612a6d565b90565b908161798761798161797c5f61241f565b6104b5565b916104b5565b146179a3576179a1919061799a5f61241f565b9091617b07565b565b6179cd6179af5f61241f565b6179b7610312565b918291634b637e8f60e11b83526004830161102e565b0390fd5b90926179db615a0a565b826179f66179f06179eb5f61241f565b6104b5565b916104b5565b14617acb5784617a16617a10617a0b5f61241f565b6104b5565b916104b5565b14617a9d57617a3d90617a38617a3160018793018690614783565b87906116ca565b612353565b617a47575b505050565b919091617a92617a80617a7a7f8c5be1e5ebec7d5bd14f71427d1e84f3dd0314c0f7b2291e5b200ac8c7c3b925936116be565b936116be565b93617a89610312565b918291826105bc565b0390a35f8080617a42565b617ac7617aa95f61241f565b617ab1610312565b918291634a1406b160e11b83526004830161102e565b0390fd5b617af5617ad75f61241f565b617adf610312565b91829163e602df0560e01b83526004830161102e565b0390fd5b90617b0491016103e2565b90565b919091617b12615a0a565b81617b2d617b27617b225f61241f565b6104b5565b916104b5565b145f14617c1857617b5483617b4e6002840191617b49836115e5565b612550565b90612353565b5b83617b70617b6a617b655f61241f565b6104b5565b916104b5565b145f14617be957617b9890617b92600285920191617b8d836115e5565b615ba0565b90612353565b5b919091617be4617bd2617bcc7fddf252ad1be2c89b69c2b068fc378daa952ba7f163c4a11628f55a4df523b3ef936116be565b936116be565b93617bdb610312565b918291826105bc565b0390a3565b617c1390617c0d617bfe5f86930187906116ca565b91617c08836115e5565b617af9565b90612353565b617b99565b617c2d617c285f830184906116ca565b6115e5565b80617c40617c3a866103e2565b916103e2565b10617c6a57617c53617c65918590615ba0565b617c605f840185906116ca565b612353565b617b55565b91617c9091509192617c7a610312565b93849363391434e360e21b855260048501615b6e565b0390fd5b617ca5617c9f6180a7565b15610534565b617cab57565b617cb3610312565b631afcd79f60e31b815280617cca60048201610abd565b0390fd5b617cdf90617cda617c94565b617ce1565b565b80617cfc617cf6617cf15f61241f565b6104b5565b916104b5565b14617d0c57617d0a90616a05565b565b617d36617d185f61241f565b617d20610312565b918291631e4fbdf760e01b83526004830161102e565b0390fd5b617d4390617cce565b565b90617d5791617d52617c94565b617ed9565b565b601f602091010490565b5b818110617d6f575050565b80617d7c5f600193615f48565b01617d64565b9190601f8111617d92575b505050565b617d9e617dc393611a12565b906020617daa84617d59565b83019310617dcb575b617dbc90617d59565b0190617d63565b5f8080617d8d565b9150617dbc81929050617db3565b90617de9905f1990600802610e4a565b191690565b81617df891617dd9565b906002021790565b90617e0a8161032f565b9060018060401b038211617ec857617e2c82617e2685546119df565b85617d82565b602090601f8311600114617e6057918091617e4f935f92617e54575b5050617dee565b90555b565b90915001515f80617e48565b601f19831691617e6f85611a12565b925f5b818110617eb057509160029391856001969410617e96575b50505002019055617e52565b617ea6910151601f841690617dd9565b90555f8080617e8a565b91936020600181928787015181550195019201617e72565b61080b565b90617ed791617e00565b565b6004617efb92617ef4617eea615a0a565b9360038501617ecd565b9101617ecd565b565b90617f0791617d45565b565b617f11617c94565b617f19617f1b565b565b617f36617f26618083565b5f617f2f6177c7565b9101612353565b565b617f40617f09565b565b617f4a617c94565b617f52617f54565b565b617f68617f5f6169e1565b5f8091016166ba565b565b617f72617f42565b565b617f85617f7f612d04565b15610534565b617f8b57565b617f93610312565b638dfc202b60e01b815280617faa60048201610abd565b0390fd5b617fb66131ab565b50617fd15f617fcb617fc6612c98565b6180c5565b016115c4565b90565b5190565b90617fe2826180c8565b8161800d7fbc7cd75a20ee27fd9adebab32041f755214dbc6bffa90cc0225b39da2e5c2d3b916116be565b90618016610312565b8061802081610abd565b0390a261802c81617fd4565b61803e6180385f611b4c565b916103e2565b115f146180525761804e916181a6565b505b565b505061805c618124565b618050565b6180809161806d611d53565b5061807860026115c4565b919091612a6d565b90565b7f9b779b17422d0df92223018b32b4d1fa46e071723d6817e2486d003becc55f0090565b6180af611d2d565b506180c25f6180bc615cec565b01611fe6565b90565b90565b803b6180dc6180d65f611b4c565b916103e2565b146180fe576180fc905f6180f66180f1612c98565b6180c5565b016123c4565b565b6181209061810a610312565b918291634c9c8ce360e01b83526004830161102e565b0390fd5b346181376181315f611b4c565b916103e2565b1161813e57565b618146610312565b63b398979f60e01b81528061815d60048201610abd565b0390fd5b606090565b9061817861817383610b98565b610846565b918252565b3d5f146181985761818d3d618166565b903d5f602084013e5b565b6181a0618161565b90618196565b5f806181d2936181b4618161565b508390602081019051915af4906181c961817d565b909190916181d5565b90565b906181e9906181e2618161565b5015610534565b5f146181f55750618260565b6181fe82617fd4565b61821061820a5f611b4c565b916103e2565b1480618245575b61821f575090565b6182419061822b610312565b918291639996b31560e01b83526004830161102e565b0390fd5b50803b61825a6182545f611b4c565b916103e2565b14618217565b61826981617fd4565b61827b6182755f611b4c565b916103e2565b115f1461828a57805190602001fd5b618292610312565b630a12f52160e11b8152806182a960048201610abd565b0390fdfea2646970667358221220074bc36f4cc887d0d6b8fe65881a644af415fc68bc28790e121b194e6f128e3664736f6c63430008190033",
  "linkReferences": {},
  "deployedLinkReferences": {}
}