{
  "_format": "hh-sol-artifact-1",
  "contractName": "Admin",
  "sourceName": "contracts/proxy/admin.sol",
  "abi": [
    {
      "inputs": [
        {
          "internalType": "address",
          "name": "_admin",
          "type": "address"
        }
      ],
      "stateMutability": "nonpayable",
      "type": "constructor"
    },
    {
      "inputs": [
        {
          "internalType": "address",
          "name": "_hypervisor",
          "type": "address"
        },
        {
          "internalType": "uint256",
          "name": "amount0",
          "type": "uint256"
        },
        {
          "internalType": "uint256",
          "name": "amount1",
          "type": "uint256"
        },
        {
          "internalType": "uint256[2]",
          "name": "inMin",
          "type": "uint256[2]"
        }
      ],
      "name": "addBaseLiquidity",
      "outputs": [],
      "stateMutability": "nonpayable",
      "type": "function"
    },
    {
      "inputs": [
        {
          "internalType": "address",
          "name": "_hypervisor",
          "type": "address"
        },
        {
          "internalType": "uint256",
          "name": "amount0",
          "type": "uint256"
        },
        {
          "internalType": "uint256",
          "name": "amount1",
          "type": "uint256"
        },
        {
          "internalType": "uint256[2]",
          "name": "inMin",
          "type": "uint256[2]"
        }
      ],
      "name": "addLimitLiquidity",
      "outputs": [],
      "stateMutability": "nonpayable",
      "type": "function"
    },
    {
      "inputs": [
        {
          "internalType": "address",
          "name": "_hypervisor",
          "type": "address"
        },
        {
          "internalType": "int24",
          "name": "tickLower",
          "type": "int24"
        },
        {
          "internalType": "int24",
          "name": "tickUpper",
          "type": "int24"
        },
        {
          "internalType": "uint256",
          "name": "amount0",
          "type": "uint256"
        },
        {
          "internalType": "uint256",
          "name": "amount1",
          "type": "uint256"
        },
        {
          "internalType": "uint256[2]",
          "name": "inMin",
          "type": "uint256[2]"
        }
      ],
      "name": "addLiquidity",
      "outputs": [],
      "stateMutability": "nonpayable",
      "type": "function"
    },
    {
      "inputs": [],
      "name": "admin",
      "outputs": [
        {
          "internalType": "address",
          "name": "",
          "type": "address"
        }
      ],
      "stateMutability": "view",
      "type": "function"
    },
    {
      "inputs": [
        {
          "internalType": "address",
          "name": "",
          "type": "address"
        }
      ],
      "name": "advisors",
      "outputs": [
        {
          "internalType": "address",
          "name": "",
          "type": "address"
        }
      ],
      "stateMutability": "view",
      "type": "function"
    },
    {
      "inputs": [
        {
          "internalType": "address",
          "name": "_hypervisor",
          "type": "address"
        }
      ],
      "name": "compound",
      "outputs": [
        {
          "internalType": "uint128",
          "name": "baseToken0Owed",
          "type": "uint128"
        },
        {
          "internalType": "uint128",
          "name": "baseToken1Owed",
          "type": "uint128"
        },
        {
          "internalType": "uint128",
          "name": "limitToken0Owed",
          "type": "uint128"
        },
        {
          "internalType": "uint128",
          "name": "limitToken1Owed",
          "type": "uint128"
        },
        {
          "internalType": "uint256[4]",
          "name": "inMin",
          "type": "uint256[4]"
        }
      ],
      "stateMutability": "nonpayable",
      "type": "function"
    },
    {
      "inputs": [
        {
          "internalType": "address",
          "name": "_hypervisor",
          "type": "address"
        },
        {
          "internalType": "uint256[4]",
          "name": "inMin",
          "type": "uint256[4]"
        }
      ],
      "name": "compound",
      "outputs": [
        {
          "internalType": "uint128",
          "name": "baseToken0Owed",
          "type": "uint128"
        },
        {
          "internalType": "uint128",
          "name": "baseToken1Owed",
          "type": "uint128"
        },
        {
          "internalType": "uint128",
          "name": "limitToken0Owed",
          "type": "uint128"
        },
        {
          "internalType": "uint128",
          "name": "limitToken1Owed",
          "type": "uint128"
        }
      ],
      "stateMutability": "nonpayable",
      "type": "function"
    },
    {
      "inputs": [],
      "name": "fixOwnership",
      "outputs": [],
      "stateMutability": "nonpayable",
      "type": "function"
    },
    {
      "inputs": [],
      "name": "ownerFixed",
      "outputs": [
        {
          "internalType": "bool",
          "name": "",
          "type": "bool"
        }
      ],
      "stateMutability": "view",
      "type": "function"
    },
    {
      "inputs": [
        {
          "internalType": "address",
          "name": "_hypervisor",
          "type": "address"
        },
        {
          "internalType": "int24",
          "name": "tickLower",
          "type": "int24"
        },
        {
          "internalType": "int24",
          "name": "tickUpper",
          "type": "int24"
        },
        {
          "internalType": "uint128",
          "name": "shares",
          "type": "uint128"
        },
        {
          "internalType": "uint256[2]",
          "name": "minAmounts",
          "type": "uint256[2]"
        }
      ],
      "name": "pullLiquidity",
      "outputs": [
        {
          "internalType": "uint256",
          "name": "base0",
          "type": "uint256"
        },
        {
          "internalType": "uint256",
          "name": "base1",
          "type": "uint256"
        }
      ],
      "stateMutability": "nonpayable",
      "type": "function"
    },
    {
      "inputs": [
        {
          "internalType": "address",
          "name": "_hypervisor",
          "type": "address"
        },
        {
          "internalType": "uint256",
          "name": "shares",
          "type": "uint256"
        },
        {
          "internalType": "uint256[4]",
          "name": "minAmounts",
          "type": "uint256[4]"
        }
      ],
      "name": "pullLiquidity",
      "outputs": [
        {
          "internalType": "uint256",
          "name": "base0",
          "type": "uint256"
        },
        {
          "internalType": "uint256",
          "name": "base1",
          "type": "uint256"
        },
        {
          "internalType": "uint256",
          "name": "limit0",
          "type": "uint256"
        },
        {
          "internalType": "uint256",
          "name": "limit1",
          "type": "uint256"
        }
      ],
      "stateMutability": "nonpayable",
      "type": "function"
    },
    {
      "inputs": [
        {
          "internalType": "address",
          "name": "_hypervisor",
          "type": "address"
        },
        {
          "internalType": "int24",
          "name": "_baseLower",
          "type": "int24"
        },
        {
          "internalType": "int24",
          "name": "_baseUpper",
          "type": "int24"
        },
        {
          "internalType": "int24",
          "name": "_limitLower",
          "type": "int24"
        },
        {
          "internalType": "int24",
          "name": "_limitUpper",
          "type": "int24"
        },
        {
          "internalType": "address",
          "name": "_feeRecipient",
          "type": "address"
        },
        {
          "internalType": "uint256[4]",
          "name": "inMin",
          "type": "uint256[4]"
        },
        {
          "internalType": "uint256[4]",
          "name": "outMin",
          "type": "uint256[4]"
        }
      ],
      "name": "rebalance",
      "outputs": [],
      "stateMutability": "nonpayable",
      "type": "function"
    },
    {
      "inputs": [
        {
          "internalType": "address",
          "name": "",
          "type": "address"
        }
      ],
      "name": "rebalancers",
      "outputs": [
        {
          "internalType": "address",
          "name": "",
          "type": "address"
        }
      ],
      "stateMutability": "view",
      "type": "function"
    },
    {
      "inputs": [
        {
          "internalType": "address",
          "name": "_hypervisor",
          "type": "address"
        }
      ],
      "name": "removeWhitelisted",
      "outputs": [],
      "stateMutability": "nonpayable",
      "type": "function"
    },
    {
      "inputs": [
        {
          "internalType": "contract IERC20",
          "name": "token",
          "type": "address"
        },
        {
          "internalType": "address",
          "name": "recipient",
          "type": "address"
        }
      ],
      "name": "rescueERC20",
      "outputs": [],
      "stateMutability": "nonpayable",
      "type": "function"
    },
    {
      "inputs": [
        {
          "internalType": "address",
          "name": "_hypervisor",
          "type": "address"
        },
        {
          "internalType": "address",
          "name": "newAdvisor",
          "type": "address"
        }
      ],
      "name": "setAdvisor",
      "outputs": [],
      "stateMutability": "nonpayable",
      "type": "function"
    },
    {
      "inputs": [
        {
          "internalType": "address",
          "name": "_hypervisor",
          "type": "address"
        },
        {
          "internalType": "uint8",
          "name": "newFee",
          "type": "uint8"
        }
      ],
      "name": "setFee",
      "outputs": [],
      "stateMutability": "nonpayable",
      "type": "function"
    },
    {
      "inputs": [
        {
          "internalType": "address",
          "name": "_hypervisor",
          "type": "address"
        },
        {
          "internalType": "address",
          "name": "newRebalancer",
          "type": "address"
        }
      ],
      "name": "setRebalancer",
      "outputs": [],
      "stateMutability": "nonpayable",
      "type": "function"
    },
    {
      "inputs": [
        {
          "internalType": "address",
          "name": "_hypervisor",
          "type": "address"
        },
        {
          "internalType": "address",
          "name": "newWhitelist",
          "type": "address"
        }
      ],
      "name": "setWhitelist",
      "outputs": [],
      "stateMutability": "nonpayable",
      "type": "function"
    },
    {
      "inputs": [
        {
          "internalType": "address",
          "name": "_hypervisor",
          "type": "address"
        }
      ],
      "name": "toggleDirectDeposit",
      "outputs": [],
      "stateMutability": "nonpayable",
      "type": "function"
    },
    {
      "inputs": [
        {
          "internalType": "address",
          "name": "newAdmin",
          "type": "address"
        }
      ],
      "name": "transferAdmin",
      "outputs": [],
      "stateMutability": "nonpayable",
      "type": "function"
    },
    {
      "inputs": [
        {
          "internalType": "address",
          "name": "_hypervisor",
          "type": "address"
        },
        {
          "internalType": "address",
          "name": "newOwner",
          "type": "address"
        }
      ],
      "name": "transferHypervisorOwner",
      "outputs": [],
      "stateMutability": "nonpayable",
      "type": "function"
    }
  ],
  "bytecode": "0x60806040526000805460ff60a01b1916905534801561001d57600080fd5b50604051611a3a380380611a3a8339818101604052602081101561004057600080fd5b5051600080546001600160a01b039092166001600160a01b03199092169190911790556119c8806100726000396000f3fe608060405234801561001057600080fd5b50600436106101825760003560e01c80639572601d116100d8578063bc2ff23d1161008c578063cf0789c411610066578063cf0789c414610751578063f82c90e2146107b6578063f851a440146107e457610182565b8063bc2ff23d1461062b578063cbc3ff2014610659578063ce447450146106be57610182565b8063b4e9bf88116100bd578063b4e9bf88146104bd578063ba181ac614610574578063bb26a96a146105a257610182565b80639572601d14610421578063a44d57a01461049757610182565b8063291d95491161013a57806357d9abc21161011457806357d9abc2146103395780635d799f87146103cd57806375829def146103fb57610182565b8063291d9549146102ef5780632a3dc00414610315578063461d5ddf1461033157610182565b8063080f2a551161016b578063080f2a55146101f15780630fdf7a4c14610220578063284dac231461024e57610182565b806301325e541461018757806303ca0f6c146101af575b600080fd5b6101ad6004803603602081101561019d57600080fd5b50356001600160a01b03166107ec565b005b6101d5600480360360208110156101c557600080fd5b50356001600160a01b031661088e565b604080516001600160a01b039092168252519081900360200190f35b6101ad6004803603604081101561020757600080fd5b5080356001600160a01b0316906020013560ff166108a9565b6101ad6004803603604081101561023657600080fd5b506001600160a01b038135811691602001351661095a565b6102746004803603602081101561026457600080fd5b50356001600160a01b0316610a54565b60405180866001600160801b03168152602001856001600160801b03168152602001846001600160801b03168152602001836001600160801b0316815260200182600460200280838360005b838110156102d85781810151838201526020016102c0565b505050509050019550505050505060405180910390f35b6101ad6004803603602081101561030557600080fd5b50356001600160a01b0316610b4b565b61031d610bd2565b604080519115158252519081900360200190f35b6101ad610be2565b6103b4600480360360c081101561034f57600080fd5b6040805180820182526001600160a01b03843516936020810135600290810b9484830135820b946001600160801b0360608501351694918401939260c0840192916080850191908390839080828437600092019190915250919450610c589350505050565b6040805192835260208301919091528051918290030190f35b6101ad600480360360408110156103e357600080fd5b506001600160a01b0381358116916020013516610da6565b6101ad6004803603602081101561041157600080fd5b50356001600160a01b0316610f76565b6101ad600480360360e081101561043757600080fd5b6040805180820182526001600160a01b03843516936020810135600290810b9484830135820b946060840135946080850135949283019360e084019260a085019190839083908082843760009201919091525091945061104c9350505050565b6101d5600480360360208110156104ad57600080fd5b50356001600160a01b0316611175565b6101ad60048036036101c08110156104d457600080fd5b60408051608081810183526001600160a01b0385358116956020810135600290810b9695820135810b956060830135820b958584013590920b9460a084013590941693908301929161014083019160c0840190600490839083908082843760009201919091525050604080516080818101909252929594938181019392509060049083908390808284376000920191909152509194506111909350505050565b6101ad6004803603604081101561058a57600080fd5b506001600160a01b03813581169160200135166112ff565b610605600480360360c08110156105b857600080fd5b60408051608081810183526001600160a01b0385351694602081013594810193909260c08401929091840190600490839083908082843760009201919091525091945061139a9350505050565b604080519485526020850193909352838301919091526060830152519081900360800190f35b6101ad6004803603604081101561064157600080fd5b506001600160a01b03813581169160200135166114db565b6101ad600480360360a081101561066f57600080fd5b6040805180820182526001600160a01b038435169360208101359383820135939082019260a0830191606084019060029083908390808284376000920191909152509194506115bd9350505050565b61071d600480360360a08110156106d457600080fd5b6040805160808181019092526001600160a01b0384351693928301929160a083019190602084019060049083908390808284376000920191909152509194506116ce9350505050565b604080516001600160801b039586168152938516602085015291841683830152909216606082015290519081900360800190f35b6101ad600480360360a081101561076757600080fd5b6040805180820182526001600160a01b038435169360208101359383820135939082019260a0830191606084019060029083908390808284376000920191909152509194506117eb9350505050565b6101ad600480360360408110156107cc57600080fd5b506001600160a01b03813581169160200135166118ac565b6101d561198e565b6000546001600160a01b03163314610838576040805162461bcd60e51b815260206004820152600a60248201526937b7363c9030b236b4b760b11b604482015290519081900360640190fd5b806001600160a01b031663b1a3d5336040518163ffffffff1660e01b8152600401600060405180830381600087803b15801561087357600080fd5b505af1158015610887573d6000803e3d6000fd5b5050505050565b6002602052600090815260409020546001600160a01b031681565b6000546001600160a01b031633146108f5576040805162461bcd60e51b815260206004820152600a60248201526937b7363c9030b236b4b760b11b604482015290519081900360640190fd5b816001600160a01b031663cb122a09826040518263ffffffff1660e01b8152600401808260ff168152602001915050600060405180830381600087803b15801561093e57600080fd5b505af1158015610952573d6000803e3d6000fd5b505050505050565b6000546001600160a01b031633146109a6576040805162461bcd60e51b815260206004820152600a60248201526937b7363c9030b236b4b760b11b604482015290519081900360640190fd5b600054600160a01b900460ff1615610a05576040805162461bcd60e51b815260206004820152601860248201527f7065726d616e656e74206f776e657220696e20706c6163650000000000000000604482015290519081900360640190fd5b816001600160a01b031663f2fde38b826040518263ffffffff1660e01b815260040180826001600160a01b03168152602001915050600060405180830381600087803b15801561093e57600080fd5b600080600080610a6261199d565b6001600160a01b03868116600090815260026020526040902054879116331480610a9657506000546001600160a01b031633145b610ad6576040805162461bcd60e51b815260206004820152600c60248201526b37b7363c9030b23b34b9b7b960a11b604482015290519081900360640190fd5b866001600160a01b031663f69e20466040518163ffffffff1660e01b8152600401608060405180830381600087803b158015610b1157600080fd5b505af1158015610b25573d6000803e3d6000fd5b505050506040513d6080811015610b3b57600080fd5b5095979496509294509092909150565b6000546001600160a01b03163314610b97576040805162461bcd60e51b815260206004820152600a60248201526937b7363c9030b236b4b760b11b604482015290519081900360640190fd5b806001600160a01b031663c5241e296040518163ffffffff1660e01b8152600401600060405180830381600087803b15801561087357600080fd5b600054600160a01b900460ff1681565b6000546001600160a01b03163314610c2e576040805162461bcd60e51b815260206004820152600a60248201526937b7363c9030b236b4b760b11b604482015290519081900360640190fd5b600080547fffffffffffffffffffffff00ffffffffffffffffffffffffffffffffffffffff169055565b6001600160a01b0385811660009081526001602052604081205490918291889116331480610c9057506000546001600160a01b031633145b610cd3576040805162461bcd60e51b815260206004820152600f60248201526e37b7363c903932b130b630b731b2b960891b604482015290519081900360640190fd5b876001600160a01b03166395235656888888886040518563ffffffff1660e01b8152600401808560020b81526020018460020b8152602001836001600160801b0316815260200182600260200280838360005b83811015610d3e578181015183820152602001610d26565b505050509050019450505050506040805180830381600087803b158015610d6457600080fd5b505af1158015610d78573d6000803e3d6000fd5b505050506040513d6040811015610d8e57600080fd5b50805160209091015190999098509650505050505050565b6000546001600160a01b03163314610df2576040805162461bcd60e51b815260206004820152600a60248201526937b7363c9030b236b4b760b11b604482015290519081900360640190fd5b6001600160a01b038116610e4d576040805162461bcd60e51b815260206004820152601c60248201527f726563697069656e742073686f756c64206265206e6f6e2d7a65726f00000000604482015290519081900360640190fd5b816001600160a01b031663a9059cbb82846001600160a01b03166370a08231306040518263ffffffff1660e01b815260040180826001600160a01b0316815260200191505060206040518083038186803b158015610eaa57600080fd5b505afa158015610ebe573d6000803e3d6000fd5b505050506040513d6020811015610ed457600080fd5b5051604080517fffffffff0000000000000000000000000000000000000000000000000000000060e086901b1681526001600160a01b03909316600484015260248301919091525160448083019260209291908290030181600087803b158015610f3d57600080fd5b505af1158015610f51573d6000803e3d6000fd5b505050506040513d6020811015610f6757600080fd5b5051610f7257600080fd5b5050565b6000546001600160a01b03163314610fc2576040805162461bcd60e51b815260206004820152600a60248201526937b7363c9030b236b4b760b11b604482015290519081900360640190fd5b6001600160a01b03811661101d576040805162461bcd60e51b815260206004820152601b60248201527f6e657741646d696e2073686f756c64206265206e6f6e2d7a65726f0000000000604482015290519081900360640190fd5b6000805473ffffffffffffffffffffffffffffffffffffffff19166001600160a01b0392909216919091179055565b6001600160a01b0386811660009081526001602052604090205487911633148061108057506000546001600160a01b031633145b6110c3576040805162461bcd60e51b815260206004820152600f60248201526e37b7363c903932b130b630b731b2b960891b604482015290519081900360640190fd5b866001600160a01b03166363e9683687878787876040518663ffffffff1660e01b8152600401808660020b81526020018560020b815260200184815260200183815260200182600260200280838360005b8381101561112c578181015183820152602001611114565b5050505090500195505050505050600060405180830381600087803b15801561115457600080fd5b505af1158015611168573d6000803e3d6000fd5b5050505050505050505050565b6001602052600090815260409020546001600160a01b031681565b6001600160a01b038881166000908152600160205260409020548991163314806111c457506000546001600160a01b031633145b611207576040805162461bcd60e51b815260206004820152600f60248201526e37b7363c903932b130b630b731b2b960891b604482015290519081900360640190fd5b886001600160a01b03166385919c5d898989898989896040518863ffffffff1660e01b8152600401808860020b81526020018760020b81526020018660020b81526020018560020b8152602001846001600160a01b0316815260200183600460200280838360005b8381101561128757818101518382015260200161126f565b5050505090500182600460200280838360005b838110156112b257818101518382015260200161129a565b50505050905001975050505050505050600060405180830381600087803b1580156112dc57600080fd5b505af11580156112f0573d6000803e3d6000fd5b50505050505050505050505050565b6000546001600160a01b0316331461134b576040805162461bcd60e51b815260206004820152600a60248201526937b7363c9030b236b4b760b11b604482015290519081900360640190fd5b816001600160a01b031663854cff2f826040518263ffffffff1660e01b815260040180826001600160a01b03168152602001915050600060405180830381600087803b15801561093e57600080fd5b6001600160a01b0383811660009081526001602052604081205490918291829182918891163314806113d657506000546001600160a01b031633145b611419576040805162461bcd60e51b815260206004820152600f60248201526e37b7363c903932b130b630b731b2b960891b604482015290519081900360640190fd5b604051631bead8f360e01b8152600481018881526001600160a01b038a1691631bead8f3918a918a919060240182608080838360005b8381101561146757818101518382015260200161144f565b5050505090500192505050608060405180830381600087803b15801561148c57600080fd5b505af11580156114a0573d6000803e3d6000fd5b505050506040513d60808110156114b657600080fd5b50805160208201516040830151606090930151919b909a509198509650945050505050565b6000546001600160a01b03163314611527576040805162461bcd60e51b815260206004820152600a60248201526937b7363c9030b236b4b760b11b604482015290519081900360640190fd5b6001600160a01b038116611582576040805162461bcd60e51b815260206004820152601d60248201527f6e657741647669736f722073686f756c64206265206e6f6e2d7a65726f000000604482015290519081900360640190fd5b6001600160a01b039182166000908152600260205260409020805473ffffffffffffffffffffffffffffffffffffffff191691909216179055565b6001600160a01b038481166000908152600160205260409020548591163314806115f157506000546001600160a01b031633145b611634576040805162461bcd60e51b815260206004820152600f60248201526e37b7363c903932b130b630b731b2b960891b604482015290519081900360640190fd5b846001600160a01b03166349e8f1c28585856040518463ffffffff1660e01b81526004018084815260200183815260200182600260200280838360005b83811015611689578181015183820152602001611671565b505050509050019350505050600060405180830381600087803b1580156116af57600080fd5b505af11580156116c3573d6000803e3d6000fd5b505050505050505050565b6001600160a01b03828116600090815260026020526040812054909182918291829187911633148061170a57506000546001600160a01b031633145b61174a576040805162461bcd60e51b815260206004820152600c60248201526b37b7363c9030b23b34b9b7b960a11b604482015290519081900360640190fd5b60405163144faa2160e21b81526001600160a01b0388169063513ea8849088906004018082608080838360005b8381101561178f578181015183820152602001611777565b50505050905001915050608060405180830381600087803b1580156117b357600080fd5b505af11580156117c7573d6000803e3d6000fd5b505050506040513d60808110156117dd57600080fd5b509497939650919450925050565b6001600160a01b0384811660009081526001602052604090205485911633148061181f57506000546001600160a01b031633145b611862576040805162461bcd60e51b815260206004820152600f60248201526e37b7363c903932b130b630b731b2b960891b604482015290519081900360640190fd5b60408051632527aa1d60e01b81526004810186815260248201869052845160449092019182526001600160a01b03881692632527aa1d928892889288929083908083836020611671565b6000546001600160a01b031633146118f8576040805162461bcd60e51b815260206004820152600a60248201526937b7363c9030b236b4b760b11b604482015290519081900360640190fd5b6001600160a01b038116611953576040805162461bcd60e51b815260206004820181905260248201527f6e6577526562616c616e6365722073686f756c64206265206e6f6e2d7a65726f604482015290519081900360640190fd5b6001600160a01b039182166000908152600160205260409020805473ffffffffffffffffffffffffffffffffffffffff191691909216179055565b6000546001600160a01b031681565b6040518060800160405280600490602082028036833750919291505056fea164736f6c6343000706000a",
  "linkReferences": {},
  "deployedLinkReferences": {}
}