{
  "_format": "hh-sol-artifact-1",
  "contractName": "BaluniV1YearnVaultRegistry",
  "sourceName": "contracts/registry/BaluniV1YearnVaultRegistry.sol",
  "abi": [
    {
      "inputs": [
        {
          "internalType": "address",
          "name": "target",
          "type": "address"
        }
      ],
      "name": "AddressEmptyCode",
      "type": "error"
    },
    {
      "inputs": [
        {
          "internalType": "address",
          "name": "implementation",
          "type": "address"
        }
      ],
      "name": "ERC1967InvalidImplementation",
      "type": "error"
    },
    {
      "inputs": [],
      "name": "ERC1967NonPayable",
      "type": "error"
    },
    {
      "inputs": [],
      "name": "FailedInnerCall",
      "type": "error"
    },
    {
      "inputs": [],
      "name": "InvalidInitialization",
      "type": "error"
    },
    {
      "inputs": [],
      "name": "NotInitializing",
      "type": "error"
    },
    {
      "inputs": [
        {
          "internalType": "address",
          "name": "owner",
          "type": "address"
        }
      ],
      "name": "OwnableInvalidOwner",
      "type": "error"
    },
    {
      "inputs": [
        {
          "internalType": "address",
          "name": "account",
          "type": "address"
        }
      ],
      "name": "OwnableUnauthorizedAccount",
      "type": "error"
    },
    {
      "inputs": [],
      "name": "UUPSUnauthorizedCallContext",
      "type": "error"
    },
    {
      "inputs": [
        {
          "internalType": "bytes32",
          "name": "slot",
          "type": "bytes32"
        }
      ],
      "name": "UUPSUnsupportedProxiableUUID",
      "type": "error"
    },
    {
      "anonymous": false,
      "inputs": [
        {
          "indexed": false,
          "internalType": "uint64",
          "name": "version",
          "type": "uint64"
        }
      ],
      "name": "Initialized",
      "type": "event"
    },
    {
      "anonymous": false,
      "inputs": [
        {
          "indexed": true,
          "internalType": "address",
          "name": "previousOwner",
          "type": "address"
        },
        {
          "indexed": true,
          "internalType": "address",
          "name": "newOwner",
          "type": "address"
        }
      ],
      "name": "OwnershipTransferred",
      "type": "event"
    },
    {
      "anonymous": false,
      "inputs": [
        {
          "indexed": true,
          "internalType": "address",
          "name": "implementation",
          "type": "address"
        }
      ],
      "name": "Upgraded",
      "type": "event"
    },
    {
      "anonymous": false,
      "inputs": [
        {
          "indexed": true,
          "internalType": "address",
          "name": "vault",
          "type": "address"
        },
        {
          "indexed": false,
          "internalType": "address[]",
          "name": "assets",
          "type": "address[]"
        }
      ],
      "name": "vaultCreated",
      "type": "event"
    },
    {
      "inputs": [],
      "name": "UPGRADE_INTERFACE_VERSION",
      "outputs": [
        {
          "internalType": "string",
          "name": "",
          "type": "string"
        }
      ],
      "stateMutability": "view",
      "type": "function"
    },
    {
      "inputs": [
        {
          "internalType": "address",
          "name": "vaultAddress",
          "type": "address"
        }
      ],
      "name": "addVault",
      "outputs": [],
      "stateMutability": "nonpayable",
      "type": "function"
    },
    {
      "inputs": [
        {
          "internalType": "uint256",
          "name": "",
          "type": "uint256"
        }
      ],
      "name": "allVaults",
      "outputs": [
        {
          "internalType": "address",
          "name": "",
          "type": "address"
        }
      ],
      "stateMutability": "view",
      "type": "function"
    },
    {
      "inputs": [],
      "name": "getAllVaults",
      "outputs": [
        {
          "internalType": "address[]",
          "name": "",
          "type": "address[]"
        }
      ],
      "stateMutability": "view",
      "type": "function"
    },
    {
      "inputs": [
        {
          "internalType": "address",
          "name": "vaultAddress",
          "type": "address"
        }
      ],
      "name": "getVaultAsset",
      "outputs": [
        {
          "internalType": "address[]",
          "name": "",
          "type": "address[]"
        }
      ],
      "stateMutability": "view",
      "type": "function"
    },
    {
      "inputs": [
        {
          "internalType": "address",
          "name": "",
          "type": "address"
        }
      ],
      "name": "getVaultType0",
      "outputs": [
        {
          "internalType": "address",
          "name": "",
          "type": "address"
        }
      ],
      "stateMutability": "view",
      "type": "function"
    },
    {
      "inputs": [
        {
          "internalType": "address",
          "name": "asset",
          "type": "address"
        }
      ],
      "name": "getVaultType0ByAsset",
      "outputs": [
        {
          "internalType": "address",
          "name": "",
          "type": "address"
        }
      ],
      "stateMutability": "view",
      "type": "function"
    },
    {
      "inputs": [
        {
          "internalType": "address",
          "name": "",
          "type": "address"
        },
        {
          "internalType": "address",
          "name": "",
          "type": "address"
        }
      ],
      "name": "getVaultType1",
      "outputs": [
        {
          "internalType": "address",
          "name": "",
          "type": "address"
        }
      ],
      "stateMutability": "view",
      "type": "function"
    },
    {
      "inputs": [
        {
          "internalType": "address",
          "name": "asset1",
          "type": "address"
        },
        {
          "internalType": "address",
          "name": "asset2",
          "type": "address"
        }
      ],
      "name": "getVaultType1ByAssets",
      "outputs": [
        {
          "internalType": "address",
          "name": "",
          "type": "address"
        }
      ],
      "stateMutability": "view",
      "type": "function"
    },
    {
      "inputs": [
        {
          "internalType": "address",
          "name": "token",
          "type": "address"
        }
      ],
      "name": "getVaultsByAsset",
      "outputs": [
        {
          "internalType": "address[]",
          "name": "",
          "type": "address[]"
        }
      ],
      "stateMutability": "view",
      "type": "function"
    },
    {
      "inputs": [],
      "name": "getVaultsCount",
      "outputs": [
        {
          "internalType": "uint256",
          "name": "",
          "type": "uint256"
        }
      ],
      "stateMutability": "view",
      "type": "function"
    },
    {
      "inputs": [
        {
          "internalType": "address",
          "name": "_register",
          "type": "address"
        }
      ],
      "name": "initialize",
      "outputs": [],
      "stateMutability": "nonpayable",
      "type": "function"
    },
    {
      "inputs": [],
      "name": "owner",
      "outputs": [
        {
          "internalType": "address",
          "name": "",
          "type": "address"
        }
      ],
      "stateMutability": "view",
      "type": "function"
    },
    {
      "inputs": [],
      "name": "proxiableUUID",
      "outputs": [
        {
          "internalType": "bytes32",
          "name": "",
          "type": "bytes32"
        }
      ],
      "stateMutability": "view",
      "type": "function"
    },
    {
      "inputs": [],
      "name": "registry",
      "outputs": [
        {
          "internalType": "contract IBaluniV1Registry",
          "name": "",
          "type": "address"
        }
      ],
      "stateMutability": "view",
      "type": "function"
    },
    {
      "inputs": [
        {
          "internalType": "address",
          "name": "_register",
          "type": "address"
        },
        {
          "internalType": "uint64",
          "name": "_version",
          "type": "uint64"
        }
      ],
      "name": "reinitialize",
      "outputs": [],
      "stateMutability": "nonpayable",
      "type": "function"
    },
    {
      "inputs": [
        {
          "internalType": "address",
          "name": "_vault",
          "type": "address"
        }
      ],
      "name": "removeVault",
      "outputs": [],
      "stateMutability": "nonpayable",
      "type": "function"
    },
    {
      "inputs": [],
      "name": "renounceOwnership",
      "outputs": [],
      "stateMutability": "nonpayable",
      "type": "function"
    },
    {
      "inputs": [
        {
          "internalType": "address",
          "name": "newOwner",
          "type": "address"
        }
      ],
      "name": "transferOwnership",
      "outputs": [],
      "stateMutability": "nonpayable",
      "type": "function"
    },
    {
      "inputs": [
        {
          "internalType": "address",
          "name": "newImplementation",
          "type": "address"
        },
        {
          "internalType": "bytes",
          "name": "data",
          "type": "bytes"
        }
      ],
      "name": "upgradeToAndCall",
      "outputs": [],
      "stateMutability": "payable",
      "type": "function"
    },
    {
      "inputs": [
        {
          "internalType": "address",
          "name": "_vault",
          "type": "address"
        }
      ],
      "name": "vaultExist",
      "outputs": [
        {
          "internalType": "bool",
          "name": "",
          "type": "bool"
        }
      ],
      "stateMutability": "view",
      "type": "function"
    }
  ],
  "bytecode": "0x60a060405234603957600e6047565b6014603d565b6128146100a482396080518181816120ed015281816121590152612322015261281490f35b6043565b60405190565b5f80fd5b604d604f565b565b60556057565b565b605d6097565b565b60018060a01b031690565b90565b607c6078608092605f565b606a565b605f565b90565b608a90606d565b90565b6094906083565b90565b609e30608d565b60805256fe60806040526004361015610013575b610c08565b61001d5f3561016c565b806302b3537d1461016757806310894052146101625780631f844a4c1461015d578063256b5a02146101585780634f1ef2861461015357806352d1902d1461014e578063592717af14610149578063715018a6146101445780637b1039991461013f5780638da5cb5b1461013a5780638f2248bc146101355780639094a91e1461013057806397331bf91461012b578063a14eb08514610126578063ad3cb1cc14610121578063b9b658db1461011c578063c4d66de814610117578063ca9d67c814610112578063ceb68c231461010d578063f2fde38b146101085763f76932270361000e57610bd3565b610ba0565b610b6d565b610b38565b610b05565b610ad0565b610a79565b610949565b6108dd565b6108a8565b6107bc565b61072c565b6106f7565b610656565b610620565b6105be565b610560565b610403565b6103c9565b6102d7565b610203565b60e01c90565b60405190565b5f80fd5b5f80fd5b5f80fd5b60018060a01b031690565b61019890610184565b90565b6101a48161018f565b036101ab57565b5f80fd5b905035906101bc8261019b565b565b906020828203126101d7576101d4915f016101af565b90565b61017c565b151590565b6101ea906101dc565b9052565b9190610201905f602085019401906101e1565b565b346102335761022f61021e6102193660046101be565b610c3e565b610226610172565b918291826101ee565b0390f35b610178565b5190565b60209181520190565b60200190565b6102549061018f565b9052565b906102658160209361024b565b0190565b60200190565b9061028c61028661027f84610238565b809361023c565b92610245565b905f5b81811061029c5750505090565b9091926102b56102af6001928651610258565b94610269565b910191909161028f565b6102d49160208201915f81840391015261026f565b90565b34610307576103036102f26102ed3660046101be565b610ded565b6102fa610172565b918291826102bf565b0390f35b610178565b90565b61032361031e61032892610184565b61030c565b610184565b90565b6103349061030f565b90565b6103409061032b565b90565b9061034d90610337565b5f5260205260405f2090565b1c90565b60018060a01b031690565b61037890600861037d9302610359565b61035d565b90565b9061038b9154610368565b90565b6103a49061039f6002915f92610343565b610380565b90565b6103b09061018f565b9052565b91906103c7905f602085019401906103a7565b565b346103f9576103f56103e46103df3660046101be565b61038e565b6103ec610172565b918291826103b4565b0390f35b610178565b5f0190565b346104315761041b6104163660046101be565b61135b565b610423610172565b8061042d816103fe565b0390f35b610178565b5f80fd5b5f80fd5b601f801991011690565b634e487b7160e01b5f52604160045260245ffd5b906104669061043e565b810190811060018060401b0382111761047e57604052565b610448565b9061049661048f610172565b928361045c565b565b60018060401b0381116104b4576104b060209161043e565b0190565b610448565b90825f939282370152565b909291926104d96104d482610498565b610483565b938185526020850190828401116104f5576104f3926104b9565b565b61043a565b9080601f8301121561051857816020610515933591016104c4565b90565b610436565b91909160408184031261055b57610536835f83016101af565b92602082013560018060401b0381116105565761055392016104fa565b90565b610180565b61017c565b61057461056e36600461051d565b9061138f565b61057c610172565b80610586816103fe565b0390f35b5f91031261059457565b61017c565b90565b6105a590610599565b9052565b91906105bc905f6020850194019061059c565b565b346105ee576105ce36600461058a565b6105ea6105d961140a565b6105e1610172565b918291826105a9565b0390f35b610178565b919060408382031261061b578061060f610618925f86016101af565b936020016101af565b90565b61017c565b346106515761064d61063c6106363660046105f3565b90611447565b610644610172565b918291826103b4565b0390f35b610178565b346106845761066636600461058a565b61066e611494565b610676610172565b80610680816103fe565b0390f35b610178565b60018060a01b031690565b6106a49060086106a99302610359565b610689565b90565b906106b79154610694565b90565b6106c660015f906106ac565b90565b6106d29061032b565b90565b6106de906106c9565b9052565b91906106f5905f602085019401906106d5565b565b346107275761070736600461058a565b6107236107126106ba565b61071a610172565b918291826106e2565b0390f35b610178565b3461075c5761073c36600461058a565b61075861074761149e565b61074f610172565b918291826103b4565b0390f35b610178565b60018060401b031690565b61077581610761565b0361077c57565b5f80fd5b9050359061078d8261076c565b565b91906040838203126107b757806107ab6107b4925f86016101af565b93602001610780565b90565b61017c565b346107eb576107d56107cf36600461078f565b90611711565b6107dd610172565b806107e7816103fe565b0390f35b610178565b90565b6107fc816107f0565b0361080357565b5f80fd5b90503590610814826107f3565b565b9060208282031261082f5761082c915f01610807565b90565b61017c565b634e487b7160e01b5f52603260045260245ffd5b5490565b5f5260205f2090565b61085e81610848565b8210156108785761087060019161084c565b910201905f90565b610834565b5f61088781610848565b8210156108a4576108a19161089b91610855565b90610380565b90565b5f80fd5b346108d8576108d46108c36108be366004610816565b61087d565b6108cb610172565b918291826103b4565b0390f35b610178565b3461090d576108ed36600461058a565b6109096108f86117cb565b610900610172565b918291826102bf565b0390f35b610178565b9061091c90610337565b5f5260205260405f2090565b6109416109469261093c6003935f94610912565b610343565b610380565b90565b3461097a5761097661096561095f3660046105f3565b90610928565b61096d610172565b918291826103b4565b0390f35b610178565b60018060401b03811161099b5761099760209161043e565b0190565b610448565b906109b26109ad8361097f565b610483565b918252565b5f7f352e302e30000000000000000000000000000000000000000000000000000000910152565b6109e860056109a0565b906109f5602083016109b7565b565b6109ff6109de565b90565b610a0a6109f7565b90565b610a15610a02565b90565b5190565b60209181520190565b90825f9392825e0152565b610a4f610a58602093610a5d93610a4681610a18565b93848093610a1c565b95869101610a25565b61043e565b0190565b610a769160208201915f818403910152610a30565b90565b34610aa957610a8936600461058a565b610aa5610a94610a0d565b610a9c610172565b91829182610a61565b0390f35b610178565b610ab7906107f0565b9052565b9190610ace905f60208501940190610aae565b565b34610b0057610ae036600461058a565b610afc610aeb6117e4565b610af3610172565b91829182610abb565b0390f35b610178565b34610b3357610b1d610b183660046101be565b6119ec565b610b25610172565b80610b2f816103fe565b0390f35b610178565b34610b6857610b64610b53610b4e3660046101be565b611a32565b610b5b610172565b918291826102bf565b0390f35b610178565b34610b9b57610b85610b803660046101be565b611fda565b610b8d610172565b80610b97816103fe565b0390f35b610178565b34610bce57610bb8610bb33660046101be565b612051565b610bc0610172565b80610bca816103fe565b0390f35b610178565b34610c0357610bff610bee610be93660046101be565b61205c565b610bf6610172565b918291826103b4565b0390f35b610178565b5f80fd5b5f90565b90565b610c27610c22610c2c92610c10565b61030c565b6107f0565b90565b6001610c3b91016107f0565b90565b610c46610c0c565b50610c505f610c13565b5b80610c6c610c66610c615f610848565b6107f0565b916107f0565b1015610cb257610c86610c805f8390610855565b90610380565b610c98610c928461018f565b9161018f565b14610cab57610ca690610c2f565b610c51565b5050600190565b50505f90565b606090565b60018060401b038111610cd35760208091020190565b610448565b90610cea610ce583610cbd565b610483565b918252565b369037565b90610d19610d0183610cd8565b92602080610d0f8693610cbd565b9201910390610cef565b565b610d249061030f565b90565b610d3090610d1b565b90565b610d3c9061032b565b90565b60e01b90565b90505190610d528261019b565b565b90602082820312610d6d57610d6a915f01610d45565b90565b61017c565b610d7a610172565b3d5f823e3d90fd5b90610d8c82610238565b811015610d9d576020809102010190565b610834565b90610dac9061018f565b9052565b634e487b7160e01b5f52601160045260245ffd5b610dcd906107f0565b5f198114610ddb5760010190565b610db0565b610dea905161018f565b90565b610df5610cb8565b50610e07610e025f610848565b610cf4565b91610e115f610c13565b92610e1b5f610c13565b5b80610e37610e31610e2c5f610848565b6107f0565b916107f0565b1015610fbc57610e59610e54610e4e5f8490610855565b90610380565b610d27565b610e7d6020610e6783610d33565b63cdf456e190610e75610172565b938492610d3f565b82528180610e8d600482016103fe565b03915afa908115610fb7575f91610f89575b50610eb2610eac8761018f565b9161018f565b14610f55575084610ed3610ecd610ec885610238565b6107f0565b916107f0565b14610ee657610ee190610c2f565b610e1c565b509091505b610ef483610cf4565b91610efe5f610c13565b5b80610f12610f0c876107f0565b916107f0565b1015610f4e57610f4990610f44610f32610f2d868490610d82565b610de0565b610f3f8791849092610d82565b610da2565b610c2f565b610eff565b5092505090565b610f83939450610f7e9150610f6c90959295610d33565b610f798691849092610d82565b610da2565b610dc4565b91610eeb565b610faa915060203d8111610fb0575b610fa2818361045c565b810190610d54565b5f610e9f565b503d610f98565b610d72565b50909150610eeb565b610fd690610fd161207b565b6111a3565b565b610fec610fe7610ff192610c10565b61030c565b610184565b90565b610ffd90610fd8565b90565b60207f756c745f41444452455353000000000000000000000000000000000000000000917f42616c756e6956315661756c74466163746f72793a20494e56414c49445f76615f8201520152565b61105a602b604092610a1c565b61106381611000565b0190565b61107c9060208101905f81830391015261104d565b90565b1561108657565b61108e610172565b62461bcd60e51b8152806110a460048201611067565b0390fd5b90565b5f5260205f2090565b5490565b6110c1816110b4565b8210156110db576110d36001916110ab565b910201905f90565b610834565b1b90565b919060086111049102916110fe60018060a01b03846110e0565b926110e0565b9181191691161790565b90565b919061112761112261112f93610337565b61110e565b9083546110e4565b9055565b90815491600160401b83101561115e578261115691600161115c950181556110b8565b90611111565b565b610448565b5f1b90565b9061117960018060a01b0391611163565b9181191691161790565b9061119861119361119f92610337565b61110e565b8254611168565b9055565b6111c8816111c16111bb6111b65f610ff4565b61018f565b9161018f565b141561107f565b6111db6111d45f6110a8565b8290611133565b61120760206111f16111ec84610d27565b610d33565b63cdf456e1906111ff610172565b938492610d3f565b82528180611217600482016103fe565b03915afa908115611356575f91611328575b50611256602061124061123b85610d27565b610d33565b63fdf262b79061124e610172565b938492610d3f565b82528180611266600482016103fe565b03915afa908115611323575f916112f5575b508061129461128e6112895f610ff4565b61018f565b9161018f565b145f146112b357506112ab6112b092916002610343565b611183565b5b565b906112eb906112e6846112de6112f0966112d96112d260038790610912565b8890610343565b611183565b936003610912565b610343565b611183565b6112b1565b611316915060203d811161131c575b61130e818361045c565b810190610d54565b5f611278565b503d611304565b610d72565b611349915060203d811161134f575b611341818361045c565b810190610d54565b5f611229565b503d611337565b610d72565b61136490610fc5565b565b90611378916113736120dc565b61137a565b565b9061138d9161138881612195565b612205565b565b9061139991611366565b565b5f90565b6113b0906113ab612311565b6113fe565b90565b90565b6113ca6113c56113cf926113b3565b611163565b610599565b90565b6113fb7f360894a13ba1a3210667c828492db98dca3e2076cc3735a920a3ca505d382bbc6113b6565b90565b506114076113d2565b90565b61141a61141561139b565b61139f565b90565b5f90565b5f1c90565b61143261143791611421565b61035d565b90565b6114449054611426565b90565b61146c916114626114679261145a61141d565b506003610912565b610343565b61143a565b90565b61147761207b565b61147f611481565b565b61149261148d5f610ff4565b612376565b565b61149c61146f565b565b6114a661141d565b506114b95f6114b36123e2565b0161143a565b90565b60401c90565b60ff1690565b6114d46114d9916114bc565b6114c2565b90565b6114e690546114c8565b90565b60018060401b031690565b61150061150591611421565b6114e9565b90565b61151290546114f4565b90565b9061152660018060401b0391611163565b9181191691161790565b61154461153f61154992610761565b61030c565b610761565b90565b90565b9061156461155f61156b92611530565b61154c565b8254611515565b9055565b60401b90565b9061158460ff60401b9161156f565b9181191691161790565b611597906101dc565b90565b90565b906115b26115ad6115b99261158e565b61159a565b8254611575565b9055565b6115c690610761565b9052565b91906115dd905f602085019401906115bd565b565b9080916115ea612406565b906115f65f83016114dc565b801561168e575b61166b576116309261162791611615865f860161154f565b61162260015f860161159d565b6116fa565b5f80910161159d565b6116667fc7f505b2f371ae2175ee4913f4499e1f2633a7b5936321eed1cdaeb6115181d29161165d610172565b918291826115ca565b0390a1565b611673610172565b63f92ee8a960e01b81528061168a600482016103fe565b0390fd5b5061169a5f8301611508565b6116ac6116a686610761565b91610761565b10156115fd565b6116bc9061030f565b90565b6116c8906116b3565b90565b6116d4906116b3565b90565b90565b906116ef6116ea6116f6926116cb565b6116d7565b8254611168565b9055565b61170f9150611708906116bf565b60016116da565b565b9061171b916115df565b565b60209181520190565b6117309054611426565b90565b60010190565b9061175661175061174984610848565b809361171d565b9261084c565b905f5b8181106117665750505090565b90919261178661178060019261177b87611726565b610258565b94611733565b9101919091611759565b9061179a91611739565b90565b906117bd6117b6926117ad610172565b93848092611790565b038361045c565b565b6117c89061179d565b90565b6117d3610cb8565b506117dd5f6117bf565b90565b5f90565b6117ec6117e0565b506117f65f610848565b90565b61180d61180861181292610c10565b61030c565b610761565b90565b90565b61182c61182761183192611815565b61030c565b610761565b90565b61183d9061032b565b90565b61184990611818565b9052565b9190611860905f60208501940190611840565b565b61186a612406565b9061187f6118795f84016114dc565b156101dc565b9061188b5f8401611508565b8061189e6118985f6117f9565b91610761565b14806119bf575b906118b96118b36001611818565b91610761565b1480611997575b6118cb9091156101dc565b9081611986575b50611963576118fb906118f06118e86001611818565b5f860161154f565b82611951575b6119c6565b611903575b50565b611910905f80910161159d565b60016119487fc7f505b2f371ae2175ee4913f4499e1f2633a7b5936321eed1cdaeb6115181d29161193f610172565b9182918261184d565b0390a15f611900565b61195e60015f860161159d565b6118f6565b61196b610172565b63f92ee8a960e01b815280611982600482016103fe565b0390fd5b6119919150156101dc565b5f6118d2565b506118cb6119a430611834565b3b6119b76119b15f610c13565b916107f0565b1490506118c0565b50826118a5565b6119e36119ea916119d5612434565b6119de3361245c565b6116bf565b60016116da565b565b6119f590611862565b565b90565b611a0e611a09611a13926119f7565b61030c565b6107f0565b90565b611a2a611a25611a2f92611815565b61030c565b6107f0565b90565b611a3a610cb8565b50611a7a611a50611a4b60026119fa565b610cf4565b916020611a64611a5f83610d27565b610d33565b63cdf456e190611a72610172565b948592610d3f565b82528180611a8a600482016103fe565b03915afa918215611b8857611acb602092611ac6611ae695611ad0945f91611b5b575b50611ac188611abb5f610c13565b90610d82565b610da2565b610d27565b610d33565b63fdf262b790611ade610172565b938492610d3f565b82528180611af6600482016103fe565b03915afa8015611b5657611b25915f91611b28575b50611b2083611b1a6001611a16565b90610d82565b610da2565b90565b611b49915060203d8111611b4f575b611b41818361045c565b810190610d54565b5f611b0b565b503d611b37565b610d72565b611b7b9150863d8111611b81575b611b73818361045c565b810190610d54565b5f611aad565b503d611b69565b610d72565b611b9e90611b9961207b565b611c1c565b565b611baf611bb5919392936107f0565b926107f0565b8203918211611bc057565b610db0565b634e487b7160e01b5f52603160045260245ffd5b611beb91611be561141d565b91611111565b565b611bf6816110b4565b8015611c17576001900390611c14611c0e83836110b8565b90611bd9565b55565b611bc5565b611c255f610c13565b5b80611c41611c3b611c365f610848565b6107f0565b916107f0565b1015611fd357611c5b611c555f8390610855565b90610380565b611c6d611c678461018f565b9161018f565b14611c8057611c7b90610c2f565b611c26565b611cc390611cbd611cb6611cb05f611caa611c9a5f610848565b611ca46001611a16565b90611ba0565b90610855565b90610380565b915f610855565b90611111565b611ccc5f610ff4565b600290611cfb6020611ce5611ce086610d27565b610d33565b63cdf456e190611cf3610172565b938492610d3f565b82528180611d0b600482016103fe565b03915afa8015611fce57611d2f93611d2a925f92611f9e575b50610343565b611183565b611d385f610ff4565b611d6660036020611d50611d4b86610d27565b610d33565b63fdf262b790611d5e610172565b948592610d3f565b82528180611d76600482016103fe565b03915afa908115611f9957611d92925f92611f69575b50610912565b90611dbf6020611da9611da486610d27565b610d33565b63cdf456e190611db7610172565b938492610d3f565b82528180611dcf600482016103fe565b03915afa8015611f6457611df393611dee925f92611f34575b50610343565b611183565b611dfc5f610ff4565b6003611e2a6020611e14611e0f86610d27565b610d33565b63cdf456e190611e22610172565b938492610d3f565b82528180611e3a600482016103fe565b03915afa8015611f2f57611e68611e62611e6d92611e83956020955f92611f00575b50610912565b95610d27565b610d33565b63fdf262b790611e7b610172565b938492610d3f565b82528180611e93600482016103fe565b03915afa8015611efb57611eb793611eb2925f92611ecb575b50610343565b611183565b611ec8611ec35f6110a8565b611bed565b5b565b611eed91925060203d8111611ef4575b611ee5818361045c565b810190610d54565b905f611eac565b503d611edb565b610d72565b611f21919250863d8111611f28575b611f19818361045c565b810190610d54565b905f611e5c565b503d611f0f565b610d72565b611f5691925060203d8111611f5d575b611f4e818361045c565b810190610d54565b905f611de8565b503d611f44565b610d72565b611f8b91925060203d8111611f92575b611f83818361045c565b810190610d54565b905f611d8c565b503d611f79565b610d72565b611fc091925060203d8111611fc7575b611fb8818361045c565b810190610d54565b905f611d24565b503d611fae565b610d72565b5050611ec9565b611fe390611b8d565b565b611ff690611ff161207b565b611ff8565b565b8061201361200d6120085f610ff4565b61018f565b9161018f565b146120235761202190612376565b565b61204d61202f5f610ff4565b612037610172565b918291631e4fbdf760e01b8352600483016103b4565b0390fd5b61205a90611fe5565b565b6120736120789161206b61141d565b506002610343565b61143a565b90565b61208361149e565b61209c612096612091612467565b61018f565b9161018f565b036120a357565b6120cc6120ae612467565b6120b6610172565b91829163118cdaa760e01b8352600483016103b4565b0390fd5b6120d99061032b565b90565b6120e5306120d0565b6121176121117f000000000000000000000000000000000000000000000000000000000000000061018f565b9161018f565b148015612148575b61212557565b61212d610172565b63703e46dd60e11b815280612144600482016103fe565b0390fd5b50612151612474565b61218361217d7f000000000000000000000000000000000000000000000000000000000000000061018f565b9161018f565b141561211f565b5061219361207b565b565b61219e9061218a565b565b6121a99061030f565b90565b6121b5906121a0565b90565b6121c19061032b565b90565b6121cd81610599565b036121d457565b5f80fd5b905051906121e5826121c4565b565b90602082820312612200576121fd915f016121d8565b90565b61017c565b9190612233602061221d612218866121ac565b6121b8565b6352d1902d9061222b610172565b938492610d3f565b82528180612243600482016103fe565b03915afa80915f926122e1575b50155f1461228b57505090600161226557505b565b61228790612271610172565b918291634c9c8ce360e01b8352600483016103b4565b0390fd5b92836122a66122a061229b6113d2565b610599565b91610599565b036122bb576122b692935061249e565b612263565b6122dd846122c7610172565b918291632a87526960e21b8352600483016105a9565b0390fd5b61230391925060203d811161230a575b6122fb818361045c565b8101906121e7565b905f612250565b503d6122f1565b61231a306120d0565b61234c6123467f000000000000000000000000000000000000000000000000000000000000000061018f565b9161018f565b0361235357565b61235b610172565b63703e46dd60e11b815280612372600482016103fe565b0390fd5b61237e6123e2565b61239661238c5f830161143a565b915f849101611183565b906123ca6123c47f8be0079c531659141344cd1fd0a4f28419497f9722a3daafe3b4186f6b6457e093610337565b91610337565b916123d3610172565b806123dd816103fe565b0390a3565b7f9016d09d72d40fdae2fd8ceac6b6234c7706214fd39c1cd1e609a0528c19930090565b7ff0c57e16840df040f15088dc2f81fe391c3923bec73e23a9662efc9c229c6a0090565b612432612527565b565b61243c61242a565b565b61244f9061244a612527565b612451565b565b61245a906125cd565b565b6124659061243e565b565b61246f61141d565b503390565b61247c61141d565b506124975f61249161248c6113d2565b6125d8565b0161143a565b90565b5190565b906124a8826125db565b816124d37fbc7cd75a20ee27fd9adebab32041f755214dbc6bffa90cc0225b39da2e5c2d3b91610337565b906124dc610172565b806124e6816103fe565b0390a26124f28161249a565b6125046124fe5f610c13565b916107f0565b115f1461251857612514916126b9565b505b565b5050612522612637565b612516565b6125386125326126e8565b156101dc565b61253e57565b612546610172565b631afcd79f60e31b81528061255d600482016103fe565b0390fd5b6125729061256d612527565b612574565b565b8061258f6125896125845f610ff4565b61018f565b9161018f565b1461259f5761259d90612376565b565b6125c96125ab5f610ff4565b6125b3610172565b918291631e4fbdf760e01b8352600483016103b4565b0390fd5b6125d690612561565b565b90565b803b6125ef6125e95f610c13565b916107f0565b146126115761260f905f6126096126046113d2565b6125d8565b01611183565b565b6126339061261d610172565b918291634c9c8ce360e01b8352600483016103b4565b0390fd5b3461264a6126445f610c13565b916107f0565b1161265157565b612659610172565b63b398979f60e01b815280612670600482016103fe565b0390fd5b606090565b9061268b61268683610498565b610483565b918252565b3d5f146126ab576126a03d612679565b903d5f602084013e5b565b6126b3612674565b906126a9565b5f806126e5936126c7612674565b508390602081019051915af4906126dc612690565b90919091612706565b90565b6126f0610c0c565b506127035f6126fd612406565b016114dc565b90565b9061271a90612713612674565b50156101dc565b5f146127265750612791565b61272f8261249a565b61274161273b5f610c13565b916107f0565b1480612776575b612750575090565b6127729061275c610172565b918291639996b31560e01b8352600483016103b4565b0390fd5b50803b61278b6127855f610c13565b916107f0565b14612748565b61279a8161249a565b6127ac6127a65f610c13565b916107f0565b115f146127bb57805190602001fd5b6127c3610172565b630a12f52160e11b8152806127da600482016103fe565b0390fdfea264697066735822122079e12c7840091179e8d4bc396ebb205682f12a1985632d30b9f9e883d16c2a0f64736f6c63430008190033",
  "linkReferences": {},
  "deployedLinkReferences": {}
}